:020000041004E6
:1000000000600020790B0410990A0410A30A041060
:10001000AA5555AA000000000000000000000000E2
:10002000000000000000000000000000AD0A041005
:100030000000000000000000B30A0410BF0A041012
:10004000C50A0410E30A04100000000000000000CC
:10005000DD0A0410D70A0410CB0A0410D10A0410D8
:100060000000000000000000000000000000000090
:1000700000000000E90A0410EF0A0410F50A041059
:1000800000000000FB0A0410010B0410070B041011
:100090000D0B0410130B0410190B04101F0B04108C
:1000A00010B503680124A3430360C1604260016886
:1000B00001220A43026010BD08206D4908806D4886
:1000C0006D4908608020C0056C49C1626C490163BC
:1000D000C1686C4A0A40C260416880220A4342609B
:1000E000016880229143016067480168674A0A40BD
:1000F000872111430160416806220A434260644837
:100100004169644A1140644B0B4343616349C161D7
:1001100003681A40624B1343036081600168012247
:100120000A4302605F48017805220A430270704763
:100130001CB508204E4908805B490191410301AB81
:100140009BB20B43594A136014680C40FCD1584CC5
:100150000194136013680B40FCD15B1C554C009458
:100160006C46A4B20C43146014680C40FCD1009C93
:10017000240C052C02D0DCB2642CEEDB4E493E4A46
:1001800011604E494A6A4E4B13404E4A1A434A6226
:100190000A684D4B13400B604C4908812C200873B2
:1001A000087C602202430A740878702202430A70B5
:1001B000087EC72202400A764869012202434A614A
:1001C00043480168334A0A404249114301604249A9
:1001D00081604248017802220A43027013BDFFB5D4
:1001E00004000D0010003E4909683E4A914239D191
:1001F00001008207920F01D0091D891A3A4A002393
:10020000D36000266B460394019500E0361D8E42B4
:100210002AD20024019D3719874201D2EF5D00E008
:10022000FF271F55641C042CF5DB01953F24146146
:10023000039CA519AC03240C94611F785C782402FC
:100240003C439F783F042743DC7824063C431464F6
:10025000332717601769FF07FCD52D680295029DAB
:10026000A542D3D0012000E0002004B0F0BD000082
:100270000400104073C001002000904004440000BE
:100280001041000072F7FFFF0000404020009FFF78
:10029000580000A00F80FFFF9010000008004040B1
:1002A000A020000024004040023A44000C00004816
:1002B00002341B00824300006BC001000C000040B0
:1002C000F00FFFFF01100000FFF6FFFF1C003040A1
:1002D0001C0000A09020000000003040480030408A
:1002E00014000020CCBCECFC00001040F2B5FFB0C4
:1002F00095B000216A4611701172117351815173CA
:1003000007910F9101215172049194A909780D91DF
:1003100092490D9A895C0C9152A90C9A8918019105
:100320000421019A1170FF21019A51700321019A51
:1003300091700121019AD1700021019A11710199E6
:100340004871062005900120694608728448854955
:1003500041180B9184494018069052A80A9010A8A1
:1003600009909DE2072072E294A80078002803D14A
:100370000898008B9028FBD1BFF34F8FBC48BD4934
:100380000860BFF34F8FFEE7D1680179C907FBD53D
:1003900011460A78FD2313400B70FF21016043E0F2
:1003A0004A0713681B053CD56B465B7A002B38D196
:1003B00001236C466372049B042B32DB1368802498
:1003C000A3431360BF4A526884225200BD4B5B684E
:1003D0009BB2D21A062A0CDB10AA13780A2B03D17F
:1003E00001226B461A7004E00B2B02D100226B46EF
:1003F0001A72012204926A46127A002A52D0049A92
:10040000012A4FD152AA0823137001235370059B70
:100410009370059B1B12D370AB4A1378194311706C
:1004200029E0049A032AE6D104A8A8490A680260D0
:10043000842252000999A348FFF732FE042204A93E
:10044000A348FFF72DFE8020C005016880220A43E3
:100450000260842040009B49496889B2401A042800
:10046000F7DD8020C00501688022914301600720EC
:1004700004901FE0D1680179C907FBD511460A78BD
:10048000FD2313400B70FF21016084225200099963
:100490008C48FFF705FE059A121D0A998C48FFF754
:1004A000FFFDD0E70498052804D1D2E76B465A73C4
:1004B0000F910E9068460078012802D16846007BB3
:1004C000002800D0C7E110A882490D9A895C441821
:1004D00052AE0420019A10700E21019A51700199B8
:1004E000887001200199C87020780199087160789E
:1004F00001994871002001998871012069460872AC
:100500006078FC2800D08BE1A07804280FDBE0782D
:10051000009021790902014300910846617909049C
:10052000014300910846A179090601430091207812
:1005300021380928E6D802A14000095A8F4400BF9B
:100540001400D200DA00EE000601380198013A02E8
:1005500072021C010120694608736DE1920B0410C0
:1005600000200000140004100000041094A800787B
:1005700000289FD16846427B0F990E9800E0012227
:10058000089B9B8FDB0691D5089B1B88DBB2140070
:1005900002D100246E4674816C466489661C6F46E5
:1005A0007E8110AF3B55140005D1012BE7D0FF2B06
:1005B000E6D10322E4E7012A01D10222E0E7022A80
:1005C00001D10622DCE7032A01D10422D8E7042A5C
:1005D00002D118000522D3E7052A06D119024018D6
:1005E00080B20021002806D10EE0062A05D11800AD
:1005F0000021002808D00B22C2E70B2AC0D1491CD9
:100600008BB284B2A342BBD3002201236C46237079
:10061000B6E701988570062026E0062001998870CB
:1006200040200199C87100200199087204E100205E
:100630000090042269460B98FFF7D1FD00283ED0B8
:100640004A20B072F8E0AC480090042269460B984A
:10065000FFF7C5FD002832D04A20EBE001988570F5
:10066000A64800680006000F0199C871E4E000BFC9
:100670000400FA050CED00E0FC2001998871009857
:1006800006998842F2D38005F0D1009908009C4A6F
:1006900012689C4B9A42E9D13F229B4B1A61890315
:1006A000090C9961112119601969C907FCD5590D07
:1006B0000023DB4302689A42D8D1001D491E58D05E
:1006C000F8E700BF580000A0800040408C0B0410E9
:1006D0006C0000A0900B0410FB2001998871009819
:1006E00006998842C2D3E079217A0E020643032795
:1006F0000098032505400ED0401B0090761900207D
:1007000007E000990918097822000932431BD154E7
:10071000401CA842F5DB3740032086430ED0320050
:1007200020000930694241180098FFF758FD002861
:100730009CD101998871009880190090002F7BD07E
:100740000020874206D221000931721B1218009B3B
:100750001B788B54401C0428F3DB089504222846A0
:1007600041426018811909310098FFF738FD0028CF
:1007700001D100205EE0FB205CE0009806998842F1
:1007800015D3E179207A000208430021F31D08E027
:10079000009A12780C9C64181A55009A521C009208
:1007A000491C8142F4D3001D01998870E1E7FA20C9
:1007B00040E0FA2001998871082001998870FF2093
:1007C000019AD071019A1072019A5072019988723F
:1007D0000098069988422FD3002001998871E0790A
:1007E000C10200230022494D0CE0009880180068E7
:1007F0005840030020205C00DB0F6B436340401E29
:10080000F9D1121D8A42F0D30199CB71180A0199CE
:100810000872180C01994872180E019988720BE041
:100820000F200199487001200199087120780199E1
:1008300048716078019988716846007A012807D16B
:1008400001988078042800DC8CE5C01C80B20590FB
:1008500000206946087094A80078002820D16846D6
:10086000007A00280CD00798002809D101200790B1
:10087000059A0A992648FFF713FC0020694608727A
:100880002020A02109060968014009D0A0210906FD
:100890004860002007901E480168012291430160D2
:1008A0001C4808906846007A002807D16846007BFB
:1008B000002803D00798002800D155E5052594A805
:1008C0000078012800D051E6134802214A07126837
:1008D000120500D564E56A46527A002A00D15FE528
:1008E00000226B465A72049A012A00D099E50B4AFD
:1008F00013781943117048E545554C421C0090404F
:1009000014000020CCBCECFC00001040B71DC1045A
:100910001C0000A000003040080040408000404023
:1009200010B50F22474B1C682409144004701B6843
:100930001A400A700178002901D10121017010BD0F
:10094000F8B584B002A800BF49A10CC90CC03E484C
:100950003E4944180194091D45183D480078002877
:100960000BD13C480088052807DD280000F088F8F6
:10097000216881F308888047FEE700A9891C00A848
:10098000401CFFF7CDFF6846407800016946897832
:100990000143122904DB02A8417904220A4342716F
:1009A0002D488021490202AA92B20A4302600268DD
:1009B0000A40FCD129482A4908600120694608708C
:1009C00080070978032906D101688904CA0F01212B
:1009D00051406A46117000BF27A1224A224B1E686F
:1009E000224FBE420DD11A60684600788000085838
:1009F0008047684601780220FFF778FC002005B0A8
:100A0000F0BD6369934208D06846007880000858BA
:100A10008047684601780320EEE70068000708D5A4
:100A200068460078800008588047684601780420AE
:100A3000E2E7280000F024F80199096881F30888AA
:100A40008047FEE71C0090400020000000000410DA
:100A500008009040080010480C000048CCBCECFC9A
:100A60001400002045554C423000002001010101D6
:100A7000023B4802350B000031010410B90004109C
:100A8000C3788278417800781B021A430902120465
:100A900008431043704700002248FFF7F1FF8047EA
:100AA000FEE72148FFF7ECFF8047FEE780B51F48CF
:100AB00001E080B51E48FFF7E3FF804701BD80B528
:100AC0001C48F8E780B51C48F5E780B51B48F2E7FD
:100AD00080B51B48EFE780B51A48ECE780B51A48A7
:100AE000E9E780B51948E6E780B51948E3E780B53E
:100AF0001848E0E780B51848DDE780B51748DAE721
:100B000080B51748D7E780B51648D4E780B51648B2
:100B1000D1E780B51548CEE780B51548CBE780B55D
:100B20001448C8E7082004100C2004102C200410DE
:100B3000382004103C2004104020041058200410D9
:100B40005C20041054200410502004104420041091
:100B500074200410782004107C20041084200410D9
:100B6000882004108C20041090200410942004107D
:100B7000982004109C20041080B5002002490860D1
:100B800072B6FFF7DDFE01BD140000200801000071
:100B900001060004FFFFFFFFFFFFFFFFFFFFFFFF56
:100BA000FFFFFFFFFFFFFFFFFFFFFFFFFFFFFFFF55
:100BB000FFFFFFFFFFFFFFFFFFFFFFFFFFFFFFFF45
:100BC000FFFFFFFFFFFFFFFFFFFFFFFFFFFFFFFF35
:100BD000FFFFFFFFFFFFFFFFFFFFFFFFFFFFFFFF25
:1020000000600020BF2C0610AF170610BB1706108B
:10201000AA5555AA45554C4200000000000000009A
:10202000000000000000000000000000C7170610BC
:1020300000000000000000008F5E0410C9170610A9
:10204000D51706108B60041000000000000000008F
:10205000DD1706100F6104101F1806109F7D041075
:102060000000000000000000000000000000000070
:1020700000000000F37D0410137E0410677F04103D
:1020800000000000CB660410E36A0410376D0410F2
:102090006B6F04102F7204105F8604100D18061069
:1020A0000000000000000000000000000000000030
:1020B0000000000000000000000000000000000020
:1020C00010B5062B01DC002010BD14004278817889
:1020D0000906090C0A43C178100003F066FEE0709F
:1020E000042020700F216170A07001212171062150
:1020F000617100F060FD10B5062B01DC002010BD01
:102100001400417882781206120C1143080003F083
:102110005DFEE070042020700F216170A07001212D
:1021200021711D21617100F046FD10B5062B01DC07
:10213000002010BD1400401C03F080FEA07104209C
:1021400020700E216170A0700120E07010E010B5C9
:102150001400062B01DC002010BD03F083FEA071EB
:10216000042020700E216170A0700120E070032017
:1021700020710C206071072010BD38B500216C461D
:102180002170092B01DC002032BD140005006878A5
:10219000A9780906090C08436A46E97803F067FE46
:1021A000A0716878A9780906090C0843E071000A53
:1021B0002072684600786072042020700E206070E3
:1021C0000720A0700120E0702D2020710C2060718C
:1021D0000A2032BD10B586B000206C4669466060AA
:1021E00088600F2B44DB140002A8009002AB9B1CFC
:1021F00001AA01A9891C01A8401C03F049FEA07195
:1022000003A803F057FE03A86946C9880907090F08
:10221000427812030A4381780902F0231B010B4024
:10222000134300780001F021014019436846C18042
:102230004079E0716846C0882072000A6072684682
:102240000079A07268464089E072000A20736846EF
:1022500000896073000AA073042020700E20607053
:102260000C20A0700120E0702071102060710F2000
:1022700006B010BD10B590B0472B01DA002016E073
:102280001400684603F085FEA07140226946E01DF7
:1022900003F0C6FE042020700E2060704420A07061
:1022A0000120E0700220207110206071472010B0E2
:1022B00010BD1CB50F2B01DA002016BD14006846B6
:1022C00003F0C2FEA07108226946E01D03F0A8FEDB
:1022D000042020700E2060700C20A0700120E0709F
:1022E00003202071102012E31CB50D2B01DA002011
:1022F00016BD1400684603F0B1FEA07106226946BF
:10230000E01D03F08DFE042020700E2060700A2076
:10231000A0700120E07009202071102000F0FBFC6B
:1023200038B500216C462170092B01DC002032BD3C
:10233000140005006878A9780906090C0843694665
:1023400003F098FEA0716878A9780906090C084383
:10235000E071000A207268460078607204202070E4
:102360000E2060700720A0700120E0700520207111
:10237000142060710A2032BD10B5062B01DC00204C
:1023800010BD1400401C03F081FEA07104202070D9
:102390000E216170A0700120E07020712020E9E61C
:1023A0001CB50020694648800870092B1ADD14000E
:1023B00000A8801C03F08AFEA07168464088E07186
:1023C000000A2072684600786072042020700E2097
:1023D00060700720A0700120E07002202071202092
:1023E00060710A2016BD1CB50F2B01DA002016BD46
:1023F0001400684603F086FEA07108226946E01DBD
:1024000003F00EFE042020700E2060700C20A070DF
:102410000120E070032078E210B5062B01DC0020DB
:1024200010BD1400401C03F073FEA0710420207046
:102430000E216170A0700120E07005202071202025
:1024400098E638B584B0062B01DC002025E01400A6
:10245000C17802791206120C11434578827812066F
:10246000120C1543C27B0392827B02920200083257
:102470000192C279009283794279280003F074FEB8
:10248000A071042020700E216170A0700120E07006
:102490000620207120206071072005B030BD1CB5DA
:1024A0001400002069460870072B13DD684603F00E
:1024B000A7FEA07168460078E071042020700E200D
:1024C00060700520A0700120E0700720207120209E
:1024D0006071082016BD10B5062B01DC002010BD70
:1024E0001400811C407803F08FFEA071042020703E
:1024F0000E216170A0700120E07008202071202062
:1025000038E610B5062B01DC002010BD1400811C3C
:10251000407803F084FEA071042020700E216170C9
:10252000A0700120E07009202071202022E610B563
:10253000062B01DC002010BD1400407803F07AFE69
:10254000A071042020700E216170A0700120E07045
:102550000A20207120200DE61CB5062B01DC00208E
:1025600016BD1400027941790906090C0A438178E5
:10257000C3781B061B0C1943C379009383794078F9
:1025800003F0A6FFA071042020700E216170A070DE
:102590000120E0700B202071202001F05FFC10B5BD
:1025A000062B01DC002010BD14008178407803F078
:1025B00096FFA071042020700E216170A070012090
:1025C000E0700C2020712020D4E5F8B58AB0062BED
:1025D00001DC002050E0140001000A7E487E000665
:1025E000000C0243684682848A7DC87D0006000C88
:1025F00002430B7D487D0006000C03438D7CC87CA4
:102600000006000C05430E7C487C0006000C0643C7
:10261000887BCF7B3F063F0C38436F467884C87871
:102620000F793F063F0C38436F46388448788F78DF
:102630003F063F0C38436F46BF8C079706920593C1
:10264000049503966A46528C02924A7B0192CA1DF7
:1026500000928B794A796946098C03F00AFFE07091
:10266000042020700F216170A070012020710D20C6
:1026700060712020A07107200BB0F0BD10B5062BB3
:1026800001DC002010BD140003F010FFA071042035
:1026900020700E216170A0700120E0702171202057
:1026A00068E51CB51400002069460870072B13DD8F
:1026B000684603F0D0FFA07168460078E0710420FE
:1026C00020700E2060700520A0700120E0700F20A7
:1026D000207120206071082016BD10B51400062B53
:1026E00001DC002010BD03F0BDFFA07104202070AC
:1026F0000E216170A0700120E07010202071202058
:1027000038E510B5062B01DC002010BD1400811C3B
:10271000407803F0ABFFA071042020700E2161709F
:10272000A0700120E07011202071202022E510B55A
:10273000062B01DC002010BD1400811C407803F042
:10274000AEFFA071042020700E216170A0700120E6
:10275000E0701220207120200CE5F8B584B0062B23
:1027600001DC00203DE01400427B817B0906090C5E
:102770000A43C57A017B0906090C0D43467A817A22
:102780000906090C0E43C379017A0906090C0B43AB
:10279000417987793F063F0C39436F46F981C1780B
:1027A00007793F063F0C39436F46B98141788778F6
:1027B0003F063F0C39430800029201950096694696
:1027C000CA89898903F076FEE070042020700F2109
:1027D0006170A07001202071132060712020A07111
:1027E000072005B0F0BD10B5062B01DC002010BDA0
:1027F0001400401C03F07BFEA071042020700E2109
:102800006170A0700120E070142020712020B1E4DC
:102810003EB50E2B01DA00203EBD1400050068789D
:10282000A9780906090C0843694603F04AFFA0711C
:102830006878A9780906090C0843E071000A20723B
:10284000052269462000093003F0EAFB04202070CD
:102850000E2060700B20A0700120E0701520207108
:10286000202060710E203EBD10B5062B01DC00203B
:1028700010BD1400417882781206120C1143080032
:1028800003F024FFE070042020700F216170A0701D
:102890000120207116208CE11FB5172B01DA0020D2
:1028A00019E014006A4601001131401C03F01AFFC0
:1028B000A07110226946E01D03F0B2FB04202070D5
:1028C0000E2060701420A0700120E070172020718D
:1028D00020206071172004B010BD1CB50F2B01DA49
:1028E000002016BD1400684603F001FFA071082205
:1028F0006946E01D03F094FB042020700E206070F8
:102900000C20A0700120E070182020712020607140
:102910000F2016BD38B5062B01DC002032BD140097
:10292000C27A017B0906090C0A43457881780906B9
:10293000090C0D4303000D33C11C280003F0D3FD27
:10294000E070042020700F216170A07001202071C0
:1029500019206071202000F018FF38B5092B01DA2A
:10296000002032BD140005006878A9780906090C1A
:102970000843E91C03F0BFFEA0716878A978090636
:10298000090C0843E071000A2072042020700E2018
:1029900060700620A0700120E0701A201FE038B59A
:1029A000092B01DA002032BD140005006878A978EF
:1029B0000906090C084303F0A5FEA0716878A97800
:1029C0000906090C0843E071000A207204202070F7
:1029D0000E2060700620A0700120E0701B20207186
:1029E00020206071092032BD1CB50F2B01DA0020B8
:1029F00016BD1400684603F08CFEA07108226946DB
:102A0000E01D03F00DFB042020700E2060700C20F0
:102A1000A0700120E0701C2077E710B5062B01DCC8
:102A2000002010BD1400407803F078FEA07104204F
:102A300020700E216170A0700120E0701D202071B7
:102A40002020FFF797FB10B5062B01DC002010BDFE
:102A50001400C2788178407803F076FEA0710420DB
:102A600020700E216170A0700120E0701E20207186
:102A70002020FFF77FFB1CB514000020694608806A
:102A8000092B15DB684603F085FEA07168460088B7
:102A9000E071000A2072042020700E206070062071
:102AA000A0700120E0701F2020712020607109209B
:102AB00016BD38B5092B01DA002032BD140005001F
:102AC0006A79A8790006000C0243E97828790006A3
:102AD000000C01436878AB781B061B0C184303F00D
:102AE00036FDA0716878A9780906090C0843E071E1
:102AF000000A2072042020700E2060700620A07052
:102B00000120E07022206AE71CB5002069460860B9
:102B10000B2B1CDB140000A8801C03F01CFDA07113
:102B200068464088E071000A20726846008860723A
:102B3000000AA072042020700E2060700820A0708F
:102B40000120E07023202071202060710B2016BD31
:102B500010B5062B01DC002010BD1400C1780279ED
:102B60001206120C1143427883781B061B0C1A4381
:102B7000100003F0F4FCA071042020700E2161709D
:102B8000A0700120E070242020712020FFF7F2FACD
:102B900010B51400062B01DC002010BD03F003FD6E
:102BA000E070042020700F216170A070012020715E
:102BB000252060712020A071072010BD10B5062BC4
:102BC00001DC002010BD1400401C03F0F0FCE0709C
:102BD000042020700F216170A07001202071262038
:102BE000E7E710B5062B01DC002010BD1400030040
:102BF000183302000832811C407803F043FBA071B7
:102C0000042020700E216170A0700120E070272048
:102C100020712020FFF7AEFA10B5062B01DC002052
:102C200010BD1400811C407803F028FBA071042023
:102C300020700E216170A0700120E07028202071AA
:102C40002020FFF797FA10B51400062B01DC0020B6
:102C500010BD03F02FFBA071042020700E216170C5
:102C6000A0700120E070292020712020FFF782FA57
:102C70001CB51400002069460870072B13DD684658
:102C800003F014FBA07168460078E0710420207006
:102C90000E2060700520A0700120E0702A202071B5
:102CA00020206071082016BD1CB50D2B01DA002014
:102CB00016BD14006A46811C407803F0EFFAA0713B
:102CC00006226946E01D03F0ABF9042020700E20B7
:102CD00060700A20A0700120E0702B2019E01CB564
:102CE0000D2B01DA002016BD14006A46811C4078C5
:102CF00003F0D8FAA07106226946E01D03F090F9AE
:102D0000042020700E2060700A20A0700120E07066
:102D10002C202071202060710D2016BD10B5062BCF
:102D200001DC002010BD1400407803F0B3FAA0715C
:102D3000042020700E216170A0700120E0702D2011
:102D400020712020FFF716FA10B5062B01DC0020B9
:102D500010BD1400417882781206120C114308004D
:102D600003F094FAA071042020700E216170A0700D
:102D70000120E0702E2020712020FFF7FBF91CB508
:102D800000206946486008600F2B2ADB14006B4660
:102D900000AA921C01A901A8801C03F0E4FBA07109
:102DA0006846C088E071000A2072684680886072B8
:102DB000000AA07268464088E072000A20736846E4
:102DC00000886073000AA073042020700E206070D9
:102DD0000C20A0700120E0702F2020712020607155
:102DE0000F2016BD10B5062B01DC002010BD14000D
:102DF000027A811C407803F061FAA07104202070EF
:102E00000E216170A0700120E0704E202071202002
:102E1000FFF7B0F938B5002568460580092B01DABF
:102E2000002032BD140003F0C7FCA0716846008882
:102E3000E071000A2072042020700E2060700620CD
:102E4000A0700120E0702571FC20CAE518B58BB098
:102E5000002008AC2060694608856C46E061486245
:102E6000152B50DB140009A80690801C059007A8BC
:102E70000490401C039007A8801C029007A8C01C67
:102E800001900AA8009008AB08AA521C08A9891C46
:102E900008A8C01C03F09EFCA07108A8C01C007804
:102EA000E07108A8801C0078207208A8401C0078F7
:102EB000607208A80078A0726846008DE072000A6F
:102EC00020736846C07F60736846807FA073684641
:102ED000407FE0736846007F20746846C08C607451
:102EE000000AA0746846808CE074000A20750420F3
:102EF00020700E2060701220A0700120E070207100
:102F0000FC20607115200CB010BD10B5062B01DC43
:102F1000002010BD1400C21C8178407803F0ECFC46
:102F2000A071042020700E216170A0700120E0705B
:102F30000C202071FC20FFF71DF950B5C1B01E0018
:102F400000216B461970072E0FDB140001AA694699
:102F5000407803F0D5FCA071072E06DD68460078A6
:102F6000E07102460830864201D2002014E001A937
:102F70002000083003F054F8E079801C042121700F
:102F80000E216170C11CA1700121E1700D21217120
:102F9000FC216171801D80B241B050BD10B5062B7F
:102FA00001DC002010BD14008178407803F0ACFCF7
:102FB000A071042020700E216170A0700120E070CB
:102FC0000F202071FC20FFF7D5F81CB500200090E1
:102FD0000B2B15DB1400684603F09AFCA071E11D71
:102FE000009803F0A1FC042020700E2060700820DF
:102FF000A0700120E07014202071FC2060710B2073
:1030000016BD10B5062B01DC002010BD1400817820
:10301000407803F093FCA071042020700E216170B1
:10302000A0700120E07015202071FC20FFF7A2F8AD
:1030300010B51400062B01DC002010BD03F0EEFCDF
:10304000A071042020700E216170A0700120E0703A
:1030500016202071FC20FFF78DF810B586B01F2BCD
:1030600001DA00201DE0140002A9684603F0F8FC14
:10307000A07108226946E01D02F0D2FF102202A9C9
:1030800020000F3002F0CCFF042020700E20607072
:103090001C20A0700120E07017202071FC206071BE
:1030A0001F2006B010BD10B5062B01DC002010BD9E
:1030B0001400417882781206120C1143080003F0C4
:1030C000F9FCA071042020700E216170A070012015
:1030D000E07018202071FC20FFF74CF81CB5002090
:1030E000019000900F2B1BDB1400694601A803F030
:1030F000E9FCA071E11D019803F016FC21000B31E1
:10310000009803F011FC042020700E2060700C2049
:10311000A0700120E07019202071FC2060710F2048
:1031200016BD10B5062B01DC002010BD1400401C9C
:1031300003F0CCFC03F0D6FCA071042020700E211B
:103140006170A0700120E0701A202071FC20FFF750
:1031500011F810B51400062B01DC002010BD03F09F
:1031600031FBA071042020700E216170A07001203D
:10317000E07020202071FC20FEF7FCFF10B5062B2C
:1031800001DC002010BD1400037941790906090C07
:103190000B43C2788178407803F05DFBA071042076
:1031A00020700E216170A0700120E0702B20207132
:1031B000FC20FEF7DFFF10B51400062B01DC002019
:1031C00010BD03F09FFCA071042020700E216170DF
:1031D000A0700120E07081202071FC20FEF7CAFF62
:1031E000F0B587B0017A0400093465182C78091904
:1031F00041180A31062B01DC002032E014008B78E4
:10320000CA781206120C13430E784A781206120C72
:103210001643027941790906090C0A438178C77877
:103220003F063F0C3943069305966B1C04932B789D
:103230000393030009330293037A0193C379009344
:103240008379407803F068FCE070042020700F213F
:103250006170A0700120207182206071FC20A0713B
:10326000072007B0F0BDF0B587B0017A040009343B
:1032700065182C78091941180A31062B01DC002049
:1032800032E014008B78CA781206120C13430E78C1
:103290004A781206120C1643027941790906090C84
:1032A0000A438178C7783F063F0C39430693059659
:1032B0006B1C04932B780393030009330293037A66
:1032C0000193C37900938379407803F046FCA071A1
:1032D000042020700E216170A0700120E070832016
:1032E0002071FC206071072007B0F0BD1CB5062BD3
:1032F00001DC002016BD1400017B427B1206120C7B
:103300001143827AC37A1B061B0C1A430191009267
:10331000031DC2788178407803F040FCA07104203E
:1033200020700E216170A0700120E070842000F0F8
:1033300093FD10B5062B01DC002010BD1400407871
:1033400003F03EFCA071042020700E216170A0707B
:103350000120E07085202071FC20FEF70BFF30B5C6
:1033600085B00500062B01DC00201FE014000830AA
:1033700003F0ACFB297B04910390E8790290A879D3
:103380000190687900902B79EA78A978687803F041
:103390001FFCA071042020700E216170A07001201C
:1033A000E07086202071FC206071072005B030BDE0
:1033B00010B5062B01DC002010BD14004278817886
:1033C0000906090C0A43C178100003F04BFCA071F8
:1033D000042020700E216170A0700120E070872011
:1033E0002071FC20FEF7C6FE38B50500062B01DC77
:1033F000002032BD1400E81C03F068FB010068786F
:10340000AA781206120C104303F036FCA0710420B7
:1034100020700E216170A0700120E070882083E090
:1034200010B5062B01DC002010BD14004278817815
:103430000906090C0A43C178100003F029FCA071A9
:10344000042020700E216170A0700120E07089209E
:103450002071FC20FEF78EFE1FB500216C46A18175
:10346000A1600D2B01DA002027E0140002A90191D0
:10347000891C009103ABC2788178407803F012FC7C
:10348000A07168468089E071000A20726846408910
:103490006072000AA07268460089E072000A207318
:1034A000042020700E2060700A20A0700120E070BF
:1034B0008A202071FC2060710D2004B010BD10B571
:1034C000062B01DC002010BD14008178407803F049
:1034D00001FCA071042020700E216170A0700120F9
:1034E000E0708B202071FC20FEF744FE38B5062BDF
:1034F00001DC002032BD1400C17802791206120CE2
:103500001143457882781206120C1543837942796B
:10351000280003F0E9FBA071042020700E216170E7
:10352000A0700120E0708C202071FC2060710720C9
:1035300032BD10B5062B01DC002010BD140041780F
:1035400082781206120C1143080003F0D7FBE070DA
:10355000042020700F216170A070012020718D2047
:103560006071FC20FFF727FB10B5062B01DC002063
:1035700010BD1400811C407803F0C4FBA07104202E
:1035800020700E216170A0700120E0708E202071EB
:10359000FC20FEF7EFFD10B5062B01DC002010BD6E
:1035A0001400407803F0B6FBA071042020700E21B7
:1035B0006170A0700120E0708F202071FC20FEF768
:1035C000D9FD1CB500216C462180082B01DC0020B0
:1035D00016BD1400437881780906090C0B436A462E
:1035E00000A9491C180003F0A1FBA07168464078AF
:1035F000E071684600782072042020700E20607010
:103600000620A0700120E07090202071FC206071E5
:10361000092016BD10B5062B01DC002010BD1400DA
:10362000417882781206120C1143080003F084FBE3
:10363000A071042020700E216170A0700120E07044
:1036400091202071FC20FEF795FD10B51400062B8B
:1036500001DC002010BD03F07FFBA071042020706E
:103660000E216170A0700120E07092202071FC207A
:10367000FEF780FD10B5062B01DC002010BD140004
:10368000427881780906090C0A43C178100003F0DA
:1036900067FBE070042020700F216170A070012092
:1036A000207193206071FC20FFF785FA10B514009B
:1036B000062B01DC002010BD03F056FBA071042096
:1036C00020700E216170A0700120E07094202071A4
:1036D000FC20FEF74FFD10B5062B01DC002010BDCD
:1036E0001400417882781206120C1143080003F08E
:1036F0003FFBA071042020700E216170A07001209A
:10370000E07095202071FC20FEF734FD38B5062BC3
:1037100001DC002032BD1400C17802791206120CBF
:103720001143457882781206120C15438379427949
:10373000280002F058FEE070042020700F21617014
:10374000A0700120207196201DE038B5062B01DC09
:10375000002032BD1400C17802791206120C114308
:10376000457882781206120C154383794279280035
:1037700002F03DFEE070042020700F216170A07007
:103780000120207197206071FC20A071072032BDBC
:10379000F0B589B0062B01DC00204EE014000100DA
:1037A000CA7D087E0006000C0243684602844A7DFA
:1037B000887D0006000C0243CB7C087D0006000CCF
:1037C00003434D7C887C0006000C0543CE7B087CBF
:1037D0000006000C0643487B8F7B3F063F0C3843B6
:1037E0006F46F883C8780F793F063F0C38436F4621
:1037F000B88348788F783F063F0C38436F463F8C3C
:10380000069705920493039502966A46D28B01921D
:103810000A7B00928B1D4A796946898B02F0EBFD89
:10382000E070042020700F216170A07001202071D1
:1038300098206071FC20A071072009B0F0BDF8B598
:10384000C8B01600072B01DA00205FE00024050055
:103850000CE0E000011B09A840186918CA7C02703E
:1038600006221431401C02F0DBFB641CA87C84425D
:10387000EFDB3400297C687C0006000C01436846BD
:103880000184A97BE87B0006000C01432A7B687B4E
:103890000006000C0243AB7AE87A0006000C0343F2
:1038A0002E7A687A0006000C0643A879EF793F0665
:1038B0003F0C38436F46F883E8782F793F063F0C7A
:1038C00038436F46B8836878AF783F063F0C38437B
:1038D00009AF0697AF7C05976F463F8C049703911D
:1038E0000292019300966946CB8B6A79898B02F02C
:1038F00019FDE070042020700F216170A07001207C
:10390000207199206071FC20A071072049B0F0BDA2
:103910001CB5062B01DC002016BD1400027941798C
:103920000906090C0A438178C3781B061B0C19434E
:10393000037A0193C37900938379407802F00CFDF8
:10394000E070042020700F216170A07001202071B0
:103950009A206071FC20A071072016BD78B5C3B015
:103960001600072B01DA002035E0002405000CE0EA
:10397000E000011B04A8401869188A7A0270062228
:103980000B31401C02F04CFB641C687A8442EFDB74
:103990002A7968790006000C0243A978E8780006C5
:1039A000000C014304A80390687A0290287A0190E1
:1039B000E8790090AB79687802F0D8FCF0700420C8
:1039C00030700F217170B070012030719B207071C8
:1039D000FC20B071072044B070BDF0B589B0062B53
:1039E00001DC00204EE014000100CA7D087E0006C4
:1039F000000C0243684602844A7D887D0006000C64
:103A00000243CB7C087D0006000C03434D7C887C80
:103A10000006000C0543CE7B087C0006000C064324
:103A2000487B8F7B3F063F0C38436F46F883C8784E
:103A30000F793F063F0C38436F46B88348788F783C
:103A40003F063F0C38436F463F8C06970592049320
:103A5000039502966A46D28B01920A7B00928B1DD7
:103A60004A796946898B02F091FCE070042020704D
:103A70000F216170A070012020719C206071FC20DA
:103A8000A071072009B0F0BD10B5062B01DC0020A5
:103A900010BD1400407802F0A2FCA0710420207038
:103AA0000E216170A0700120E0709D202071FC202B
:103AB000FEF760FBF8B584B0062B01DC00203DE08A
:103AC0001400427B817B0906090C0A43C57A017BFD
:103AD0000906090C0D43467A817A0906090C0E4342
:103AE000C379017A0906090C0B43417987793F06AE
:103AF0003F0C39436F46F981C17807793F063F0C87
:103B000039436F46B981417887783F063F0C394386
:103B100008000292019500966946CA89898902F0D7
:103B200050FCE070042020700F216170A070012013
:103B300020719E206071FC20A071072005B0F0BDAF
:103B400010B5062B01DC002010BD140042788178EE
:103B50000906090C0A43C178100002F071FCE070FC
:103B6000042020700F216170A070012020719F201F
:103B70006071FC20FFF71FF81CB50D2B01DA002047
:103B800016BD14006946401C03F0F6F8A071062229
:103B90006946E01D02F044FA042020700E20607097
:103BA0000A20A0700120E070A0202071FC20FFF707
:103BB000B2F8F0B5C3B0060017000830F179451827
:103BC000072B01DA002035E000240CE0E000011BA7
:103BD000681804AA5318417819700622811C581CD1
:103BE00002F01EFA641C28788442EFDBF178307909
:103BF0000006000C01437078B2781206120C1043D4
:103C000004AA03922A780292320008320192F279D1
:103C10000092B379727903F0B3F8B8710420387068
:103C20000E217970B8700120F870A1203871FC2045
:103C30007871072043B0F0BD3EB5062B01DC0020B3
:103C40003EBD1400C17802791206120C114345786A
:103C500082781206120C1543027A0192C279009200
:103C600083794279280002F0E1FBE07004202070A3
:103C70000F216170A07001202071A2206071FC20D2
:103C8000A07107203EBDF8B5C0B01C0000256946F4
:103C90000D702700072F2CDB160001A9684603F0E2
:103CA0008FF8B071072F24DD68460078F071350079
:103CB0006A4654800226002406E00622491C093088
:103CC00002F0AEF9B61D641C68460078844212DA30
:103CD00068464088F11D88420BD3E000011B68183C
:103CE00001AA51180A780272761C32000C329742EF
:103CF000E3DA00200DE0042028700E206870F01C2C
:103D0000A8700120E870A3202871FC206871B61DFE
:103D1000B0B241B0F0BD10B5062B01DC002010BDE3
:103D20001400811C407803F055F8A0710420207025
:103D30000E216170A0700120E070A4202071FC2091
:103D4000FEF718FA10B5062B01DC002010BD140098
:103D5000427881780906090C0A43C178100002F004
:103D60001EFCA071042020700E216170A070012043
:103D7000E070A5202071FC20FEF7FCF910B5062BA1
:103D800001DC002010BD1400427881780906090C7E
:103D90000A43C178100002F0FEFBA07104202070DD
:103DA0000E216170A0700120E070A6202071FC201F
:103DB000FEF7E0F938B588B000216C46A180202BD1
:103DC00001DA00202CE01400050004A8009001ABEB
:103DD00002AA01A9491C687803F00CF8A071684692
:103DE0004079E071062202A92000083002F018F99B
:103DF0006878A07368460079E073102204A9200057
:103E0000103002F00DF9042020700E2060701D208B
:103E1000A0700120E070A7202071FC20607120209C
:103E200009B030BD1CB5062B01DC002016BD140006
:103E300001000B310191817A0091437AC21C817893
:103E4000407802F0E1FFA071042020700E21617023
:103E5000A0700120E070A8202071FC206071072074
:103E600016BDF8B5C0B01600811C4278D400A21A65
:103E700089180091072B01DA002025E0002401AF0A
:103E800005000CE0E000001BA91C095C3954062267
:103E90002918C91C7B1C181802F0C2F8641C687829
:103EA0008442EFDB00990A7801A902F0E3F9B071CE
:103EB000042030700E217170B0700120F070A920C4
:103EC0003071FC207071072041B0F0BD10B5062B99
:103ED00001DC002010BD1400811C407802F0A8FF16
:103EE000A071042020700E216170A0700120E0708C
:103EF000AA202071FC20FEF73DF910B51400062B16
:103F000001DC002010BD02F09DFFA0710420207094
:103F10000E216170A0700120E0702071FD20FEF77D
:103F200029F9F0B587B0040060780126012801D195
:103F3000032004E0022801D1112000E00120611CCF
:103F40000818029000206D46A880092B28DB6178B4
:103F50000225012901D1022002E0022900D110200E
:103F600017000200A11C03A802F05AF801A8009053
:103F700002984378027803A9607802F067FFB8716D
:103F800068468088F871000A3872042038700E2064
:103F900078700620B870FE703D71FD2078710920A0
:103FA00007B0F0BD30B587B000216D462981082BE0
:103FB00001DC002038E00400E079012801D1022171
:103FC00002E0022800D1102115000A00210008316A
:103FD00003A802F025F86279A0790006000C0243DC
:103FE000E17820790006000C01436078A3781B0675
:103FF0001B0C184302AB019303AB0093E37902F06F
:1040000040FFA87168460089E871000A2872042000
:1040100028700E2068700620A8700120E870032028
:104020002871FD206871092007B030BD78B58BB0CC
:104030000400E078012801D1052004E0022801D124
:10404000132000E00320611C0D1800206E46308311
:10405000092B39DBE178012901D1022002E0022994
:1040600000D1102016000200211D07A801F0D8FF82
:104070002B7868780006000C03436078A178090665
:10408000090C084306A90591A9790491697903915E
:1040900029790291E9780191A978009107AAE1783C
:1040A00002F006FFB0716846008BF071000A3072B2
:1040B000042030700E2171700621B1700121F17061
:1040C0003071FD20707109200CB070BDF8B58EB054
:1040D000040065791520012D01D1072604E0022D89
:1040E00001D1152600E00526671CBF19012D01D15D
:1040F000072002E0022D00D00520E11C7D78401948
:104100000D1800206E46B084092B40DB617901292F
:1041100001D1022002E0022900D110201600020085
:10412000A11D0AA801F07CFFE17820790006000CAF
:1041300001436078A2781206120C104309AA089273
:104140002A790792EA780692AA7805926A78049208
:104150002A780392BA1C02927A7801923A780092F5
:104160000AAB627902F0C3FEB0716846808CF071D0
:10417000000A3072042030700E2070700620B0707B
:104180000120F07005203071FD20707109200FB002
:10419000F0BD38B5062B01DC002032BD1400C1781B
:1041A00002791206120C1143457882781206120C1D
:1041B0001543C21D009283794279280002F0BFFEA8
:1041C000A071042020700E216170A0700120E070A9
:1041D00006202071FD20FFF7A9F910B5062B01DCA0
:1041E000002010BD1400C17802791206120C114390
:1041F000427883781B061B0C1A43100002F0A9FEBC
:10420000A071042020700E216170A0700120E07068
:1042100007202071FD20FDF7ADFF10B5062B01DC56
:10422000002010BD1400417882781206120C114350
:10423000080002F092FEA071042020700E2161702F
:10424000A0700120E07008202071FD20FDF792FF92
:1042500010B5062B01DC002010BD1400C1780279D6
:104260001206120C1143427883781B061B0C1A436A
:10427000100002F076FEA071042020700E21617003
:10428000A0700120E07009202071FD20FDF772FF71
:1042900010B5062B01DC002010BD1400401C02F0FC
:1042A00015FC02F063FEA071042020700E216170E5
:1042B000A0700120E0700A202071FD20FDF75AFF58
:1042C00010B5062B01DC002010BD14004178827867
:1042D0001206120C1143080002F058FEE070042090
:1042E00020700F216170A070012020710B2060717F
:1042F000FD20FEF760FC38B5062B01DC002032BD46
:104300001400427981790906090C0A43C1780379BE
:104310001B061B0C1943437885782D062D0C2B4367
:10432000180002F037FEE070042020700F21617049
:10433000A070012020710C206071FD20FFF725FA8C
:104340007CB5062B01DC002076BD14000500EB795E
:10435000287A0006000C03436A79A8790006000C4D
:104360000243E97828790006000C01436878AE78AA
:104370003606360C30432E000A3601966D7A0095CB
:1043800002F00CFEE070042020700F216170A0701C
:10439000012020710D206071FD20A071072076BDE5
:1043A00030B585B0072B01DA002032E00400E07957
:1043B000012801D1022004E0022801D1102000E0F0
:1043C0000020150002002100083101A801F028FE9C
:1043D0006279A0790006000C0243E178207900069A
:1043E000000C01436078A3781B061B0C184301AB3B
:1043F0000093E37902F0E0FDE870042028700F21BB
:104400006970A870012028710E206871FD20A871C4
:10441000072005B030BD30B585B0072B01DA00208C
:1044200031E00400E079012801D1022004E00228F3
:1044300001D1102000E00020150002002100083109
:1044400001A801F0EDFD6279A0790006000C02439D
:10445000E17820790006000C01436078A3781B0600
:104460001B0C184301AB0093E37902F0B9FDE8702F
:10447000042028700F216970A870012028716971CB
:10448000FD20A871072005B030BD38B5062B01DC32
:10449000002032BD1400427981790906090C0A43D3
:1044A000C17803791B061B0C1943457883781B06DA
:1044B0001B0C1D43030008330093C379280002F04E
:1044C000A3FDE070042020700F216170A070012016
:1044D000207110206071FD20FFF757F910B5062BF1
:1044E00001DC002010BD1400427881780906090C17
:1044F0000A43C178100002F091FDE07004202070A2
:104500000F216170A0700120207111206071FD20C9
:10451000FEF751FB10B5062B01DC002010BD140086
:10452000417882781206120C1143080002F07AFDDD
:10453000E070042020700F216170A07001202071B4
:1045400012206071FD20FEF736FB38B584B0062BD3
:1045500001DC002026E00500E878012801D10220D6
:1045600004E0022801D1102000E000201400020025
:10457000291D684601F054FD6878A9780906090CE0
:1045800008436A46E97802F051FDE070042020708B
:104590000F216170A0700120207113206071FD2037
:1045A000A071072005B030BD38B5062B01DC002016
:1045B00032BD1400427981790906090C0A43C17899
:1045C00003791B061B0C1943437885782D062D0CA7
:1045D0002B43180002F03AFDE070042020700F21F8
:1045E0006170A0700120207114206071FD20FFF720
:1045F000CCF838B5062B01DC002032BD140042791E
:1046000081790906090C0A43C17803791B061B0C42
:104610001943437885782D062D0C2B43180002F0A2
:1046200019FDE070042020700F216170A07001203E
:10463000207115206071FD20FFF7A7F830B585B017
:10464000072B01DA002032E00400E079012801D1D3
:10465000022004E0022801D1102000E00020150013
:1046600002002100083101A801F0DAFC6279A0798A
:104670000006000C0243E17820790006000C01439B
:104680006078A3781B061B0C184301AB0093E379F9
:1046900002F0E4FCE870042028700F216970A87013
:1046A0000120287116206871FD20A871072005B02F
:1046B00030BD38B5062B01DC002032BD1400427934
:1046C00081790906090C0A43C17803791B061B0C82
:1046D0001943437885782D062D0C2B43180002F0E2
:1046E000D1FCE070042020700F216170A0700120C7
:1046F000207117206071FD20FFF747F810B5062BD9
:1047000001DC002010BD1400C17802791206120CE1
:104710001143427883781B061B0C1A43100002F0E9
:10472000B5FCE070042020700F216170A0700120A2
:10473000207118206071FD20FEF73DFA30B585B07C
:10474000072B01DA002032E00400E079012801D1D2
:10475000022004E0022801D1102000E00020150012
:1047600002002100083101A801F05AFC6279A07909
:104770000006000C0243E17820790006000C01439A
:104780006078A3781B061B0C184301AB0093E379F8
:1047900002F080FCE870042028700F216970A87076
:1047A0000120287119206871FD20A871072005B02B
:1047B00030BD38B5062B01DC002032BD1400427933
:1047C00081790906090C0A43C17803791B061B0C81
:1047D0001943437885782D062D0C2B43180002F0E1
:1047E0006DFCE070042020700F216170A07001202A
:1047F00020711A206071FD20FEF7C7FF70B5C0B0B0
:10480000062B01DC002026E0002109E04B00C51842
:104810002C796E793606360C34436D46EC52491CC1
:10482000C3789942F2DB1400437881780906090CB9
:104830000B436A46C178180002F044FCE070042083
:1048400020700F216170A070012020711B20607109
:10485000FD20A071072040B070BD38B5062B01DCEB
:10486000002032BD1400C17802791206120C1143E7
:10487000457882781206120C1543831D4279280070
:1048800002F024FCE070042020700F216170A07001
:10489000012020711C206071FD20FEF776FF38B5E5
:1048A000062B01DC002032BD140042798179090613
:1048B000090C0A43C17803791B061B0C1943457880
:1048C00083781B061B0C1D43030008330093C37938
:1048D000280002F0FFFBE070042020700F216170BF
:1048E000A070012020711D206071FD20FEF74DFF9A
:1048F00038B5062B01DC002032BD140042798179E5
:104900000906090C0A43C17803791B061B0C1943DD
:10491000457883781B061B0C1D4303000833009366
:10492000C379280002F0E0FBE070042020700F2122
:104930006170A070012020711E206071FD20FEF7C3
:1049400024FF38B5062B01DC002032BD140042796B
:1049500081790906090C0A43C17803791B061B0CEF
:104960001943457883781B061B0C1D43030008334D
:104970000093C379280002F0C1FBE070042020708E
:104980000F216170A070012020711F206071FD2037
:10499000FEF7FBFE38B5062B01DC002032BD14000B
:1049A000427981790906090C0A43C17803791B060B
:1049B0001B0C1943437885782D062D0C2B431800CA
:1049C00002F0A6FBE070042020700F216170A0703F
:1049D0000120207120206071FD20FEF7D6FE38B541
:1049E000062B01DC002032BD1400C17802791206CA
:1049F000120C1143457882781206120C1543831D60
:104A00004279280002F088FBE070042020700F211A
:104A10006170A0700120207121206071FD20FEF7DF
:104A2000B4FE10B5062B01DC002010BD1400C178C7
:104A300002791206120C1143427883781B061B0C74
:104A40001A43100002F06CFBE070042020700F216C
:104A50006170A0700120207122206071FD20FEF79E
:104A6000AAF838B5062B01DC002032BD1400C1784D
:104A700002791206120C1143457882781206120C44
:104A80001543831D4279280002F04EFBA0710420DB
:104A900020700E216170A0700120E0702320207131
:104AA000FD20FEF743FD38B5062B01DC002032BDAA
:104AB0001400C17802791206120C114345788278ED
:104AC0001206120C1543831D4279280002F030FBB8
:104AD000A071042020700E216170A0700120E07090
:104AE00024202071FD20FEF721FD10B5062B01DCEE
:104AF000002010BD1400417882781206120C114378
:104B0000080002F019FBA071042020700E216170D2
:104B1000A0700120E07025202071FD20FDF72AFB08
:104B20003EB5062B01DC00203EBD1400C1780279A1
:104B30001206120C1143457882781206120C1543A6
:104B4000020008320192C2790092837942792800EA
:104B500002F0F6FAA071042020700E216170A0709E
:104B60000120E07026202071FD20607107203EBDED
:104B700010B5062B01DC002010BD140041788278AE
:104B80001206120C1143080002F0E8FAA07104208A
:104B900020700E216170A0700120E070272020712C
:104BA000FD20FDF7E7FA10B5062B01DC002010BD53
:104BB0001400C17802791206120C114343788278EE
:104BC0001206120C13434279180002F0CDFAA071BC
:104BD000042020700E216170A0700120E070282058
:104BE0002071FD20FDF7C6FA7CB5062B01DC002004
:104BF00076BD14000500EB79287A0006000C03430B
:104C00006A79A8790006000C0243E9782879000641
:104C1000000C01436878AE783606360C30432E001F
:104C20000A3601966D7A009502F0A2FAA07104206E
:104C300020700E216170A0700120E0702920207189
:104C4000FD206071072076BDD8B5C3B01E000021DD
:104C50006B469960062E2EDD140042798179090693
:104C6000090C0A43C17803791B061B0C19434378CE
:104C700087783F063F0C3B43180003AB019302AB20
:104C800000939B1C02F082FAA071092E13DB684688
:104C90004089E071000A20720B2E0CDB6846008907
:104CA0006072000AA072607AA17A0906090C0843B2
:104CB0000B30864201D200201DE0627AA07A000605
:104CC000000C024303A920000B3001F0A9F9607A1F
:104CD000A17A0906090C0843401D042121700E2108
:104CE0006170C11CA1700121E1702A212171FD2197
:104CF0006171801D80B244B0D0BDF8B584B0062B80
:104D000001DC002031E0140003009D7AD87A00060F
:104D1000000C05431E7A587A0006000C06435A79A7
:104D200098790006000C0243D97818790006000C27
:104D3000014358789F783F063F0C38431F000D37DA
:104D400003971F7B029701950096DB7902F048FAE2
:104D5000A071042020700E216170A0700120E0700D
:104D60002C202071FD206071072005B0F0BD10B52A
:104D7000062B01DC002010BD140042788178090662
:104D8000090C0A43C178100002F03BFAA07104201C
:104D900020700E216170A0700120E0702D20207124
:104DA000FD20FDF7E7F910B5062B01DC002010BD52
:104DB0001400C17802791206120C114343788278EC
:104DC0001206120C13434279180002F020FAA07167
:104DD000042020700E216170A0700120E0702E2050
:104DE0002071FD20FDF7C6F9F8B5062B01DC002087
:104DF000F2BD1400467A817A0906090C0E43C37984
:104E0000017A0906090C0B43427981790906090CDC
:104E10000A43C17805792D062D0C294345788778FA
:104E20003F063F0C3D432800009602F0F4F9E07085
:104E3000042020700F216170A0700120207181205A
:104E40006071FD20A0710720F2BDF8B586B0062B79
:104E500001DC002041E0140001004A7B887B000651
:104E6000000C0243CD7A087B0006000C05434E7A05
:104E7000887A0006000C0643CB79087A0006000CFD
:104E8000034348798F793F063F0C38436F46F882D9
:104E9000C8780F793F063F0C38436F46B882487890
:104EA0008F783F063F0C38430F7C0497C97B0391F2
:104EB0000292019500966946CA8A898A01F0C4FA6D
:104EC000A071042020700E216170A0700120E0709C
:104ED00082202071FD206071072007B0F0BD70B501
:104EE000062B01DC002070BD1400C379017A09068D
:104EF000090C0B43427981790906090C0A43C178F0
:104F000005792D062D0C2943457886783606360C12
:104F10003543280001F0C4FCA071042020700E214C
:104F20006170A0700120E07000202071FE2060718F
:104F3000072070BD38B5062B01DC002032BD1400FF
:104F4000427981790906090C0A43C17803791B0665
:104F50001B0C1943437885782D062D0C2B43180024
:104F600001F0A2FCA071042020700E216170A070DD
:104F70000120E0702071FE20FEF7D8FA10B5062B54
:104F800001DC002010BD1400C17802791206120C59
:104F90001143437882781206120C134342791800A9
:104FA00001F086FCA071042020700E216170A070B9
:104FB0000120E07002202071FE20FDF7DBF810B523
:104FC000062B01DC002010BD1400407801F074FCB9
:104FD000A071042020700E216170A0700120E0708B
:104FE00003202071FE20FDF7C5F81FB500200390B7
:104FF00002906C4620800190152B26DB140001AB3B
:105000006A4602A903A801F066FCA071E11D03989D
:1050100001F08AFC21000B31029801F085FC684602
:105020000088E073000A207421001131019801F01A
:105030007BFC042020700E2161701221A1700121DF
:10504000E1702071FE206071152004B010BD00B524
:10505000C1B06B46D8701971090A59719A71042050
:10506000187005215970987000220DE000B5C1B08C
:105070006B46D8701971090A59719A710420187019
:1050800008215970987001220721684602F09EFBA2
:1050900041B000BD18B5C1B06C46E0702171090A7D
:1050A0006171A271E3711B0A237244A800886072C7
:1050B000000AA072042020700C2060700820A070EC
:1050C00002220B21C9E000B5C1B06946C8700420B6
:1050D0000870102048700120887005220421D4E750
:1050E000F0B5C1B00B0000216C46E0700025060051
:1050F0000CE0A80022181F5A17713F0A57719F1C15
:10510000385A9071000AD071091D6D1CB542F0DB50
:105110000420207013206070491CA1700622CCE28C
:1051200000B5C1B06A46D0701171090A51710420EE
:105130001070302050700320907007220621A4E7E1
:1051400000B5C1B06946487104200870FF2048705E
:10515000032088700120C8700020087108220621F1
:1051600093E7F6B5C1B01E004E9D4F9F6C4660712F
:10517000A11D419801F0D8FB21000A31429801F0AD
:10518000D3FB21000E31300001F0CEFB21001231A3
:10519000489801F0C9FB21001631499801F0C4FB81
:1051A00021001A314A9801F0BFFB21001E314B98B3
:1051B00001F0BAFB210022314C9801F0B5FB21002F
:1051C00026314D9801F0B0FB2A2025542A003900E1
:1051D00020002B3000F024FF04202070FF2060709E
:1051E0002835A5700320E070002020710022D243F2
:1051F000E9B2C91C89B2684600F0D3FD18B5C1B048
:10520000030010006C466371A171E11D01F08CFB7D
:1052100004202070FF2161700821A170E07000203F
:1052200020710022D2430B2117E018B5C1B00B004A
:1052300011006C466071A3710622E01D00F0F0FEC3
:1052400004202070FF2060700A20A0700520E0700C
:10525000002020710022D2430D21684602F0B6FAE8
:1052600042B010BD30B5C1B00D0011006C46607188
:10527000A5712A00E01D00F0D3FE04202070FF205D
:1052800060702D1DA5700620E070002020710022A6
:1052900028E100B5C1B0042069460870FF224A70B9
:1052A00002228A700022CA70087109220521ECE6E8
:1052B00000B5C1B06B465871000A9871D9711A7265
:1052C00004201870FF215970062199700121D970AE
:1052D00018710A220921D8E600B5C1B069464871A3
:1052E000000A887104200870FF224A708870022228
:1052F000CA7008710B22C7E600B5C1B06946487193
:10530000000A887104200870FF224A708870032206
:10531000CA7008710C22B7E600B5C1B00420694616
:105320000870FF224A7002228A70C87008710D222C
:105330000521AAE600B5C1B0042069460870FF2225
:105340004A7002228A700522CA7008710E22052155
:105350009BE678B5C1B00E00150019006C4660716F
:10536000A671E5712000083000F05AFE042020707C
:10537000FF2161706D1DA5700722E27020710F2260
:105380006DE100B5C1B069464871000A887104201A
:105390000870FF224A7088700822CA7008711022B3
:1053A00072E618B5C1B0020008006C466271120ABC
:1053B000A271E11D01F0B8FA04202070FF21617094
:1053C0000821A1700921E170207136220B2144E7E8
:1053D00000B5C1B06A465071000A9071D1710420C5
:1053E0001070FF215170052191700A21D170107148
:1053F0003722082149E600B5C1B06A465071000A5B
:105400009071D171090A117204201070FF20507040
:10541000062090700020D070082010711122092100
:1054200033E630B5C1B00D0011006C466071000A62
:10543000A071E5712A002000083000F0F1FD042081
:105440002070FF2060706D1DA5700120E0700820A5
:105450002071122247E018B5C1B06C466071000A95
:10546000A071E1712272120A6272A3721B0AE372C6
:1054700044A800882073000A607345A80088A073C0
:10548000000AE07346A800882074000A60740420B3
:105490002070FF2060700F20A0700220E0700820B4
:1054A000207113221221D8E630B5C1B01D00449BF3
:1054B0006C466071000AA071E1712272120A627278
:1054C000A5722A00190020000B3000F0A9FD04206D
:1054D0002070FF2060700835A5700A20E070082059
:1054E00020710122D243E9B2C91C89B2684602F098
:1054F0006DF941B030BDF0B5C1B006000D001F0020
:10550000469B3A0002F04BFA002866D16C46667161
:10551000360AA671E5712D0A25726072A0723D00EF
:10552000469E57E0F52002E0F628FBDA2800E072FC
:10553000000A2073E27A207B0006000C0243607AA6
:10554000A17A0906090C0843311820000D3000F03B
:1055500067FD04202070FF206070E07A217B09063F
:10556000090C08430A30A0700120E0700C20207163
:10557000E07A217B0906090C08432D1A28040AD079
:10558000607AA17A0906090C0843802109020143C7
:105590006172090AA1721422A178C91C89B26846F5
:1055A00002F014F9607AA17A0906090C0843400454
:1055B000400C6072000AA072607AA17A0906090C98
:1055C0000843E17A227B1206120C114340186072E4
:1055D000000AA072A8B20028A6D141B0F0BD00B563
:1055E000C1B069464871000A887104200870FF2222
:1055F0004A7088700220C8700C200871152243E59B
:1056000000B5C1B06A465071000A9071D171090AA3
:10561000117204201070FF2050700620907003203B
:10562000D0700C201071162209212EE578B5C1B07A
:105630000E00150019006C466071000AA071E67139
:1056400025722000093000F0EBFC04202070FF21BF
:105650006170AD1DA570E0700C2020711722E9B2B9
:10566000C91C89B2684602F0B1F842B070BDF0B50D
:10567000C1B06C466071030AA371E17100250E0090
:10568000130000210CE0A80022181F5A17723F0ACD
:1056900057729F1C385A9072000AD072091D6D1CF7
:1056A000B542F0DB04202070FF206070491DA1701E
:1056B0000520E0700C2020711822C9B2C91C89B2E3
:1056C000684602F083F841B0F0BD78B5C1B00E0075
:1056D000150019006C466071000AA071E671257210
:1056E0002000093000F09CFC04202070FF20607036
:1056F000AD1DA5700620E0700C2020711922AEE7C8
:1057000030B5C1B00D0011006C466071000AA07187
:10571000E5712A002000083000F082FC042020708F
:10572000FF2060706D1DA5700720E0700C202071B7
:105730001A22D8E630B5C1B00D0011006C46607178
:10574000000AA071E5712A002000083000F068FC12
:1057500004202070FF2060706D1DA5700820E0708F
:105760000C2020711B22BEE630B5C1B00D00110027
:105770006C466071000AA071E5712A0020000830B3
:1057800000F04EFC04202070FF2060706D1DA5709D
:105790000920E0700C2020711C22A4E678B5C1B06D
:1057A0000E00150019006C466071000AA071E671C8
:1057B00025722000093000F033FC04202070FF2007
:1057C0006070AD1DA5700A20E0700C2020711D22B4
:1057D00045E730B5C1B01D00449B6C466071000ABE
:1057E000A071E171090A21726272120AA272E57255
:1057F0002A00190020000C3000F012FC0420207058
:10580000FF2060700935A5700C20E07020711F2208
:1058100069E600B5C1B069464871000A8871042084
:105820000870FF224A7088700D20C8700C20087123
:105830002022FFF729FC78B5C1B00E001500190031
:105840006C466071000AA071E671360A26726572B4
:1058500020000A3000F0E4FB04202070FF2060707C
:10586000ED1DA5700E20E0700C2020712122F6E6BF
:10587000F1B5C2B00F0015001E0042A8008802F06A
:1058800084F8002820D16C4642A800886071000A84
:10589000A071E7713F0A277265722A00310020006B
:1058A0000A3000F0BDFB04202070FF206070ED1D69
:1058B000A5700F20E0700C2020712222E9B2C91CD3
:1058C00089B2684601F082FF43B0F0BD00B5C1B0B7
:1058D0006A465071000A9071D17104201070FF2047
:1058E0005070052090701020D0700C201071232271
:1058F0000821FFF7CAFB18B5C1B06C466071000AF9
:10590000A071E1712272120A6272A37204202070E7
:10591000FF2060700820A0701120E0700C20207122
:1059200024220B2199E478B5C1B00E0015001900AE
:105930006C466071000AA071E671360A26726572C3
:1059400020000A3000F06CFB04202070FF20607003
:10595000ED1DA5701220E0700C20207125227EE63E
:1059600078B5C1B00E00150019006C466071000AD0
:10597000A071E671360A2672657220000A3000F0C6
:105980004FFB04202070FF206070ED1DA5701320D8
:10599000E0700C202071262261E600B5C1B06B4694
:1059A0005871000A9871D971090A19725A72120A4B
:1059B0009A7204201870FF205870082098701420E4
:1059C000D8700C20187127220B21FFF75EFB78B5E9
:1059D000C1B00B0000216C466071000AA071E37138
:1059E000002007E045006619555B35722D0A757277
:1059F000891C401C9842F5DB04202070FF20607059
:105A0000491DA1701520E0700C2020712822C9B218
:105A100026E630B5C1B005000C0001F0CAFF002831
:105A200014D1684645712D0A8571C471240A047227
:105A300004210170FF214170062181701621C1707F
:105A40000C2101712922092101F0C0FE41B030BDB5
:105A500000B5C1B069464871000A88710420087019
:105A6000FF224A7088701720C8700C2008712A2203
:105A7000FFF70AFB30B5C1B01D00449B6C46607156
:105A8000000AA071E171090A21726272120AA272FF
:105A9000E5722A00190020000C3000F0C1FA042041
:105AA0002070FF2060700935A5701820E0700C2070
:105AB00020712B2217E578B5C1B01E00469B4A9D88
:105AC0006C4620716171090AA171E2712672062289
:105AD00019002000093000F0A3FA47A80088E073FD
:105AE000000A207448A800886074000AA07449A8BD
:105AF0000088E074000A20756575042020703E203F
:105B000060701320A0700120E0702C221621A9E5FE
:105B1000F0B5C3B0002502AA107100276A461070C4
:105B2000019124E0001D461901981421794344187D
:105B3000207870706078B0700622A11CF01C00F014
:105B40006FFA207A7072227AE16830000A3000F031
:105B500067FA207A010009316D1801222100103105
:105B600033000A33181800F05BFA6D1C7F1C68467E
:105B70000078874202A8D5DB042202703E224270E0
:105B8000A91C81700222C2702D2207E118B5C1B094
:105B90006C4620716171090AA171E271120A2272C8
:105BA00063721B0AA37244A80088E072000A207383
:105BB000042020703E2060700A20A0700320E07056
:105BC0002E22FFF749FB18B5C1B00B0011006C463F
:105BD000207163711B0AA3710822E01D00F020FAF6
:105BE000042020703E2161700C21A170E0702F22F2
:105BF0000F21FFF732FB30B5C1B015006C462071A4
:105C0000000A60710822A01D00F00AFAA5732D0A8F
:105C1000E573042020703E2060700D20A0700520E8
:105C2000E0703022102161E418B5C1B06C462071DB
:105C3000000A6071A171090AE1712272120A62728E
:105C4000A3721B0AE37244A800882073000A6073E1
:105C5000042020703E2060700B20A0700720E070B0
:105C600031220E21FFF7F9FA18B5C1B06C46207148
:105C70004022601D00F0D4F9042020703E206070A6
:105C80004220A0700820E07032224521FFF7E5FA9B
:105C900018B5C1B06C4620712022601D00F0C0F91B
:105CA000042020703E2060702220A0700920E07047
:105CB00033222521FFF7D1FAF3B5C1B04899499FA6
:105CC0004A9E4E9D6C46207142A800886071000A71
:105CD000A071E271237206222000093000F0A0F9C1
:105CE0000622390020000F3000F09AF90622310018
:105CF0002000153000F094F94BA80088E076000AE7
:105D000020774CA800886077000AA0774DA800880B
:105D1000E077000A641CE077641E212025540420EB
:105D200020703E2060701F20A0700A20E070342296
:105D30002221684635E0F0B5C3B0002602AA1071F2
:105D400000276A46107001911AE0380102A90D1867
:105D500001990C18207868716078A8710622A11C3E
:105D6000E81D00F05DF9207A6873062221000931F0
:105D700028000E3000F054F9E07B287510367F1CA7
:105D8000684600788742E0DB02A8042202703E22C7
:105D90004270B11C81700B22C2703522C9B2C91C7D
:105DA00089B201F013FD43B0F0BD10B501F066FEFD
:105DB00010BD0C0802170D010102090901010602BC
:105DC00009FFFFFFFFFF0909FFFFFFFFF8B50646C8
:105DD000002000906946304601F06EFE050002D0BA
:105DE000452D26D026E014481B2100688901411862
:105DF000C97E0227009C09071CD502218B020830AE
:105E0000C0180C2240690B4601F0B0FE010011D011
:105E10008E8022788A716278A3781B0213430B81EB
:105E2000E3782279384612021A434A8101F0FCFED7
:105E300000E000252846F8BD8453002070B5084ACC
:105E4000002103461B2412680846A40156185D5C15
:105E50003619491CC9B2B5760829F7D370BD0000C0
:105E60008453002010B501F0F3FE002010BD10B5E2
:105E70001446080003D0012801D0122004E0114686
:105E800001F05AFF002801D07F21217010BD70471A
:105E900030B50B24039D0470054800688030408CA9
:105EA000088014703020188013202880002030BD16
:105EB000845300200F21274A13681B090B404370AD
:105EC000136819408170D26842600121224B9A42C6
:105ED00009D1224A1268224B9A4201D1042200E0E1
:105EE0000222027000E001704278002A00D1417065
:105EF0001C490988491C89008160704710B51A4CFB
:105F00002100282201F03EFF0020206010BD70B566
:105F100000230024144AA5005351641C0A2CFAD310
:105F2000116050600223C026F60199004418083C15
:105F3000E0252D066519B54201D2246854505B1C3A
:105F40000A2BF2D3BFF34F8F084809490860BFF30B
:105F50004F8FFEE71C00904041A000021C00001083
:105F600044A000F214001040340000200400FA05A0
:105F70000CED00E07FB504000D0016006846FFF749
:105F800099FF6846017821704178297080783070D7
:105F90007FBDF8B504464022002100F047F80120FB
:105FA000C04606460120C04605460120C0460746B9
:105FB000202020708020A070C02060710420A0727A
:105FC0002820A0732220E073F72060763C206843ED
:105FD000C3210843A0760C206843F3210843E076F0
:105FE0007E20054325770120C046C0214843203448
:105FF00060700120C04601463846062250430143E6
:106000003046F82250430143A1700120C046C10030
:10601000F200901B0143E170B000E0710020F8BD78
:1060200010B5040001F0AEFE200010BD10B5040054
:10603000080011000200200001F0B2FE200010BD97
:1060400080B501F0D7FE02BD10B50446082200213C
:10605000FFF7ECFF60202071002010BD10B504494F
:10606000062209687831FFF7DBFF002010BD000031
:106070008453002010B50C460146204601F0CAFEAC
:10608000002801D07E21217010BD704770B50546F3
:10609000002440782646022801D0042803D101209C
:1060A000C04600280DD0084837210068490103196F
:1060B0002A5D5B18641CE4B29A70082CF7D3304652
:1060C00070BD1126FBE700008453002010B50C467C
:1060D000FB2101800120C04601280ED01B201F306B
:1060E00040094100411806484078401A0921C01E65
:1060F00001F0C3FE2070002010BDFB20EFE7000080
:106100006052002010B501F00FFF002010BD704755
:1061100070B50446002501F027FF064601F048FF50
:10612000082E01D1082801D00C2070BD0C4E0D4B5B
:10613000306806222146C018FFF772FF204600F0A3
:10614000C5FC01213268000289025618401CF06526
:10615000E01C00F0BBFC0002000A3066284670BD5F
:1061600084530020EF060000F0B585B06F460A9E0C
:106170000D9D0C9C388079803A71052A02D312203B
:1061800005B0F0BDFB713E723846062209300B990E
:10619000FFF746FF6846447185710079012804D0F5
:1061A000042802D0032DEAD807E06946097A0129BC
:1061B00001D00029E3D1012810D0684601880F4A98
:1061C000084620389042DAD2684640882028D6D344
:1061D000012292039042D2D88142D0D86846C07939
:1061E000002805D0012803D0022801D00328C6D1F9
:1061F0006007C4D0684601F0FFFEC1E7E13F000040
:1062000010B501F09FFF10BD10B50A461F2801D937
:10621000122010BD0146104601F0A0FF10BD10B5C0
:106220000A461F2801D9122010BD0146104601F070
:10623000D1FF10BD1CB504460D4801682320400164
:1062400008184079012801D0032807D1684601F0D9
:10625000EFFF684601F0FAFF002803D0012C03D0BD
:10626000002C01D012201CBD204601F0FBFF1CBDFC
:106270008453002080B502F003F902BD80B502F01E
:106280003CF902BD80B502F044F902BD80B502F0D0
:1062900061F902BD80B502F061F902BD80B502F07E
:1062A00067F902BD80B502F077F902BD80B502F052
:1062B00087F902BD80B502F08AF902BD80B502F00F
:1062C0008AF902BD80B502F099F901BD80B502F0EE
:1062D000C7F902BD80B502F099FC02BD1FB56C463E
:1062E000A48C0394089C02946C46A48B01946C4685
:1062F000248B009402F016FD1FBD1FB508AC247856
:1063000002946C46247F0194069C009402F0FEFDEA
:1063100004B010BD80B502F0B7FE02BD80B502F03A
:10632000D5FE02BD18B587B0109C06940FAC24783A
:1063300005946C46248F04946C46A48E03946C469A
:10634000248E02946C46A48D01946C46248D009496
:1063500002F000FF08B010BD1CB56C46247D01940E
:106360006C46247C009402F00FFF16BD1FB5099CFB
:10637000039408AC247802946C46247F01946C4604
:10638000247E009402F015FF04B010BD18B587B04C
:1063900010AC248806946C46A48F05946C46248F18
:1063A00004946C46A48E03946C46248E02946C462E
:1063B000A48D01940AAC2478009402F013FF08B075
:1063C00010BD1FB56C46248C02946C46A48B0194BE
:1063D0006C46248B009402F032FF04B010BD80B5EF
:1063E00002F03EFF02BD80B502F03EFF02BD80B567
:1063F00002F03EFF02BD18B587B010AC24880694A9
:106400006C46A48F05946C46248F04946C46A48E2D
:1064100003946C46248E02946C46A48D01940AACBD
:106420002478009402F028FF08B010BD1CB56C461B
:10643000247D01946C46247C009402F047FF16BD35
:1064400080B502F051FF02BD18B585B00CAC2478C0
:1064500004940BAC247803946C46248D02946C460F
:10646000A48C01946C46248C009402F042FF06B088
:1064700010BD10B588B011AC2488079410AC2488E6
:1064800006946C46A48F05946C46248F04946C4645
:10649000A48E03946C46248E02940BAC2478019451
:1064A0000A9C009402F03AFF08B010BD80B502F0DB
:1064B0007EFF02BD1FB56C46248C02946C46A48BF3
:1064C00001946C46248B009402F075FF04B010BD5B
:1064D0001CB56C46247C009402F07EFF16BD80B58E
:1064E00002F0A6FF02BD80B502F0C8FF02BD80B574
:1064F00002F0D2FF02BD80B502F0D2FF01BD80B52F
:1065000002F0F2FF02BD80B503F066F801BD80B570
:1065100003F060F901BD80B503F0BCF902BD80B5A0
:1065200003F0C0F901BD80B503F0DEF901BD80B50F
:1065300003F0E6F902BD80B503F026FA01BD80B58F
:1065400003F049FA02BD80B503F06EFA01BD80B5D3
:1065500003F073FA02BD80B503F07FFA02BD80B587
:1065600003F07FFA02BD80B503F089FA02BD80B561
:1065700003F08AFA01BD80B503F0B0FA02BD80B520
:1065800003F040FB02BD80B503F076FB02BD80B591
:1065900003F09CFB02BD80B503F0F2FB02BD80B5A9
:1065A00003F0F6FB02BD80B503F0FCFB02BD80B535
:1065B00003F016FC02BD80B503F050FC01BD80B5B0
:1065C00003F0FEFC01BD80B503F016FD02BD80B5F1
:1065D00003F02EFD01BD80B503F042FD02BD80B584
:1065E00003F06CFD01BD80B503F0A2FD01BD80B5D7
:1065F00003F0BCFD01BD80B503F0F2FD02BD80B526
:1066000003F008FE01BD80B503F01AFE01BD80B5A0
:1066100003F02EFE01BD80B503F042FE02BD80B541
:1066200003F060FE01BD80B503F090FE01BD80B5B2
:1066300003F0A6FE01BD80B503F0F0FE02BD80B5FB
:1066400003F022FF01BD80B503F04AFF02BD80B513
:1066500003F06CFF02BD10B504461F20C046207039
:10666000002010BD10B503F0A5FF10BD7CB5044699
:106670000D46012803D0002C01D012207CBD084615
:1066800000F024FA000220430090E81C00F01EFAFB
:106690000002000A0190684603F0A0FF7CBD1CB513
:1066A000012803D0002801D012201CBD6A461070BA
:1066B00000A806220130FFF7B3FC684603F0C6FFCE
:1066C0001CBD10B503F0EEFF10BD7047044910B5B6
:1066D000884201D9022010BD03F0FEFF10BD00006A
:1066E000FF0E000010B50023FFF718FE10BD10B517
:1066F00004F04AF810BD0A4610B50146002004F027
:1067000051F810BD10B501460022412004F04AF8AE
:1067100010BD10B504F094F8002010BD10B5272866
:1067200001D9122010BD04F097F80028FAD10549CC
:1067300001230A681B21890151180A7E1A430A762F
:1067400010BD000084530020F8B515460E460746DC
:1067500025240120C046012800D1FF24272F03D87B
:10676000A64201D8072D01D91220F8BD2A4631468C
:10677000384604F013F90028F7D1054901230A68C7
:106780001B21890151180A7E1A430A76F8BD0000C0
:106790008453002010B504F03BFA002808D10549C5
:1067A0000A681B21890151180A7E520852000A7694
:1067B00010BD000084530020014901800020704773
:1067C0003109000030483149086001203049087023
:1067D00000207047FFB583B00F9F109E119D129847
:1067E000FFF7EAFF002468468460446001A8009037
:1067F00002AB9B1C01AA921C02A9C01CFFF748FB1C
:1068000003200399087002200499087005990C7000
:1068100038A020490978405C069908700C980480DB
:106820000F206946098901400D9A117069468988CF
:106830000906090F0E9A1170694689880840387058
:1068400068468088C00B307028881F21014329804A
:10685000002007B0F0BD7CB51E000F4D00242C6059
:10686000FFF772FF01000ED107E0A0B2296888424D
:1068700003D00A4804F0FAF92C682868B042F4D32F
:106880006846FFF787FF76BD010101013000002057
:10689000E04800203853002024000020FD7F000045
:1068A00080B500F0CFFF02BD80B500F0FEFF02BD55
:1068B00080B501F023F802BD80B5002802D0012880
:1068C00004D006E001F02EF8002002BD01F031F8FE
:1068D000FAE7122002BDF8B505000C0017001E00F3
:1068E00001F071F828603100380001F06FF8206085
:1068F0000020F2BD0102010010B504F0C9F910BD7D
:1069000010B504F053FA10BD10B504F089FA10BDAB
:1069100004490922096812028918096B0989016072
:10692000002070478453002084460870000A487095
:10693000000A8870000AC87060467047F0B5354C90
:106940000646206887B02030807F0D46002802D0A0
:106950000C2007B0F0BD282E01D2022D01D9122043
:10696000F7E704F07FFA0028F2D12B4872000121EA
:10697000101889030004012D02D0022D02D002E07C
:10698000401800E0401A01014302C90E5B0FC90024
:10699000401C1943030B9C46030106092068093378
:1069A0002030047F9E46A5010623447F1D43E3005B
:1069B0002B43312564002C43012585770325684648
:1069C0000570042747708270C370022202711C2375
:1069D000437173238371C5712423037244723F236F
:1069E0008372C2722323037345738273C3730722B6
:1069F00002740522427428228274C17463460375AE
:106A00004675734683750021C17504F03DFA002078
:106A10009FE7000084530020620900000EB50F4874
:106A200001682031887F002816D000208877042252
:106A300069460A7023224A7088700E22CA70087153
:106A400002224A712B228A710822CA710872684692
:106A500004F01AFA00200EBD0C200EBD8453002055
:106A6000F0B5124B09241A6824021219166B104D46
:106A700000221C68A034247B944213D95824544328
:106A8000A719BC786407640F845403D07C8957002D
:106A9000CC5301E054000D53521CD2B2082AE8D363
:106AA0000020F0BD00248454F4E70000845300204B
:106AB000FFFF0000024909686831C8800020704764
:106AC0008453002010B504F0F5F910BDC378827826
:106AD000417800781B021A4309021204084310434C
:106AE0007047704701B50548054B006804226946A8
:106AF000C018FFF795FA002008BD0000845300205D
:106B00000407000010B504F001FA040002D10120CE
:106B100004F012FA204610BDFFB587B0109D159EF7
:106B2000169C01930295009407A807C81F46334698
:106B300004F05AFA00280ED11398149903AA069467
:106B400043C21198129901900095029107A807C8B5
:106B50003B4604F077FA0BB0F0BDFFB587B0109D4F
:106B6000159E169C01930295009407A807C81F461E
:106B7000334604F039FA00280ED11398149903AA69
:106B8000069443C21198129901900095029107A8AA
:106B900007C83B4604F080FA0BB0F0BD7CB5069DFB
:106BA000079C012903D0042901D042207CBD012A81
:106BB00001D0002AF9D10095019404F089FA7CBD36
:106BC00010B5042801D9422010BD04F099FA10BD77
:106BD000FFB583B003980C9D1E4614460F4600284F
:106BE00004D0012802D0422007B0F0BD002F01D010
:106BF000012FF8D1E81F0A28F5D20D981028F2D8F5
:106C0000A842F0D30E98002801D00128EBD11449F6
:106C10000F988842E7D81098002801D00128E2D1C7
:106C20000120C046012804D02046304305D0112061
:106C3000DAE7022CD7D8012ED5D86846039901701F
:106C400047708472C67285700D99C1700E99017279
:106C50000F98019068461099417204F06FFAC3E7EB
:106C60003F420F0010B5002903D0012901D0422076
:106C700010BD04F077FA10BD044A10B5914201D955
:106C8000422010BD04F08CFA10BD00003F420F00FE
:106C900010B5012903D0022901D0422010BD04F013
:106CA00097FA10BD7CB5069D079C002805D0860785
:106CB00005D1460703D4060701D442207CBD002934
:106CC00003D0012901D00229F7D10095019404F0E5
:106CD00095FA7CBD10B5022803D0032801D04220CC
:106CE00010BD04F089FB10BD10B5002B03D0032BA1
:106CF00001D0422010BD04F095FB10BD10B504F08A
:106D0000A9FB10BD10B51F2801D9422010BD04F009
:106D1000EFFB10BD10B5044601F04AF9082803D076
:106D2000204604F009F910BD462010BD10B504F04E
:106D300046FC002010BD704701B506486946026850
:106D40003720400109781018817269464978C1726C
:106D5000002008BD8453002010B504F053FC10BD82
:106D600010B504F095FC10BD10B504F095FC10BDF5
:106D700010B504F0A1FC10BD10B504F0B2FC10BDBC
:106D8000F0B585B08C46864600250A9F0C9E0B996F
:106D90000D982C46022A04D0032A02D0422005B0C6
:106DA000F0BD002F00D00C46002E00D005466146F5
:106DB0007046009702960395019404F0ABFCEEE751
:106DC00008B500226B461A700346FA22684604F0A2
:106DD000C5FC08BD00B595B00B46012804D00028BD
:106DE00002D0422015B000BD01466A46184604F0A4
:106DF000FFFCF7E738B5049C022801D9422038BDD2
:106E0000009404F057FD38BD7CB5079D069C012811
:106E100007D8022B05D8102C03D8012903D000294C
:106E200001D042207CBD0195009404F065FD7CBD3D
:106E300010B5002803D0012801D0422010BD04F075
:106E4000AFFD10BD10B504F0E5FD10BD70B586B006
:106E500014461D460A4603466946881C0A9E04F0ED
:106E6000A3FE002804D1012C04D0022C02D0422021
:106E700006B070BD23462A466946304604F0A8FE97
:106E8000F6E7F0B587B0064614460D4602A8811E07
:106E90000D9F0C9A04F088FE002807D168460680F2
:106EA000458084806946384604F042FF07B0F0BD53
:106EB000F0B587B01C460B46054600A9023101A873
:106EC0000C9F0D9E04F070FE00280ED168460580D0
:106ED00084828775C6750E9901760F99417610994F
:106EE00081766946119804F0CFFF07B0F0BDF0B588
:106EF0008BB09C460C4605461346624601A806A97F
:106F0000139F179E04F050FE002816D11298079088
:106F100068460580448008A8077014994170159947
:106F200081701699C1700671684611998182109915
:106F3000C1826946189805F045F90BB0F0BD38B527
:106F40006D46049C2A806B8023466A4605F0EAF968
:106F500038BD10B505F01AFA10BD10B505F05EFA8F
:106F600010BD10B505F0B0FA10BD704701B5054869
:106F7000054B006804226946C018FFF751F800204D
:106F800008BD000084530020EC06000010B505F099
:106F9000CFFA10BD10B505F0F3FA10BDFEB56C4682
:106FA000099E089D20806180A280E3802581314672
:106FB000684605F0EEFAFEBD70B586B00D46144683
:106FC00006466946881C0A9A04F0EEFD002805D1A1
:106FD0006B4622462946304605F0EAFA06B070BDF7
:106FE00070B586B00D46144606466946881C0A9A56
:106FF00004F0DAFD002805D16B46224629463046CA
:1070000005F0EEFA06B070BD38B56D46049C2A80D6
:107010006B8023466A4605F0FBFA38BD10B505F0D3
:1070200003FB10BD10B505F009FB10BD10B586B00F
:107030000B4604466946881C04F0B6FD002803D1BF
:107040006946204605F030FB06B010BD10B505F0CE
:107050007BFB10BD10B505F0ADFB10BD70B586B063
:107060000D46144606466946881C0A9A04F09CFDA3
:10707000002805D16B4622462946304605F0D0FB54
:1070800006B070BD10B505F021FC10BD10B505F0BF
:107090004DFC10BD70B586B00D46144606466946D7
:1070A000881C0A9A04F080FD002805D16B46224610
:1070B0002946304605F03EFC06B070BD10B505F01F
:1070C00079FC10BD10B505F079FC10BD10B505F0C8
:1070D000A1FC10BD38B56D46049C2A806B80234608
:1070E0006A4605F09EFC38BD38B56D46049C2A8082
:1070F0006B8023466A4605F09DFC38BD38B56D4669
:10710000049C2A806B8023466A4605F0FFFC38BD4C
:1071100010B505F003FD10BD10B505F003FD10BD61
:1071200010B505F006FD10BD10B505F007FD10BD4A
:1071300010B505F03BFD10BD10B505F06FFD10BD9D
:10714000FEB56C46099E089D2080618022716371A6
:10715000E5806846029605F083FDFEBD10B500226D
:10716000114605F059FE10BD10B505F0C9FE10BD61
:10717000FEB56C46099E089D20806180A280E38058
:1071800025813146684605F0DFFEFEBDFEB50E46A0
:10719000144600216A461F46118000280CD001AA1F
:1071A000694605F055FF050018D16846008838800B
:1071B00068460088864201D342250FE0801B80B2DA
:1071C000A04200D2044668460480089804800198D2
:1071D0008119684602880998FEF722FF2846FEBDFD
:1071E000F0B585B084460AA8F0C868468581C68196
:1071F00003A8019002970094604605F075FF05B062
:10720000F0BD10B50A46012105F006FE10BD10B50F
:1072100006F032F910BD3EB56C46069D20806180B7
:10722000A280E3802581684606F06CF93EBD704778
:10723000BFF34F8F9248B5490860BFF34F8FFEE709
:1072400080B500BF03A1B24A1278920089588847DE
:1072500002BD0000B5720410E572041061720410E2
:1072600010B5AC4C607E002805D120002C3006F013
:10727000CBF9002808D120001C3006F0C5F9002801
:1072800002D1207E002801D0002010BD102006F081
:1072900061FB01280CD18024A401200006F000FC31
:1072A000012805D19C4801680C430460032010BDEF
:1072B000012010BD10B5974C607E002805D120003C
:1072C0002C3006F0A1F9002808D120001C3006F06F
:1072D0009BF9002802D1207E002801D0002010BD9B
:1072E000012010BD10B58B4CA07E022801D00128D2
:1072F00005D120002C3006F087F900281CD1207E13
:10730000002819D1A07E042801D0072801D101202E
:1073100010BD022801D001280ED120002C3006F02B
:1073200073F9002808D10220A0767B480168C20CBE
:107330000A430260032010BD002010BDF8B5040010
:107340000E0017001D00022221006846FEF768FEAD
:1073500000213800714ACB00D7186A4612883B8852
:107360009A4211D0491CA329F4D3042101700F22A1
:10737000427081700121C170017102226946401D75
:10738000FEF74EFE0720F2BD02002B00B11E89B2AF
:10739000A01C7C68A04769460988614A9142F2D1E5
:1073A00001215C4A1176F2BD38B5BC48BC49416048
:1073B000BC490A681202120AC0231B0613430B6061
:1073C0000025856007210160002006F0F1FB06F032
:1073D00007FC00BF13A04E49097889004058804738
:1073E0004C4C042322004832190220002C3006F0B5
:1073F00003F90423C5482218FF210A3120001C305C
:1074000006F0FAF8257004206070FF20A0700A20B2
:10741000E070022020716571A21D0020002106F09D
:10742000DDFE31BDF9DB0410E1DC0410E1DD041008
:107430000A0038494B7E002B00D0704780B50123ED
:107440004B760100B24806F09FFD01BD38B504003F
:107450000D003048417E002910D101214176802065
:1074600006F078FA0028FAD006F07DFD402006F0FC
:107470001DFB2A002100A64806F086FD31BD000054
:107480000400FA0530B5FFB084B0002568460580D9
:10749000BF4803F0EBFB00BF22A01D49097889001B
:1074A000405880471B4C20001C3006F0ADF80028E7
:1074B00018D0207E002815D142AA694620001C3031
:1074C00006F05AF9FF2301AA6846018842A8FFF78F
:1074D00035FF0122010001A800F05CF920001C30FA
:1074E00006F09DF8207801280CD1621C0D212000A7
:1074F0002C3006F0C5F8002804D12570A21D00210B
:1075000006F06CFE7FB004B030BD00000CED00E072
:1075100038530020C84800201000004000B7051074
:10752000030C0000A97604103175041015770410BF
:10753000FEB5002669460E80BD4C20002C3006F0BA
:1075400063F8002804D1207E002801D0FFF770FEE8
:107550000525A07E032854D1E67620001C3006F0D5
:1075600053F8218C0A1A22751004000E6075E68209
:10757000A28792B2AF49B04806F006FD042221006E
:107580001431AE4806F000FDA576802006F08BFA97
:10759000A07E052834D1A848406880B2A18F081A7F
:1075A000042874DC606C002804D1012006F000FB84
:1075B000206C6064206C616C401A0328E8D30020C2
:1075C00006F0F6FA66640820A076802006F06EFACF
:1075D000E07E002812D0207C616BE28D8854606BC5
:1075E000401CE18D627C4254606B801CE18DA27C6A
:1075F0004254606BC01CE18DE27C42540120A076B5
:10760000F7BD20002C3005F0FFFF0028C0D0A07E81
:10761000012801D00228BBD101AA694620002C30E4
:1076200006F0BEF80028B3D10420A076400206F090
:1076300037FA002800D1A57668460588019F012009
:10764000E0763878207478786074B878A074F87828
:10765000E07420001C3005F0D7FF218C081AA087A9
:107660003870A08F000A7870BD70280AF87006F094
:107670002AFEFF2006F01CFEA28F6E496E4806F01F
:1076800083FC2A1D39006D4806F07EFC7DE707204B
:10769000A076802006F00AFAF7BD000010E000E0B6
:1076A000FF23F40020ED00E01CB5002069460880AF
:1076B0005F4C20002C3005F0A7FF00280ED1207E63
:1076C00000280BD0802006F045F90028FAD00820C9
:1076D00006F040F90128FAD0FFF7AAFD20002C306F
:1076E00005F092FF002810D0607E00280DD101AA7D
:1076F000694620002C3006F053F8002805D1684672
:1077000001880198001DFFF793FE13BD4C05000092
:107710001C0000A01CB5002069460880444C2000D5
:107720002C3005F071FF00280ED1207E00280BD0F0
:10773000802006F00FF90028FAD0082006F00AF998
:107740000128FAD0FFF774FD20002C3005F05CFF13
:10775000002816D0607E002813D18020800106F01A
:107760009FF901280DD101AA694620002C3006F0AE
:1077700017F8002805D1684601880198001DFFF719
:1077800065FE13BD80B502002D4805F079FF01BDEF
:10779000FD7F000070B51400254D020028002C303C
:1077A00005F06EFF002810D0402C0ED201262E705E
:1077B000A81D06F0B7FDAA1DA6403400F517044326
:1077C0000D432000290006F009FD70BD80B5FFF7CC
:1077D000E1FF01BD10B5164CE17E002912D0217CDD
:1077E000626BE38DD154616BE28D8918627C4A70C3
:1077F000616BE28D8918A27C8A70616BE28D8918B9
:10780000E27CCA7005280FDD0A4A11780A2905D1E1
:10781000411F89B2501D06F09BFD05E00B2903D1E5
:1078200020002C3005F0C8FF0120A07610BD00001C
:10783000C848002030500020580000A06C0000A074
:10784000E4480020F0B5C3B08A4C2578002D01D063
:107850000C2028E01E0017006A4611826946488203
:10786000F82105A800F0ACFAE560059505A803909D
:10787000F0B2029000200190009601233A00684681
:10788000018A408AFFF7ACFC01000CD16846408AAF
:1078900060806846008AA080E78026810120E06041
:1078A00020706570002043B0F0BDF0B5BFB0714CE2
:1078B0002378002B01D00C201EE016000F00694633
:1078C0000880F82101A800F07BFA0025E560019509
:1078D00001ABF2B2390068460088FFF725FC0100D1
:1078E0000AD1684600886080E78026810120E06038
:1078F00002202070657000203FB0F0BD10B55E4BD7
:107900001C78002C01D00C2010BD002A01D10122CE
:1079100000E002221A705880998000209860D86098
:10792000186110BD53480178002901D10C2070471F
:1079300005E051480178002901D10C207047002151
:1079400001700020704730B54B4C658885421AD1D4
:10795000A088884217D1187859780902014398788D
:1079600005040D43D87800062843E168884202D018
:107970002169491C2161401CE060A068401CA06096
:10798000A282012030BD002030BD10B53A4C2478D1
:10799000012C02D1FFF7D7FF10BD002010BD10B59C
:1079A000354C2478022C02D1FFF7CDFF10BD00200A
:1079B00010BD30480178002903D00021417001201A
:1079C0007047002070472B48C06870472A4A00283B
:1079D00001D0938A0380002901D010690860906863
:1079E000704770B5C2B0234D6878002840D1287820
:1079F0000126012823D10024F82104A800F0E0F991
:107A0000E86801E00498401C04902000641CC0B2A7
:107A1000082812DA288904A90391C1B20291002131
:107A2000019100900123EA88A9886888FFF7D8FBB4
:107A30000028E7D0642800D16E70049817E002286F
:107A400016D1F821684600F0BBF9E86801E000981B
:107A5000401C00906B462A89D2B2E9886888FFF7FB
:107A600063FB0028F3D0642800D16E700098E860B2
:107A700042B070BDBC5200209452002070B50D463B
:107A80000B490024884204D8032106F049FD082848
:107A900001D302240AE00749012209682031C97D87
:107AA0008240114202D1294606F07EFD204670BD7B
:107AB000FF0E000084530020F3B52A4E41223168A6
:107AC00052018C1881B0032106F02AFD054606F00C
:107AD000BDFD002805D0CF21095D082D04D302206B
:107AE000FEBDCE21095DF8E7082901D20C20FEBDBC
:107AF00009213368090259180A6B58216943511842
:107B000072B64E790A69B607D7073E4307D0D00749
:107B100024D002982C31016062B60020FEBD803373
:107B20005A8C4E6B104B336012044B6B30325A60E0
:107B30004A7901231A434A710A6902231A430A61E6
:107B40007D214902002805D0C034A181E57362B6C9
:107B50004520FEBDC0346181A573F8E762B63A20C6
:107B6000FEBD00008453002003060C0BFFB5044645
:107B700000262C4F83B09C460D46080616D572B6DB
:107B800001AB6A466146204606F07AFD00280BD01C
:107B900068468188009882789208920082700180FD
:107BA0006180012662B615E062B621E001AB6A464B
:107BB0006146204606F064FD002819D0680609D405
:107BC00068468188009882789208920082700180CD
:107BD000618001260098AA00817840238907890FD7
:107BE0001A40114381700599C170002E0ED115E025
:107BF0000020009072B6A8060FD401203968C00298
:107C00000818016808221143016062B672B638682C
:107C1000F7224030C1791140C17162B6009807B0B7
:107C2000F0BD0000845300200A46400608D5D078F5
:107C30003A280AD2111D054B80001B5810461847E0
:107C4000907880088000801C88707047740D061042
:107C5000F8B50626324840250560324800270780DF
:107C6000A9050920C00641602F4A916001680160A2
:107C70002E48032104694269601E08433946401CAE
:107C8000FEF7D4F90120C046C1B2204606F02EFD11
:107C9000C046C04606F05CFEFEF745FC24491720AE
:107CA0008881244C2068421901465770FA20886266
:107CB000282010700120C046012805D1206810221C
:107CC00040300178114301700120C046012805D1E0
:107CD00020688022403001781143017020680146FD
:107CE00040300278324302700020C043086606F03C
:107CF00083FE06F03BFF06F06BFF20680121203079
:107D0000017707214177012003F08AF806F0A2FFEE
:107D100006F0FCFF02488038056002210160F8BDD2
:107D200080E100E0C00000204000004840520020F8
:107D3000000010488453002010B504480C46807A97
:107D400007F046F82070002010BD00000001002060
:107D500070B4103A03D378C9103A78C0FBD25307F5
:107D600001D318C918C001D508C908C0D20704D367
:107D70000B880380891C801C002A01D50B780370B6
:107D800070BC70478B0701D18307E1D0124205D048
:107D90000B78491C0370401C521EF9D17047704784
:107DA0001206130A1A43130C1A4300BF094205D0E6
:107DB000830707D00270401C491EF9D170470000AC
:107DC0000022FFE71300103906D330B41400150069
:107DD00010393CC0FCD230BC490700D30CC000D5E0
:107DE00004C0890002D30280801C002900D50270E3
:107DF00070477047A446521E08D303780C78401C85
:107E0000491CA342F7D0181B644670470020644603
:107E10007047704710B50A4604460321104606F025
:107E20007FFB08280CD20749092209681202891829
:107E3000096B582250430818807B2070002010BD29
:107E4000122010BD84530020F446002804D4494277
:107E500000F013F8404260474042002905D45FD04B
:107E600000F00BF8404249426047494200F005F8F3
:107E70004942604703460B43E6D40022030A8B4283
:107E80000BD203098B4219D243088B422ED2411ADE
:107E900000D20146524110467047FF2209023FD0EE
:107EA00012068B4205D3121209028B4201D3121221
:107EB000090203098B4219D300E0090AC3098B4266
:107EC00001D3CB01C01A524183098B4201D38B01EC
:107ED000C01A524143098B4201D34B01C01A52418F
:107EE00003098B4201D30B01C01A5241C3088B42D4
:107EF00001D3CB00C01A524183088B4201D38B00BF
:107F0000C01A524143088B4201D34B00C01A524160
:107F1000884200D3401A5241CFD2014610467047E2
:107F200008B5C046C04608BD70B504460121002012
:107F30006054491CC9B20829FAD30120C046450142
:107F400009350120C046800105430120C046C0011B
:107F5000054325700120C046012803D1E07808219F
:107F60000843E07070BD704770B51048092402687E
:107F70007B20000111180B7D240208200021151917
:107F8000A032127B0EE058244C432E6BA41C345DAF
:107F90006407640F032C02D1DC0700D008465B089D
:107FA000491CC9B28A42EED870BD0000845300203B
:107FB00070B51048092402687B2000011018037D69
:107FC0002402082000211419A032157B0EE0DA07E4
:107FD00009D058224A43266B921CB25C5207520FBA
:107FE000012A00D108465B08491CC9B28D42EED86F
:107FF00070BD000084530020F8B5514F0646412162
:10800000386849014518FFF7D3FF082812D1FFF758
:10801000ABFF082803D02320405D02280AD038682F
:1080200034462030807D093400070028307903DB96
:10803000032803D00C20F8BD012804D0204600F00E
:1080400005F9002806D0327AF0790023214606F09F
:10805000D1FE0BE00023F0791A46194606F0CAFE5D
:1080600011223968FF209201891888752C468034C6
:10807000216A288F48803079012821D03088000279
:10808000A06070880002E0600020C0432082307948
:1080900002281CD003281CD004281CD001281AD088
:1080A000052800D3FF20287628462030B179417377
:1080B00071790346817327200022CE070FD011E08B
:1080C00003204002A060E060FF205630DEE706207B
:1080D000E9E70220E7E701200021B171E3E7490861
:1080E000401CC0B2521CD2B2022AE6D3052902D1EA
:1080F000801CC0B20321272801D9C01EC0B2666A05
:10810000228D3280A66AA28D3280E66AA28C3280ED
:10811000666AAA8E7280A66AAA8E7280AA8EE56AA4
:108120006A80D873032902D0012904D005E0A16A2E
:10813000A08C088001E0606A00800020F8BD00008B
:108140008453002010B504460348807A06F040FEB0
:108150002070002010BD00000001002070B51C4AF6
:10816000412312685B01D418E36B0833A3621F2913
:1081700001D9302070BD0022656BE66BAD5CB55453
:10818000521CD2B2082AF7D3002205E00578521C0F
:108190001D70401CD2B25B1C8A42F7D32C200155C3
:1081A000E06B891D4170FFF703FF217E01290CD090
:1081B00008280AD2616BE06BE16360638034616A16
:1081C0004880A16A4880E16A4880002070BD0000B4
:1081D00084530020F0B5154A412312685B01D3187F
:1081E0001A6C154608321F2901D93020F0BD002431
:1081F0009E6B1F6C365D3E55641CE4B2082CF7D3B1
:10820000002405E00678641C1670401CE4B2521C81
:108210008C42F7D3186C891D4170986B9D6318646C
:108220008033186A45800020F0BD00008453002090
:1082300010B50449044B09680622C918FDF7F0FE81
:1082400010BD000084530020EF060000024600200D
:108250000146535C002B00D00120491CC9B20629FD
:10826000F7D37047F0B5814D044641212868490194
:1082700085B040180190FFF79BFE09263602002CBE
:108280007ED008280DD3422007460390784800246A
:10829000029006F0ADFE0090082004900098082897
:1082A00002D30C2005B0F0BD06F0BCFE06F0FEFEC9
:1082B000009870498001421828688019C16C0198A3
:1082C0008030036BC0315980016B09800021C943A4
:1082D00001820021456ACB1DEF54856AEF54C56ABF
:1082E000EF54056AEF54066B039DF554039B3F0A58
:1082F0001B0A0393466A029D0B1DF554866AF554CA
:10830000C66AF554066AF554066BF554029B491C7F
:108310001B0AC9B202930329DCD300991123490730
:10832000090E456A0B43AB72856AAB72C56AAB72C4
:10833000019B1D7E0223022D0BD1456AAE7A1E439E
:10834000AE72856AAE7A1E43AE72C56AAE7A1E43BD
:10835000AE72466A0127F772866AF772C66AF772CA
:108360001943036B9972036A9972036B0321D972E3
:10837000016ACF7200210B46535455186B7100E00F
:108380004BE0491CC9B20529F6D3802595720199A5
:108390002031CE7BD672868C1682068E5682364E61
:1083A0009661364ED6613E462027BE54D375019A5B
:1083B000127E002A04D0012A04D0062A12D110E02D
:1083C00018240FE00322836828245202934209D123
:1083D000C368934206D100220492FF2256320282E1
:1083E00000E01024497B002904D0012904D002298F
:1083F00006D103E0C02102E02C4301E040210C4300
:108400000499C2680902806853184218E108C9003B
:10841000491C009806F0B0FE44E772B608280AD25C
:108420002A6891190B6B58214143891C5C5C6407D5
:10843000640F012C01D062B616E0F024A45C002C7D
:1084400004D01126FF24B6019219947500225A54C3
:108450001F212A68890151180B7901228240934318
:108460000B7162B606F0E0FE00201BE7845300208B
:108470008100B000CC000020D6BE898E5555550035
:10848000F0B5064600208DB00D46002A03D000F05E
:108490009EF8002806D1002E03D0002D04D0002421
:1084A00028E000200DB0F0BD4220FBE7E000001BFB
:1084B000295C471908467F1C009106F0F3FE00284E
:1084C000F0D103AA3946009806F0F4FE002804D043
:1084D0001022002103A8FDF7A9FD07A806F0FEFE63
:1084E00007AB03AA3946009800F013F80028D9D149
:1084F000641CE4B2B442D9D3D4E71CB56A46107008
:1085000000A806220130FDF78BFD684606F0FAFE52
:108510001CBD70B58AB01D461646002804D001283F
:1085200002D012200AB070BD6A4610706C46062256
:10853000601CFDF775FD10223146E01DFDF770FD52
:1085400005A8102229460330FDF76AFD684606F0AB
:108550001FFFE7E710B506F0CDFF10BD10B50028EE
:1085600003D0012801D0122010BD06F0D5FF10BDA8
:108570001CB514466A46107000A806220130FDF7AB
:108580004FFD22466946002006F0D6FFFF2801D0A5
:1085900000201CBD02201CBD1CB514466A4610708C
:1085A00000A806220130FDF73BFD22466946012066
:1085B00006F0C2FFFF2801D000201CBD02201CBD18
:1085C00010B504460F20C0462070002010BD10B525
:1085D00006F0E0FF10BD17B583B06A4610706C4618
:1085E0000622601CFDF71CFD012205A9E01DFDF718
:1085F00017FD684607F024F806B010BDF3B589B042
:108600000D4607F05BF88002800A012189050843C6
:1086100000226B461024114601E0032A04D2D70041
:108620000646FE401E7000E01970521C5B1C641E62
:108630002406240EF1D1002304AA6946099800F00B
:1086400045FD03226946281DFDF7EAFC032204A923
:10865000681CFDF7E5FC012028700BB0F0BD7047E9
:10866000F0B5A1B001780E91456881681091C76896
:1086700001691C914069002417940490FF26169408
:1086800015941E940894A81CFEF720FA297800027D
:108690004906C90F08433860681DFEF717FA000243
:1086A000000A786028460830FEF710FA29780002A0
:1086B000C9090843019028460B30FEF707FA00026B
:1086C000000A0290786800021A90800F012802D1F7
:1086D0003878012800D00020129002980002810F03
:1086E000012903D10199C9B2012900D000211491B7
:1086F0001A99890F02D13978012900D000211991E6
:10870000800F03D10198C0B201281FD00021287822
:10871000FF4B0507186807900246FF321B321F9275
:10872000FC4A2D0F82181D92002211920F920C927A
:1087300001221892E0301B92027C0B92002A00D09A
:10874000012213920B9A012A02D005E00121DEE7F3
:10875000407C002800D101240E98002811D0012867
:108760004ED0032D02D0052D00D001240498007EA8
:1087700003286ED002286DD001286CD004286AD05E
:108780009BE0032D06D0052D04D0042D04D0012D2F
:1087900005D009E0012407E001200F9004E01398C0
:1087A000002801D10120119010981590801C17907D
:1087B000109808301690049820300079032810D0C3
:1087C00001280ED000220C92049200280BD0012820
:1087D00009D0002018900B98012806D0012D09D04F
:1087E0009FE00122EFE70120F4E7012D74D1002979
:1087F00000D001241498002801D101201190BFE07D
:10880000002D02D0012D00D00124049820300079E1
:1088100001280ED000220C92199A002A01D00028BB
:1088200009D001220492149A002A06D0012D09D001
:108830001CE00122EFE70022F4E7012D16D10B9A8C
:10884000012A09D00B9A002A0ED0149A002A0BD0C4
:108850000CE02BE028E02BE02323079A5B01D218E1
:108860001279012A00D1012401221192129A002AC0
:1088700002D00B9A002A06D1002801D101220F92C2
:10888000129A002A07D00B9A012A45D1002805D157
:1088900001201E9002E00B9801283DD1012D77D1D7
:1088A00000296DD001246BE0052D06D1012404E0E0
:1088B0001299002908D0002A06D000210F91032D1B
:1088C00004D0052D09D00FE00121F7E704992031EC
:1088D000497BC90706D107E023E004992031497B91
:1088E000890701D501210C910C9904910121119165
:1088F0001099891C179110990831169110991591AA
:10890000012A07D1012801D0042803D1199900298F
:1089100000D00124052D28D0012D31D00E9801283A
:1089200036D01798FEF7D2F8159900020978490653
:10893000C90F084309901798C01CFEF7C7F800023A
:10894000000A0A900E98012822D01698FEF7BEF869
:10895000159900020978C90908430D901698C01CA2
:10896000FEF7B4F80002000A1EE012990029D8D0E0
:10897000012801D00428D4D101200890D1E707E0D4
:108980000121079889024018C16D0991006ED8E74E
:108990001C98016940690A02C303DB0F00041A43F3
:1089A000000A090E08430D921090002C72D1129803
:1089B000002865D00B98002813D0139800285FD0AA
:1089C0001A99386806F084FE514B01469D221868BA
:1089D000D2008218FF2905D0FE2926D0C8008018B1
:1089E000C67981E0052D02D10E99022904D0F22129
:1089F000095CFF2913D018E00121384606F090FEEB
:108A000041087F2903D0C1001D980818E8E708999C
:108A10000498084301D0012466E0002464E0112199
:108A200089014118497EFF2903D00E9901291DD0E3
:108A300013E0FF30072239460130FDF7F1FA3449DF
:108A400000200968F222505408464030C279EF23D2
:108A50001A40C2710E98012801D0049C44E02320E2
:108A60004001081805E001200F903DE02321490155
:108A70004018C0790228CED20C980028F3D0CAE75B
:108A80001998002802D00B98012804D013980028C8
:108A90000CD104E02FE00020049C1B9024E0232153
:108AA000079849014018007A00281DD01A993868A3
:108AB00006F0BEFEFF2817D0C1001D980818C67921
:108AC00037201F9970434018017D002900D00121F3
:108AD0002030807D002803D00020002902D003E050
:108AE0000120FAE7002896D1094801681120800189
:108AF000081806754675139800284ED0FF2E10D022
:108B0000089800280DD0024801681120800103E078
:108B1000845300206C0400000818807DB04200D00F
:108B200001241E9800280BD0FF2E09D0364801687A
:108B3000112080010818807EB04201D0012445E058
:108B4000002C43D11498002829D0012D27D12E4B79
:108B5000019A1868C11DF9310D69AA4205D1029A1E
:108B60004969120209028A4219D01125AD01411941
:108B7000497E189CFF2910D1FF30072201A9093036
:108B8000FDF74EFA2048EF23016808464030C279CD
:108B90001A40C271002049194876002C16D11B9842
:108BA000002813D00C98FF2E07D000280ED03720B5
:108BB00046431F983018807806E0002806D0786871
:108BC0000102386806F05CFE0028B7D00F98002834
:108BD00007D00D983968884210D11098796888427A
:108BE0000CD1002C0AD1119800280AD001990998BB
:108BF000884203D102990A98884202D0012021B00C
:108C0000F0BD0020FBE7000084530020F8B506F01B
:108C100063FE434C074621680A468031886FCB6F5C
:108C2000381A1818C8674B6F000B984236D30020CB
:108C3000E032C8675074107C00282BD00025232612
:108C400076010BE03721694308180146FF31FF30F8
:108C500040313030FFF7D2FC6D1CEDB22068811935
:108C6000097AA942EED800250BE03721694308189C
:108C70000146FF31FF3047311F30FFF7BFFC6D1C4D
:108C8000EDB220688119097AA942EED82168012045
:108C90008919887121680120E03148742068F82121
:108CA0000F5072B601464031CA7910231A43CA7177
:108CB00062B60146E0310A7C002A24D0897CFF2577
:108CC000002906D1FF30013006F02AFD2068E0308F
:108CD000857411262168B6018819407EFF2813D0BB
:108CE000372250434018FF30FF3100223030093125
:108CF00006F0FCFD002808D0216800208919C875FD
:108D00002068801945760020F8BD2068012182196D
:108D1000FF30D175013081680161C1684161EFE7C1
:108D200084530020FFB595B000267548029603963F
:108D3000008817460D4672494007C00D0C31401897
:108D4000C0890121490740184088FF2344186D4815
:108D500011210068890141184A7D372151430918C2
:108D60001B335B5C0793E3799B09012B04D12378C8
:108D70005B0601D5012300E00023069323235B015A
:108D8000C0184079012817D9FF2A15D01598002856
:108D900004D0607B8009012805D00DE00622FF3158
:108DA00002A8413106E02078000605D521460622BA
:108DB000083102A8FDF734F90698002836D03C2F78
:108DC00000D105AD4F480168112080010818407D91
:108DD000FF2826D00622A11C6846FDF721F9079836
:108DE0004949C600474806220068301841182846FD
:108DF000FDF716F943480168232072184001101846
:108E0000007B3722801CA871112080010818407D4A
:108E100050434018FF300622A11C4830FDF700F9EE
:108E200006E00622A11C2846FDF7FAF800960196F6
:108E30003448A4210068095CC90701D0002600E07D
:108E400010260C97189F15990991696808950902D1
:108E5000090E0A9102A90791694606911E9913917C
:108E60001F991291209908230903090C1191219946
:108E70008036C9B20F91F10603D50B22BF210E40F7
:108E800009E03721490141184A78920635D5C97859
:108E9000890732D509223107890E08180121C90234
:108EA000401840693146FEF761FE040025D00C9859
:108EB0002071E780099820720A9860722046251D6B
:108EC00006220A300899FDF7ABF8284606220C3036
:108ED0000799FDF7A5F82846062212300699FDF7F6
:108EE0009FF813982883129868831198A8830F9885
:108EF000A87721463046FEF797FE19B0F0BD000076
:108F0000C0000020845300206D040000FFB55B49C1
:108F1000964609685A4A8DB08D18372252018A1830
:108F2000944652781127169B04920C46BF010020EC
:108F3000179E9206A034CF190833002A3DDA624604
:108F4000D278520739D50D9A012A36D97246012AAC
:108F500033D10E9A002A30D03A7D0120FF2A19D051
:108F60006F4649C7372042435018FF300130807E9A
:108F7000C000411843480B182079C00701D00020D9
:108F800000E01020A12108437146109A10E0012052
:108F900011B0F0BD694649C12079C00701D0002059
:108FA00000E01020A121169B0843012271469B1C62
:108FB00006F0B6FC00285CD1E9E7F022525C012AF9
:108FC000E6D13F7DFF2FE3D02079C00701D00024F8
:108FD00000E01024A12004437046079010980990E7
:108FE000372047437818FF300130807E0593C0005A
:108FF000421824480B9610180890189802900322E3
:1090000013301043401C8308E00603D50722BF201D
:10901000044007E004988006B9D560468078800750
:10902000B5D505222007800E40180121C90240183D
:1090300040692146FEF79AFD06001AD00798307164
:10904000099870713546371D18350622B01D0899EC
:10905000FCF7E6FF02983872FD602846029A0599EF
:10906000FCF7DEFF0B98387431462046FEF7DCFD36
:109070008DE7296A0020087089E7000084530020EA
:10908000040900006D0400007CB50446E1200D4693
:10909000800006F02FFA0BA103C9009001916846E9
:1090A000FCF7F4FF012006F081FC002801D04720E6
:1090B0007CBD2078202108432070092028700020E2
:1090C0007CBD00001F0200000000000030B50D460E
:1090D0001D49144609684122520189180922D20605
:1090E000096D126991B0891A184A09021288090A91
:1090F00012070AD5002B08D1154AFF39914204D333
:109100002246294606F056FC1AE00146102204A821
:10911000FCF786FF1022294608A8FCF781FF04A867
:10912000009008A801900CA80290002069460873DE
:10913000684606F07FFC10220CA92046FCF770FF61
:10914000002011B030BD000084530020C00000207A
:1091500002FF7F00F0B58DB09C4613ABF0CB08AB9F
:109160001A7301AAF0C2129A00920A460146634697
:1091700005A806F099FC002804D105AA18991798AB
:1091800006F0C4FC0DB0F0BD30B585B000931346B9
:109190000A46089D099C01460195029403A806F021
:1091A000E1FC002803D1214603A806F001FD05B02B
:1091B00030BDF0B585B00A9E009313460B9C0A465D
:1091C0000C9F01460D9D0196029403A806F0CAFC6F
:1091D000002805D1234603AA2946384606F016FD85
:1091E00005B0F0BDFFB58DB0144618AAECCA0497BF
:1091F0006F466CC70A46014605A8179B06F054FC4B
:1092000000280AD108A84471012C08D0002C06D0EF
:10921000022C04D0032C02D0422011B0F0BD09A8CA
:10922000062202301099FCF7FBFE08A91698087375
:10923000C0B20328F0D805A806F01EFDEDE7F0B592
:1092400089B00EAF70CF04AF03976F4670C706F0BA
:1092500045FD002802D104A806F06CFD09B0F0BD60
:1092600010B506F077FD10BD10B506F0B9FD10BDC4
:1092700010B506F0D9FD10BDFFB58DB0144618AA83
:10928000ECCA04976F466CC70A46014605A8179BAF
:1092900006F00AFC00280AD108A84471012C08D065
:1092A000002C06D0022C04D0032C02D0422011B096
:1092B000F0BD09A8062202301099FCF7B1FE08A9FA
:1092C0001698087305A806F0D3FDF0E77CB56C4648
:1092D000079E069D2080618022716371A571E671F1
:1092E000684606F0EDFD7CBD10B5012206F022FEB9
:1092F00010BDF0B585B06C460A9F0B9E0E9D208078
:109300006180A280E380278166810C98A0812A4633
:1093100068460D9906F0B4FE05B0F0BDF0B58DB00D
:1093200084461D46164616A88DC8139C049701AFA7
:109330000DC7159800900A46614605A8149B06F0D3
:10934000B3FB002806D108A80671002E04D0012E18
:1093500002D012200DB0F0BD4571012D05D0002DB9
:1093600003D0022D01D0032DF3D109A8062202302B
:109370001299FCF755FE08A80473E0B2012806D044
:10938000002C10D0022C0ED0032CE2D103E0012CD3
:1093900001D0032C07D16846FEF74AFF6846FEF766
:1093A00055FF0028D5D005A806F0BAFED2E710B5C3
:1093B00006F0EEFF10BDF0B589B00EAF70CF04AF70
:1093C00003976F4670C706F089FC002802D104A8F5
:1093D00006F0FAFF09B0F0BD7CB5069C002803D06A
:1093E000012801D012207CBD104D0E1FAE42F9D2D3
:1093F000161FAE42F6D2002C05D0012C03D0022C51
:1094000001D0032CEED1012B05D0002B03D0022B71
:1094100001D0032BE6D16D46287129806A80AB719B
:109420006C71684607F076F87CBD0000FD3F0000D7
:109430007CB5054610480C460168232040010818F9
:109440004079012801D0032807D16846FEF7F0FED5
:109450006846FEF7FBFE002803D0012D03D0002D47
:1094600001D012207CBD012C01D0002CF9D1214665
:10947000284607F079F87CBD845300201FB5054AC3
:10948000904202D9022004B010BD02AA07F08AF966
:10949000F9E70000FF0E000010B507F0F1F910BD6C
:1094A00038B51048002104680846AE3407F05CF86F
:1094B000694648702079C10704D001216A461170BD
:1094C00088432071C0B2810705D502216A46117018
:1094D000FD210840207102216A46084607F0ECF998
:1094E00038BD000084530020FEB5394909220968BF
:1094F00012028A18136B582242439C1841225201CF
:109500008D183449800146182289208F2021895DD9
:10951000521C228140006269002700B2101A60616B
:10952000F07A4018C0B2252800D32538F072A0790F
:10953000C0072ED0284640300090408E2189401A26
:109540000004000C25D123480C3800884007400F48
:1095500007F0ECF98446A07940084000A071284645
:10956000C030017A4908490001720099A3894A8DE7
:10957000C98D0905090C934205D1A3698B4202D11B
:109580006346002B01D0402701E008238373A281AA
:10959000A161A079800719D57620405B2189401A06
:1095A0000004000C12D18021495960350091A97E38
:1095B0000191A179FD221140A17131466846052231
:1095C000213107F0D9F90120400507433846FEBD97
:1095D00084530020CC000020F0B58FB007684168AC
:1095E0000A917949794A0968008989180B91012102
:1095F000099100210891400514D50B988469C6692A
:109600002078617B05072D0F8909012903D1C00945
:1096100001D0012000E000200890022D0CD9062D79
:1096200008D109E00B983C6B066A207805072D0FDE
:10963000042D01D000200990E0798009012804D18F
:109640002078400601D5012100E00021604801702A
:10965000E020C05D00283DD00120864600208446E1
:109660003078132100901DE000200D90421823183F
:10967000B25C9B789A4201D001220D92401CC0B28C
:109680000628F3D37046002804D00D98002801D096
:10969000012000E000208646891F6046401CC0B2C1
:1096A000C9B2844600988445DED3704600287AD03B
:1096B0000098401CC0B2042800D904203070122247
:1096C000711CF01D07F058F9314606221331A01C19
:1096D00007F052F9062D02D0022D02D002E0022539
:1096E00000E0032520784006C00F0490012D0AD029
:1096F0006078801FC606F60E3348F0210068095CCA
:10970000012914D02FE000266946204607F03DF9D4
:109710002D480068E030007C0028EDD100983968C1
:1097200088424FD10198796888424BD11BE01121C2
:10973000890141180A7DFF2A15D025490B78012B94
:1097400001D102234B7037235A431218FF320132E2
:10975000927E4978D2001018232252018018007B93
:109760004018C0B20490099800282BD00A982037DE
:10977000807B02960094019038792A46049B0899D0
:10978000FCF7BBFD00281DD10A982146807B029082
:1097900008310D48009601910068A0300079C0079B
:1097A00002D0002001E00DE01020A1210843A31CFD
:1097B0002946049A07F0F4F8002803D00B980021FA
:1097C000006A01700FB0F0BD84530020040900004E
:1097D0008C530020FEB52D490B68412149015C18CE
:1097E0000921090259180A6B7B2109015D1801261C
:1097F00001E0401CC0B2082842D22F7D3146814092
:109800000F42F6D058214143891889784907490FFA
:109810000529EED10021009101917D2521466D029F
:10982000C0314D8188735821484385181846052258
:109830006946483007F0A0F88020009901517A214C
:1098400001980855A889062229895043093008182B
:1098500087B2696B0E480860686B0522876068797B
:1098600030436871696B6846C91C07F085F8A879B0
:109870000221C006C00E0843A8714034E786FEBD31
:10988000C034207AFD2108402072FEBD84530020A0
:109890000308010002780907090F0A43027000203B
:1098A0007047704730B50E4885B005682C46AE3518
:1098B0002879BA34400711D5E87A01280ED115214C
:1098C0004902684641800121017060886B46054A63
:1098D00003F030F8002801D10220E87205B030BD55
:1098E00084530020FFFF000003480249C160034980
:1098F00041617047D1AE051064530020F9A70510EF
:109900007FB5AC218172817B05468A072A350446E2
:10991000002A09DA102200216846FCF787FB694615
:109920002B460A46AD250FE0C80701D1480719D5D7
:1099300021464A312246E07A5232000701D52B46B1
:1099400001E023463A33AE2520890005000D06F0DC
:1099500029FF00280BD03A2801D00C2800D1002084
:1099600004B070BDC808C000A0734620F8E7A17B12
:10997000CA0703D010221143A173F125C9B2C90847
:10998000C900A173A572EBE710B57421095CC90782
:109990000BD1817AA42909D0AC2916D0AF2904D1E2
:1099A000417F002914D0D021817210BD04461021BE
:1099B000543007F03FF8E07A0007204602D5FCF764
:1099C0001EFE10BD07F046F810BDFCF7B0FD10BD3F
:1099D00007F073F810BD10B504684168A268FF2055
:1099E000137B8A7A002A0DD0F12A0BD0A12A0FD03E
:1099F000A52A13D0A62A04D1042B02D1204607F0B1
:109A000079F810BD0B2BFCD1204607F0E5F810BD0E
:109A1000022BFCD1204607F021F910BD032BFCD10D
:109A2000204607F051F910BD10B50146807AA928EB
:109A300002D1002007F048F910BD70B514460D465C
:109A400006460120C046002805D022462946304659
:109A500007F066F970BD112070BD10B507F0BEF9B2
:109A600010BD70B50C4605460120C046002804D044
:109A70002146284607F0C0F970BD112070BD10B511
:109A800007F0E2F910BD000070B51349092209681A
:109A9000120200208B18AC22525C1AE058241D6B75
:109AA00044432C1954252D5DED0610D5412040016D
:109AB0000818C030428A018A608907F031F93A28D3
:109AC00004D04034207DEF210840207570BD401C3B
:109AD000C0B28242E2D870BD84530020FFB5074671
:109AE000464881B000880D4645490922096812029E
:109AF00040078A18400F126B58235843141841200E
:109B000040010E180120C046002822D0142D04D098
:109B1000152D20D0072D59D05CE02146039807F081
:109B2000A7F90121206989040843214640312061B9
:109B3000087D022210430875820609D56279520811
:109B400052006271DF2210400875002F4ED151E0A3
:109B5000012005B0F0BD25464035287DC007F7D06F
:109B60002146039807F084F9204600F085F8002884
:109B700025D0A18FE08F814200D20846E880698914
:109B8000A889814200D2084668822A89E9898A42E6
:109B900000D211462982628F2888824200D2104664
:109BA000C9080E3989B26880884200D30846A88067
:109BB0000498006801214906084304990860287D3B
:109BC000400840002875002F10D113E00398C0789A
:109BD000142802D0002005B0F0BD4034207D0421BF
:109BE0004008400008432075002F03D00820C036ED
:109BF000F073ADE70820C036B073A9E7C0000020BD
:109C000084530020F8B51C4615460E460746012031
:109C1000C046002805D007F047F9002803D00C20E3
:109C2000F8BD1120F8BD1249412209685201891876
:109C30003A4600201B3AE12A00D330203346FF3B4E
:109C40000C4A493B934200D330202B461B3BE12B6F
:109C500000D330202346FF3B493B934200D33020C2
:109C600072B6C0318F82CE820D834C8362B6F8BD4E
:109C7000845300200107000070B50146403004887D
:109C80004A8F0025944200D31446C28903899A4220
:109C900000D21346CA8F898F8A4200D30A4686892A
:109CA00041898E4200D231464688A64200D0012525
:109CB000C488944200D00125028A9A4200D001252E
:109CC000408A884200D00125284670BD70B5032126
:109CD00004F026FC082801D3022070BD2649092281
:109CE000096812028918096B582250430C186079D0
:109CF000666B800701D03A2070BDE18FA08F07F01E
:109D0000F9F825464035E880A989688907F0F2F816
:109D100068822988608F07F0EDF86880E9892889D2
:109D200007F0E8F82882C0080E3881B2688807F08A
:109D3000E1F8A88011483060656B204602223C3073
:109D4000E91C06F019FE20460222691D4A3006F081
:109D500013FE20460222E91D3A3006F00DFE294688
:109D6000204602220931483006F006FE60790121C2
:109D700008436071002070BD845300200309150062
:109D800010B5042901D9422010BD07F0B7F810BD65
:109D900010B5002903D0012901D0422010BD07F0E1
:109DA000CBF810BD10B50D481B2100688901411882
:109DB0000A7E002493070DD402231A430A7672B652
:109DC0004030C1794906490EC17162B607F0CEF83C
:109DD000002800D03A24204610BD00008453002003
:109DE000F1B51D4C1B252068AD014119097E0026E7
:109DF00090B0890701D53A262BE079273F01C21997
:109E00002021002007F0E8F8002801D01F2620E0DC
:109E1000402268461099FCF703F920680223411993
:109E20000A7EC0191A430A76694607F0E5F8002849
:109E300007D0206812264019017EFD2211400176CC
:109E400007E072B620684030C1794906490EC171F9
:109E500062B6304611B0F0BD84530020F0B5574DC6
:109E60001B20296880010818007E91B080076FD5FB
:109E700004F0D8FD01286CD1002407F0E5F806466F
:109E800004F0D6FD012800D1032430007ED037270E
:109E900002267F01012802D002287CD13BE06946DE
:109EA000022004F023FE032008A904F01FFE002C6A
:109EB00006D17921286809014118012004F016FE15
:109EC0002868A421095CC90701D0002100E0102105
:109ED0000E43694611231091F10603D50922BF21D3
:109EE0000E4007E0C1194A78920654D589780906D0
:109EF00051D507223107890E09180120C002081820
:109F000040693146FDF732FE070044D0381D3C71F0
:109F10004022109936E06946022004F0E7FD002C4B
:109F200004D02022FF216846FCF780F82868A4218D
:109F3000095CC90701D0002100E010210E436946E9
:109F400009230891F10605D50A22BF210E4009E038
:109F500029E030E0C1194A7892061CD5C978C907B2
:109F600019D008223107890E09180120C0020818EB
:109F700040693146FDF7FAFD07000CD03C71381DF1
:109F800008992022401CFCF74BF800E003E039461A
:109F90003046FDF749FE1B20296880010818017E24
:109FA000FD221140017672B6286880224030C179C6
:109FB0001143C17162B611B0F0BD0000845300209E
:109FC00010B5012813D10A4C08222068817E114364
:109FD0008176202207493C30FCF722F805492068A9
:109FE000202220315C30FCF71BF807F037F810BD59
:109FF00088530020B01D061030B50446C07A0025F5
:10A00000000710D5208907F039F8002801D008256D
:10A0100009E0E07A01210843E07204480422006864
:10A02000817E11438176284630BD00008853002090
:10A0300010B50A4C2068807E41060DD5902108425B
:10A040000AD1FFF7AFFE002806D12168BF22887E23
:10A05000104080221043887610BD000088530020F5
:10A0600038B5144C00252268402128463C3206F0C1
:10A07000B3FF00280AD1104879210068090142186D
:10A080002021002006F0A8FF002801D006250FE0BF
:10A09000206810211C3006F0CDFC21680023084602
:10A0A0000A462C303C3100901C32084607F006F876
:10A0B000284638BD885300208453002070B50468BA
:10A0C0000579E07A00072FD5208906F0D7FFE17ADD
:10A0D00049084900E172154C002804D12168FB238E
:10A0E0008A7E1A408A762168002D05D0CA7E1032F9
:10A0F000CA76002804D007E0C87E401CC87603E07A
:10A10000887ECF221040887620680321C07E050912
:10A110000007000FFDF7B1FE4019032804D306F035
:10A12000F5FF21680020C87670BD0000885300202C
:10A1300070B50D4D0178441C2868827E5206520E7F
:10A140008276002902D006F0E1FF70BD06F0EAFF3A
:10A15000002802D006F082FF70BD28684022214608
:10A160003C30FBF75DFF70BD8853002070B51A4C82
:10A1700002782368411C987EC00626D5002A05D0A7
:10A18000164800210068A030027B21E018462022FA
:10A19000D030FBF745FF20682022817E114313E079
:10A1A0007C20DD6F4843281810D00589002D0DD084
:10A1B000C57A2D060AD5012300220B2106F0BAFF2D
:10A1C0002068CF22817E1140817670BD491CC9B2C2
:10A1D0008A42E5D870BD00008853002084530020D7
:10A1E00010B50B4A016812688968927D4068C97B86
:10A1F000022A03D10A0701D4032010BD1823C27A12
:10A20000DB4319430A40C272FCF7DDF910BD0000C0
:10A210008853002010B5C17F012908D0042906D039
:10A22000022907D0032901D106F09AFF10BDA5210C
:10A23000817210BDC17B491CC17306F00BFC10BDBF
:10A2400010B5C17F012908D0042906D0022909D000
:10A25000032901D106F084FF10BD0146002006F05D
:10A26000C5FF10BDC17B491CC173B521817210BDF2
:10A2700038B514C8D07F02280FD10848D17B0068B8
:10A28000491E03690094CB40DB070146DB0F903188
:10A290003C305432803306F011FF38BD8853002023
:10A2A00038B514C8D17F0023032904D00C480229F3
:10A2B000006804D00AE0AA209072EB2038BDD17B60
:10A2C0000369491ECB40DB07DB0F803301463C317D
:10A2D00090306432009406F0F1FE002038BD00009A
:10A2E000885300201CB50446C07F042806D0AA214C
:10A2F000022820D0012800D1A1721CBD01A8009025
:10A300001048234600682246014664335432903197
:10A310003C3006F0A8FFB920A07201A806F0CFFFDC
:10A320000949FDF7AAFD20890A460105090D022009
:10A3300006F0D0FF1CBDE07B1428DDD2A420A07263
:10A340001CBD00008853002040420F0038B514C8DF
:10A350000A48D17F00230068022906D1D17B036916
:10A36000491ECB40DB07DB0F8033014690313C3088
:10A370006432009406F0A2FE38BD0000885300202D
:10A38000FEB50468416802918668C568BA202870E5
:10A3900000203060E17F1F4804291ED002291BD114
:10A3A0000068E77B01697A1ED140CB0702990091D2
:10A3B0000146DB0F224654323C319030803306F0A8
:10A3C0007DFE214610222A310298FBF739FE3060CB
:10A3D000142F01D2B4202870FEBD01A9009100689D
:10A3E000234601462246643354323C31903006F015
:10A3F0003AFFB920287001A806F061FF0649FDF771
:10A400003CFD20890A460105090D022006F062FF85
:10A41000FEBD00008853002040420F0070B5044686
:10A42000174801250268402100203C3206F0D4FD87
:10A4300000280AD113487921006809014218202117
:10A44000002006F0C9FD002803D0002506F05EFEBE
:10A450000EE0E07AC1434906890F09D07421095DF5
:10A460000025C90706D0400602D5204606F05EFF4B
:10A47000284670BD8106FBD49B210840E072F4E7BA
:10A48000885300208453002010B50446807AAA28FF
:10A490000BD0BA2809D0B92810D07420005DC007AD
:10A4A00002D12046FCF74FF810BD204606F074FF9D
:10A4B0000028F9D0012300220B210DE0E07F0428C1
:10A4C000F2D1E07E410602D5BA20A07210BD00068E
:10A4D000FCD5012300220C21204606F02BFE10BDE6
:10A4E00010B5036841689A68FF20147B8A7AA22A13
:10A4F0000BD0B22A09D0AB2A01D0BB2A04D10D2C33
:10A5000002D1184606F09AFF10BD0C2CFCD1742223
:10A51000525CD207CA7A05D05206F5D4184606F026
:10A52000C7FF10BD9206F9D410BD0000F8B502684F
:10A5300041689268FF20137B0E2B13D1CB7ADB0688
:10A5400010D5CB7F022B0DD14B7E022B0AD1742369
:10A550005B5CDB078B7A06D0B22B0AD0B42B08D019
:10A56000B52B06D0F8BDA22B03D0A42B01D0A52B70
:10A57000F8D10889372105050D48490100680226F0
:10A580004118C97A2D0D547B012349060ED50221AD
:10A590008F020830C0191C224069FDF7E7FA01005C
:10A5A00004D08D808C713046FDF73EFB0020F8BD55
:10A5B0008453002010B5084C2F2320685B01F8223B
:10A5C000FF21C018FBF732FD1722216800209201FD
:10A5D0008918087710BD000084530020F1B5194D8B
:10A5E00000212868E03041740320009906F0B4FF90
:10A5F00001270446FF281ED000263046009907F0A8
:10A60000A3F8FF280DD0C10028680F4A091889183F
:10A61000CA7937235A431018FF301B308770C47033
:10A62000C8792A68E100891840062F22400E52019D
:10A630008918C87100E007262868E0304774304662
:10A64000F8BD0000845300206C04000070B5144C69
:10A6500000262168E0314E740146032007F074F8AB
:10A660000146FF2815D02268C8002F2380185B01FF
:10A67000C018C07900257F2807D037235843801899
:10A68000FF301B308670FF22C270032007F09EF857
:10A6900000E0022520680121E0304174284670BDA9
:10A6A0008453002070B50D46032103F039FF09499A
:10A6B0008001441872B62046213007F01DF920347D
:10A6C0006479014662B6284607F021F92C71002012
:10A6D00070BD0000CC000020F8B5294D412229684A
:10A6E00052018C18032103F01BFF064603F0AEFF56
:10A6F000070005D0CF20005D082E04D30220F8BD4E
:10A70000CE20005DF8E7082801D23A20F8BD72B6E5
:10A710000921286809024018016B582070430D1860
:10A720006879800701D062B6EFE708200090012F1A
:10A7300001D10E2000900120C046092140070906E2
:10A7400040180099090408430E494018696B0860D5
:10A75000696B00204860696B88607D204002002F93
:10A7600009D0C034A081E67368790121084368717B
:10A7700062B60020F8BDC0346081A673F4E7000023
:10A78000845300200309000070B50446002507F03B
:10A79000C6F82070000A6070A41C6D1C042DF6DB46
:10A7A000002070BDF8B514460A4605460121104642
:10A7B00003F0B6FE0146082801D30220F8BD1C486C
:10A7C0000922006812028018026B582048431018B2
:10A7D000184A89018B18426B002D07D0164972B6B2
:10A7E00043799B070DD062B63A20F8BD00215F186F
:10A7F000665C2037BE73491CC9B21029F7D30F49D4
:10A80000EDE711604179012211434171002D09D01A
:10A81000074847220068082152018018C17362B6B8
:10A820000020F8BD01220169520411430161F6E7DD
:10A8300084530020CC00002003020D060301050014
:10A84000044A00214254491C120AC9B20829F9D30A
:10A8500070470000FF000033F1B54A4C1F2120680B
:10A860008901494A411809791288120701D400293F
:10A8700001D00C20F8BD1125ED014019406C422794
:10A88000424E00800120C046012845D009202168A1
:10A8900000020818006D4919496C283048800020D2
:10A8A000216849194A6CC11D575421684919496CDE
:10A8B000021D8E54401C3F0A360AC0B20328EFD353
:10A8C000206801214019426C9172406C0321C172D1
:10A8D0002D4E0020B0752C4FFF212037C219517327
:10A8E000401CC0B20428F9D31F207874009807F0E8
:10A8F00033F8F07520684019416CB183406CF083E7
:10A90000234870622348B06200253D73FD7001202A
:10A91000C046012809D00AE009212068090241182F
:10A920004019406C096C4180B9E78020B87008205C
:10A9300030808120B07130727071F071092620680A
:10A9400036028019006B0581FF20F53007F015F8FD
:10A9500072B60921C90608690F4A012380182268C6
:10A960000002DB02000AD318186701231B061843F4
:10A9700048609019016B4D71006B0721817062B6C0
:10A980000020F8BD84530020C0000020983A300019
:10A99000294176715555550088130000F7B50D46CD
:10A9A00091491F2208689201904B821812791B88E6
:10A9B00084B01B0701D4002A02D00C2007B0F0BDE0
:10A9C00011218D4AC90140180092406C4227884EDF
:10A9D000884C00800120C046012837D082481122CF
:10A9E0000168092000020818D201006D8918496C1D
:10A9F0002830488000207C490A681121C90152187A
:10AA0000536CC21D9F54784A12685118496C021D3C
:10AA10008E54401C3F0A360AC0B20328EBD30120F3
:10AA2000C04601282AD0252D00D925256E48069933
:10AA30000268092000021018026D20321172016DA7
:10AA400020314D72016D2A31002262E06B49E8002D
:10AA5000401868497231FDF710FA0102624801227C
:10AA60000068D2028218D166092109021122411818
:10AA7000D2018018406C898F4180BBE709210022F8
:10AA800009025948FF2306687618F66BB354521C26
:10AA9000D2B2FF2AF7D30368069A5B18DB6B1A70F1
:10AAA00002685218D26B557000684018C16B891C3F
:10AAB000CAE7069E0020330006F066FF080514165C
:10AAC0001822272426272046002327072609FF0DC2
:10AAD0007E40F0273C4064005B1C7440DBB2022BDC
:10AAE000F3D312E00F2010E055200EE00098060688
:10AAF000030A760C7340C605760C7340009304E09D
:10AB0000FF2002E0F02000E0AA20521C0870D2B220
:10AB1000491CAA42CDD3344D112728680321FF01D7
:10AB2000C019426C9172406CC172304C8020A0758B
:10AB3000049806F011FFE0752C4E0020FF2120360E
:10AB400082195173401CC0B20428F9D31F207074BD
:10AB50002868C019416CA183406CE083284860627A
:10AB60002848A06200273773F7700120C0460128EB
:10AB700001D18020B070082020808120A071207237
:10AB800085206071E0710926286836028019006B03
:10AB900007811D4801902320029006F002FF01A8C2
:10ABA000012180B209044018F404E06006F0F9FEC7
:10ABB000FF20F53006F0E1FE72B6206913492A68DD
:10ABC000401801210002C902000A5118086701213A
:10ABD0000906084360609019016B4F71006B0621F4
:10ABE000817062B60020E9E684530020C000002096
:10ABF000983A3000FF010000FF7F0000B903000019
:10AC00002941767155555500022301028813000031
:10AC100010B514490A8812070DD5134A1368092282
:10AC200012029A18136B9B785C07640F062C04D0F1
:10AC3000DB435B0701D00C2010BD72B600230B80F4
:10AC40000921C9064B60126B118962B69478E443FE
:10AC5000640700D0002193700170090A4170002040
:10AC600010BD0000C0000020845300200649086089
:10AC700070470648017801220A43027001780222D7
:10AC80000A430270704700000000704008007040E6
:10AC9000F0B5444F0446386885B0783016460D4606
:10ACA000002C19D0062C11D0082C0CD0182C0AD04E
:10ACB000282C0BD02A2C09D02C2C0AD02E2C0BD0CF
:10ACC000D02C42D043E0102D08D040E0022D05D01A
:10ACD0003DE0012D02D03AE0062D38D10A46001998
:10ACE0003146FBF79DF92C2C28D13078002825D04F
:10ACF0000120C046012824D01B201F304009401CE1
:10AD000041004118012006F05FFE0120C0460128E5
:10AD100019D01B201F3040094100411822484078BB
:10AD2000401AC01EC1B2002006F04EFE3868402214
:10AD3000403001781143F92211400170002005B024
:10AD4000F0BDFB20D9E7FB20E4E7012D04D0012072
:10AD5000C046012804D007E0107806F041FEEEE777
:10AD6000D12C01D1082D01D01220E8E70222314672
:10AD70006846FBF755F90222B11C01A8FBF750F910
:10AD80000222311D02A8FBF74BF90222B11D03A8D4
:10AD9000FBF746F968468389028981880088FBF7BA
:10ADA000EEFBCCE78453002060520020F8B51B4E28
:10ADB000144633680622783300281DD00225062861
:10ADC00012D0102708280DD018280BD028280BD017
:10ADD0002A2809D02C2809D02E280DD0802810D060
:10ADE0001220F8BD0F7008E00D7006E001220A7015
:10ADF000185C104020700EE00A700A78191820467E
:10AE000007E00A700921306809024018016E2046E7
:10AE10002431FBF705F90020F8BD00008453002021
:10AE200010B5012818D8072916D80C4A12681346FD
:10AE30002033187759778007C906000E090E0143A1
:10AE40000020074BA03204E08401E418A172401CEA
:10AE5000C0B2147B8442F7D8002010BD8453002078
:10AE60000001002006481F2100688901401805499B
:10AE700000790988090701D4002800D00120704713
:10AE800084530020C0000020012180B20904401832
:10AE900008B50921C906C86064206A461070107898
:10AEA000401E1070C868C00302D510780028F6D183
:10AEB000107808BDF8B5074613480E4605687B2094
:10AEC00000012C18363504F093F806F09BFD3A206B
:10AED000005D02070120120F014691402A781207F7
:10AEE000120F90400143207D884309D06068000A1A
:10AEF0003860606806F0BCFD000A30600020F8BDD4
:10AF0000002030603860F9E784530020002000B54D
:10AF10008DB00A900B9008900990059006900790CC
:10AF2000049000900190029003460246014603906F
:10AF300006F0DCFD0DB000BD70B592B006462022D3
:10AF400021A101A8FCF704FF202109A8FCF738FF84
:10AF50000A216846017000242546694601A806F0CA
:10AF60007FFE6846027801A909A8FBF759F801A8F5
:10AF700024E0015D491CC9B2914223D803195B78D2
:10AF8000B34214D16B461A78521A6118C9B24118EB
:10AF9000D2B209A81A704019FBF742F86B4618782C
:10AFA0002818C1B209A8FDF7D9F812B070BD521A1D
:10AFB0006B461A7062186918D4B2CDB269460A7825
:10AFC000002AD6D11F20F0E702FF0102010403028C
:10AFD0008FFC0000000000000000000000000000E6
:10AFE0000000000000000000F0B5054600200F46FC
:10AFF000079E059C174309D0202905D30127BF03CD
:10B00000BA4201D8914201D94220F0BD19462143EC
:10B010000AD09C42F8D309498C4203D00849A41FA6
:10B020008C42F1D2062BEFD3002D03D0022D01D09C
:10B03000032DE9D1032EE7D8F0BD0000FFFF00008B
:10B040007B0C0000F0B591B00C461AA9E0C90021B4
:10B05000089109910A910B911999049105A9E0C1F0
:10B0600016A962C900930191134601460396029501
:10B070002246022006F03AFD040007D1042008A968
:10B08000087704480E900CA806F006FE204611B082
:10B09000F0BD000020BF0200F0B58DB00C4616A92F
:10B0A000E0C90021089109910A910B911599049129
:10B0B00005A9E0C112A962C9009301911346014696
:10B0C000039602952246012006F010FD0DB0F0BD5A
:10B0D00070B58CB00024109D119E0A940B940494BA
:10B0E00005940394069407940993089200900194A0
:10B0F000029433462A46042006F0F8FC0CB070BDDA
:10B1000030B50C4A002113680B4A1268A032147B38
:10B110000AE07C224A43DD6F0832AA5A002A01D095
:10B12000462030BD491CC9B28C42F2D818760020A6
:10B1300030BD0000885300208453002070B50546C0
:10B1400006F0BCFD002801D0462407E00448002496
:10B1500000680C2229460C30FAF762FF204670BDC9
:10B160008853002010B50C4606F0CEFD00280FD005
:10B170000189002C0ED00122D20311430181480421
:10B18000800F0AD00905090D022006F0E3FD04E056
:10B19000402010BD4904490C0181002010BD000071
:10B1A00010B50C4606F0B0FD002804D0C17F02297E
:10B1B00003D0462010BD402010BD0449102209686C
:10B1C0000C61C17E1143C176002010BD8853002060
:10B1D00010B50C4606F098FD002805D001890A0438
:10B1E00009D5012C02D004E0402010BD4904490CCF
:10B1F0000181002010BD462010BD0000FFB50C46A7
:10B2000078A103C995B001910090002108A80173AD
:10B210000321C90268464186012108A8734E0174C2
:10B2200035681746AE3506F0BFFD002808D17049D5
:10B230003068401806F04CFEA878002802D046205E
:10B2400019B0F0BD0BA81599FBF765F90028F7D1E7
:10B25000072010A90871012C05D0022C0AD0002C5F
:10B260000ED04220ECE708A8017B1020014308A87B
:10B27000017305E011A90BA8FBF74CF80028DFD1FA
:10B2800010A8027901230CA9284600F0A1FC00288F
:10B290007ED1022229461898FAF7C2FE298868460C
:10B2A00081811521490201820784012686734E217E
:10B2B00008A881700024C47006710721417186714D
:10B2C00003A902A800F0E0FD002861D1022202A932
:10B2D0001E98FAF7A5FE082F02D26846478502E0BD
:10B2E00008206946488569460C850B4628880AAAC5
:10B2F000098901F017F800286DD13E49684601829E
:10B300000227078408A8847103A902A800F0BCFDE5
:10B31000002860D1022202A91F98FAF781FE684630
:10B320000470694644704F850B4628880AAA09892B
:10B3300000F0F8FF00284ED108A8007BC00723D0FA
:10B340002C496846C91C01820821018408A887701D
:10B35000047103A902A800F097FD00283BD1FF214A
:10B360006846C1718171C170817041700170447112
:10B3700004716946082048850B4628880AAA09896D
:10B3800000F0D0FF002826D108A8007B800600E04E
:10B3900021E022D52988684681811649A53101829C
:10B3A0000684867308A88770C470047107214171F0
:10B3B000847103A902A800F067FD00280BD169463B
:10B3C0000E700C854E850B4628880AAA098900F064
:10B3D000A9FF002801D0472032E708A8007BA87009
:10B3E00000202DE7626C75656E7267218453002022
:10B3F000EF060000012A000000B500228DB00A927D
:10B4000005920B92009108920992069207920146CA
:10B4100004920192029213460392032006F066FB07
:10B420000DB000BD10B514468CB000220B920692F0
:10B430000A9208920992059207920492029201934D
:10B4400003920B46024600940021052006F04EFBB5
:10B450000CB010BD70B506F057FC040007D0742086
:10B46000005DC0070AD0207B800707D101E04020A3
:10B4700070BDA07A002803D0F12801D0462070BD0D
:10B480001A4E3068807EC04380072BD0208920224E
:10B490000105090D002006F025FD050024D002203D
:10B4A000E880A8680B2101733068817DC37D4A085C
:10B4B0001143CA07417B007BD20FC007C00F06F0C3
:10B4C00033FD0146306880300173A868417321461E
:10B4D000284606F035FD0028D1D1217B01221143F9
:10B4E000217370BD382070BD642070BD885300206A
:10B4F000F3B591B00446032069460870002501A801
:10B5000006F0AEFB224609A81299FAF789FD2146FA
:10B5100034E0002001AB5B199C4614E0129B1B5CDD
:10B52000934239D8934201D1002B35D1129ED21AC1
:10B5300036186746521E76787F78D2B2BE4213D054
:10B54000401C1818C0B2A042E8D301AF7A5D4E1C6F
:10B5500090191F282DD809AB58186146521CFAF7CC
:10B560005FFD785D8019C1B201A86B46405D1A7815
:10B570006D1C121A521E40191A70C5B26846007826
:10B5800022460028C5D110E0129B1B5C934203D8D1
:10B59000934204D1002B02D0422013B0F0BDD21A46
:10B5A000521E401C1818D2B2C0B2A042ECD31F29C0
:10B5B00001D94120F1E709A8FCF7D0FDEDE7F0B58E
:10B5C00014460E46074606F09FFB050016D0384687
:10B5D00006F0D2FC0122297F3270C30709D043074D
:10B5E0000322002B03DA102903D1042004E0800792
:10B5F00001D52270F0BD02202070F0BD0020307017
:10B60000FAE70000F0B52148092100680902401856
:10B61000456F99B000206946087004460C2714262F
:10B62000FEF7C8FF10A8023017906946284606F0BA
:10B63000BBFC6846641C0078E4B2FE2820D101A956
:10B64000284606F0B9FC68464079C007179804D030
:10B65000FBF73CFA0002401C02E0FBF737FA00025D
:10B66000159011A80130FBF731FA0002000A16907C
:10B6700015A8FEF7B3FF002802D0472019B0F0BD8F
:10B68000AD19BC42D1D30020F8E70000845300205C
:10B6900010B5FCF7F3F910BD10B506480921006894
:10B6A00009024018406FC001000C06F097FC002012
:10B6B00010BD00008453002000B50005000D06F009
:10B6C00023FB002806D0017B0A07920F022A03D031
:10B6D000462000BD402000BD0C2211430173002014
:10B6E00000BD10B50C46417994B0490610D56A46A4
:10B6F000012100F07DF8002802D0702014B010BDA8
:10B700000FA9062220460231FAF78AFC0020F5E74D
:10B710004220F3E7FFB58DB01898169E179D199932
:10B720001C461746002803D006F080FC002813D1E1
:10B730000020069008900990059004900121079040
:10B740000B95039002900A960191009439460620C9
:10B750000E9B0D9A06F0CAF911B0F0BDFFB597B077
:10B760000C2016901420159020480025006809210F
:10B77000090240186946466F0D701F462C461D7021
:10B780006946304606F010FC68466D1C0078EDB244
:10B79000FE280BD0FF2804D015983618169885423D
:10B7A000EED31798047000201BB0F0BD01A93046FD
:10B7B00006F002FC1999E01D884201D96420F3E7E4
:10B7C000684640790622C1071898C90F0155641CC4
:10B7D0001898A4B210A900190231FAF721FCA41D8F
:10B7E0003878A4B2401C3870D6E70000845300209B
:10B7F000FEB507462E480E4600680921090240188A
:10B80000456F0020694614460870002E1BD0012E9B
:10B8100006D17879010601D5410614D4800912D0E9
:10B820007879400641D56946284606F0BDFB264694
:10B830001E3668460078FE2827D0FF2835D000281D
:10B840002DD0FA20FEBD20463E30019069462846A4
:10B8500006F0AAFB68460078FE2805D0FF2824D011
:10B860000028EED11435F1E72146284606F0A4FB66
:10B870006078C007C00FB042F4D106223946019863
:10B88000FAF7DEFB0028DDD0ECE72146284606F07B
:10B8900093FB3146384606F0E8FB0028D2D0143539
:10B8A0006946284606F080FBC3E75C20FEBD000029
:10B8B00084530020F8B51E460B460E490025069F0E
:10B8C0000C68002805D0012803D0022803D04225A7
:10B8D0000DE01C3400E02C341146184606F0D6FB6F
:10B8E00010203070024621463846FAF799FB284668
:10B8F000F8BD000088530020FFB5002483B01F4628
:10B9000005462646009406F0D9F901280DD02800F6
:10B91000224D0DD06846067131466B463A460020EE
:10B9200006F0D2FB040024D035E0462007B0F0BD7D
:10B930000C9800280CD0002F14D0012F12D0022F09
:10B9400013D000984224002825D00C9A0D9920E0AD
:10B950000120C046012801D011241CE0FAF73BFE6B
:10B96000044618E028681C3001E028682C3000905C
:10B97000E9E72968049880314968062248702868F8
:10B98000059980304068801CFAF74AFB0C9A0D99A3
:10B990000098FAF745FB2046C8E7000088530020CE
:10B9A000F3B51B48092100680902401895B0446F9F
:10B9B00000205C251427694610AE087002366946DF
:10B9C000204606F0F1FA68460078FE2805D0FF28E8
:10B9D0001BD0002813D0FA2517E001A9204606F055
:10B9E000EBFA68464079C1071598C90F814206D124
:10B9F000062230461699FAF723FB002801D0E419F5
:10BA0000DDE7204606F084FB0546284617B0F0BD6A
:10BA100084530020F0B55FA099B000685E4915908E
:10BA20005E4A08688418092212028218526B254661
:10BA3000403514922A7AD20702D0622019B0F0BDA4
:10BA4000AA8B01235B029A4201D9AB8303E0172A38
:10BA500001D21722AA83149AA0301392067B0DE01C
:10BA6000761EF6B2139871010F18B8680F90384619
:10BA700020220021FAF7DAFA0F98B860002EEFD1F1
:10BA800020460830E0606460A060246008301390B5
:10BA900060612061FF220021083006F049FB20464A
:10BAA000FF220021243006F043FB2046AA7F00211C
:10BAB000303006F03DFB2046FF2200213C3006F0EE
:10BAC00037FB00222A7210461721334B05E0149EE3
:10BAD0004701BE19401C7180C0B21E68A036367B7B
:10BAE0008642F4D8002028832F8C688C002614907E
:10BAF00008E02820E16C70430918204606F020FB7E
:10BB0000761CB6B2BE42F4D3002608E03020216D88
:10BB100070430918139806F013FB761CB6B21498FC
:10BB20008642F3D3012006F013FB0124684604701B
:10BB30001B4941802346042269460CA800F048F8BE
:10BB4000002822D16846018E81821649018304268D
:10BB500006858475202108A881720024C4720473AC
:10BB600007214173847305A90DA800F08DF9002801
:10BB70000BD1684604874687818E15AB0EAA008ECE
:10BB800000F0D0FB002800D158E7002028724720A1
:10BB900054E700000000FFFF845300202C07000042
:10BBA00001180000052A000070B51C4613460D461A
:10BBB000012C03D0022C03D0422070BD022200E0F1
:10BBC00010221946FAF72CFA2C70002070BD0000E4
:10BBD000FFB58FB014460E78102205A8891CFCF71B
:10BBE000D1F84F484F490068451806F0BDFA0028C3
:10BBF0001ED1002C57D0012E09D16846808A4A49AF
:10BC0000884204D12846A968083081424BD1284691
:10BC1000103029690390814209D00AA9284606F00C
:10BC2000BFFA6846018D601E0D90814202D2482005
:10BC300013B0F0BD284608300CA9049006F0B0FA05
:10BC40006846008E002814D0EF680AA938461830DC
:10BC500006F0A6FA384620300CA906F0A1FA68468C
:10BC6000398D008D09186846008E401C081887B26F
:10BC700000E0012701200004C01BA04201D2612086
:10BC8000D6E72C69286801901298012802D0022872
:10BC900003D008E00520C00200E024486085012EA2
:10BCA00003D0022E05D04220C2E7204608300222EF
:10BCB00002E020460830102205A9FAF7B1F9204623
:10BCC00031462030064601730F98214607802785AC
:10BCD000039806F06FFA2146049806F031FA2746D9
:10BCE0001837E7616662A76126620D9884B20BE09F
:10BCF0002846019906F05EFA3846019906F020FAC6
:10BD00002868641EA4B20190002CF1D10F9801881C
:10BD10000D98081882B2002006F05CFA002087E730
:10BD2000845300202C0700000118000001280000A7
:10BD3000F3B552480C460068514993B040180F9033
:10BD40002588618868468185A18801862146102260
:10BD5000083107A8FCF716F8A77906F005FA0028BD
:10BD60000DD16946888D098E884239D8002837D090
:10BD700010A9284606F052FA002802D0602015B01B
:10BD8000F0BD109D03A928461830059006F008FA6A
:10BD900068468089002831D028462030AC690DA93A
:10BDA000049006F0FDF96846818E364A002913D0CA
:10BDB0006E46B6892B8D7618686A9B19868BB342BE
:10BDC00001D16120DBE70389934203D12030C078A1
:10BDD000012801D06220D2E7012F03D0022F03D027
:10BDE0004220CCE7062000E00420E0830F9E40368E
:10BDF000708B338BC01AE38B984201DA4820BEE780
:10BE0000288D491C4018139925460880A08322815B
:10BE100001202035E8700F98318B406D02224018C8
:10BE20000BA9A061FAF7FCF8A06902220CA9801CFA
:10BE3000FAF7F6F8308B001D3083012F08D1A06986
:10BE4000022207A9001DFAF7EBF8308B801C308323
:10BE50000020687101212971A870A87121460598F8
:10BE600006F0A8F92146049806F06AF913980188AB
:10BE700000200A4606F0AEF9002080E78453002037
:10BE80002C07000002280000F3B5A5B008881A901E
:10BE900088780C4611901022091D13A8FBF772FF39
:10BEA000A08A1090A17D68460172E07D0F90207EEF
:10BEB0002090677EA07E1F900020064601461290CB
:10BEC00020A801810F20BB4C2390BB49206840185B
:10BED000199006F049F900280BD101211098490268
:10BEE00088425FD821A91A9806F098F9002802D054
:10BEF000602027B0F0BD2198179006F0A7F91A9995
:10BF000088420CD102A801901698009013AD0ECD76
:10BF1000119806F0A3F9002801D06320E9E76846EC
:10BF2000017A8806800F05D0012012902068A03089
:10BF3000007B4600C80703D01298401CB61C129024
:10BF4000080603D51298401CB61C129017980DA92C
:10BF500018301D9006F024F96846129C808EA41CAF
:10BF6000A04237D317980EA92030019006F018F997
:10BF70006846018F00290DD01798179A6B46406AC2
:10BF80009B8E128D5918808B5118081AA04201D22D
:10BF90006120AEE71798846911982568012803D0BD
:10BFA000022803D04220A4E7052000E01320E0830C
:10BFB0002A4639460F9806F089F9422899D0199FE8
:10BFC000E28B4037788B398B411A10981018801902
:10BFD000814201DA48208CE70EA9019806F0E0F8CA
:10BFE0006846008F0028179802D0406A808B00E0D6
:10BFF000008D2599401C0880259801210088A08388
:10C00000259802220088401CA8836C482081204685
:10C0100020301790C1700021817081711998398B7F
:10C02000406D40186946A061097A0170A0692946EF
:10C030001C31401CF9F7F4FF11980128A0697DD04C
:10C04000102213A9C01CF9F7EBFF2846102213A9F0
:10C050000830F9F7E5FF388B133038832E46203649
:10C060001198F0701098E8831F98B0701098208491
:10C07000109828841998398B406D4018A8610021C8
:10C08000109AF9F7D3FF398B10980818388317994D
:10C090000120087117990020487130716846007AB4
:10C0A000810701D50121317101070227002902DA38
:10C0B000317939433171410703D531790422114374
:10C0C0003171400603D530790821084330710F984B
:10C0D00070712098B07121461D9806F06BF82146CA
:10C0E000019806F02DF829461D9806F063F82946B8
:10C0F000019806F025F81298002841D068461A9950
:10C100008181A18BC18107844784012408A804711F
:10C1100022A80A9008A88473239941730F993820A4
:10C12000014008A801730721C17300250574684602
:10C13000007AC00708D02248694600E02BE0088258
:10C1400003A924A800F03EF86846007A8006800F14
:10C1500007D01B486946401E088203A924A800F0A6
:10C1600031F86846007A00060AD529210902684696
:10C17000018208A84473057303A924A800F022F8DB
:10C18000259801881298401C081882B2002006F0F9
:10C1900021F80020ADE6022213A9C01CF9F740FFE8
:10C1A0002846022213A90830F9F73AFF388B401DC0
:10C1B00053E70000845300202C07000003280000F0
:10C1C00003290000F3B597B00D8848880590081D35
:10C1D0001DC80DAE1DC68C8ACE8A087E1390C86914
:10C1E0002031019008780090487804908878039076
:10C1F000C87802900F7905F0B7FF002817D1012009
:10C20000400284425FD8B4425DD8002F01D1B442CD
:10C2100059D114A9284606F001F8002806D115AA1C
:10C220001499059806F05EF8002802D0602019B035
:10C23000F0BD149D11A92846183005F0B1FF10A8D3
:10C240008088002810D0284612A9203005F0A8FFC9
:10C2500010A8838800892A8D1818696A10188A8B9B
:10C26000904203D16120E2E74820E0E715982C4B8B
:10C2700002899A4227D12322125C012A23D1006825
:10C2800000681690139801281FD16846808E2922D5
:10C290001202801A030005F077FB06041804040755
:10C2A0000A18022C0FD110E0072C0CD10DE0042C41
:10C2B00009D3E00707D1012F07D1A64203D3042EEB
:10C2C00001D3F00701D04220B1E702980B90039B05
:10C2D000049A0A9309920098019A0C97089006967E
:10C2E000059407920DA81DC8019002A81CC01398C0
:10C2F0000B4600902A461699179806F003F8002876
:10C3000095D168460649808EFF31884205D017983E
:10C31000018800200A4605F05DFF002087E7000045
:10C3200003280000F0B5074617480E4600683B2179
:10C3300049014018007D85B01D461446C00706D04F
:10C3400003A9384605F06AFF00280AD102E0472019
:10C3500005B0F0BD04AA3046039905F0C3FF0028DC
:10C3600001D06020F4E70499228860880968002AD7
:10C3700000D0088C32466E4631C603233946002071
:10C3800000F0B2FEE4E7000084530020F0B587B06F
:10C390000C46054605F0E8FE00280DD104A9284604
:10C3A00005F03CFF002806D106AA2046049905F0B6
:10C3B00099FF002802D0602007B0F0BD069C164807
:10C3C0002189814203D12321095D012901D0422025
:10C3D000F2E7049DA18B2668203501910498A78B74
:10C3E0002146203005F0E6FE04982146183005F07D
:10C3F000A7FE3446218908483668814203D12320AC
:10C40000005D012801D0AC42E8D13A4600200199F4
:10C4100005F0E0FE0020CFE703280000FEB505464A
:10C420002748284900680024461805F09DFE00288A
:10C4300008D1012D07D06946284605F0EFFE0028F7
:10C4400003D06020FEBD6220FEBD009D288D0190BE
:10C45000AF6918350BE000983946183005F0AAFE90
:10C460003946304605F06CFE641C2F68E4B2AF42DA
:10C47000F1D1009D2F6A20350BE00098394620301D
:10C4800005F098FE3946304605F05AFE641C2F68C8
:10C49000E4B2AF42F1D130460830009905F08AFE8F
:10C4A00030461030009905F04BFE641C0199E0B253
:10C4B000081882B2002005F08DFE0020FEBD0000AD
:10C4C000845300202C0700007CB50C46054605F07F
:10C4D0004BFE00280DD16946284605F09FFE002836
:10C4E00006D101AA2046009905F0FCFE002801D0E3
:10C4F00060207CBD01990D4A0889904203D1232018
:10C50000405C012801D042207CBD00988C8B2030FB
:10C5100005F050FE00980199183005F011FE2246F2
:10C520001146002005F056FE00207CBD02280000C8
:10C5300070B50646462505F091FF04001CD0208A00
:10C54000800519D420223146002005F0CBFC0600DE
:10C5500011D001460025204605F08CFFA12120695D
:10C560008901084320610548A0610320A07330467B
:10C5700005F096FF00E06425284670BDE916061018
:10C580000EB50023009301930293012305F09EFF53
:10C590000EBD3EB50B46048841888288C588007A66
:10C5A0000293019000950223204605F08FFF3EBDC7
:10C5B000F0B587B015460E4607461C781022991C28
:10C5C00003A8FBF7DFFB002003A9019102900823D9
:10C5D0002A4600943146384605F078FF07B0F0BD92
:10C5E000F0B587B015460E4607461C781022991CF8
:10C5F00003A8FBF7C7FB002003A9019102900423C5
:10C600002A4600943146384605F060FF07B0F0BD79
:10C610003EB514885288002501930092029510239C
:10C62000224605F053FF3EBD0EB500220092019256
:10C630002023029205F04AFF0EBD000070B586B0BF
:10C640000646462505F00AFF040025D02022314683
:10C65000002005F047FC06001DD00520C0026946F9
:10C6600008800120024604900D4B3146204605F01B
:10C67000ABFF050004D00021304605F0E1FF0BE0E0
:10C68000012120694903084320610648A061304622
:10C6900005F006FF00E06425284606B070BD0000E6
:10C6A000FFFF0000D72C0610F3B58BB00D7846269F
:10C6B000102206A8891CFBF765FB012D04D0022D72
:10C6C00004D042200DB0F0BD022700E010270B98E7
:10C6D00005F0C4FE040030D0202200200B9905F0A4
:10C6E00001FC0490002827D0052106A8C90200916A
:10C6F0000190134B012202972046049905F0BEFFDA
:10C70000060004D00021049805F09AFF15E0A06807
:10C71000012D0FD0102206A9F9F782FC2571012105
:10C7200020694903084320610648A061049805F088
:10C73000B7FE02E00222EEE764263046C2E70000C0
:10C74000FFFF0000FF2C0610F7B586B0174606461F
:10C75000462505F083FE040025D020223146002026
:10C7600005F0C0FB06001DD0104869460880012076
:10C7700004903B4631462046079A05F0C2FF05006B
:10C7800004D00021304605F05BFF0CE0A7810121B9
:10C7900020694903084320610548A061304605F03F
:10C7A0007FFE00E06425284609B0F0BD02280000A5
:10C7B000092D0610F7B586B017460646462505F042
:10C7C0004DFE040025D020223146002005F08AFBD2
:10C7D00006001DD0104869460880012004903B46A1
:10C7E00031462046079A05F08CFF050004D0002151
:10C7F000304605F025FF0CE0A7810121206949039F
:10C80000084320610548A061304605F049FE00E07C
:10C810006425284609B0F0BD03280000EB2C061063
:10C82000FFB589B0074646261D781022991C05A839
:10C83000FBF7A8FA012D04D0022D02D042200DB042
:10C84000F0BD384605F00AFE040037D020223946F4
:10C85000002005F047FB07002FD0194869460880E3
:10C8600001200490394620460B9B0A9A05F049FFA7
:10C87000060004D00021384605F0E2FE1EE00B98C9
:10C88000A081A068012D0FD0102205A9F9F7C8FBDF
:10C890002571012120694903084320610948A061ED
:10C8A000384605F0FDFD09E010220749F9F7B8FB0D
:10C8B000A068022205A90C30E8E764263046BEE7EE
:10C8C00003280000E12C0610602C0610F7B517466F
:10C8D0000646462505F0C2FD040022D0202231463E
:10C8E000002005F0FFFA06001AD001983B46401CD4
:10C8F00082B23146204605F03FFF050004D00021FA
:10C90000304605F09DFE0CE0A78101212069490316
:10C91000084320610448A061304605F0C1FD00E0F5
:10C9200064252846FEBD0000F52C061010B505F064
:10C930004BFF10BDFFB589B0074646251E78102273
:10C94000991C05A8FBF71EFA012E04D0022E02D076
:10C9500042200DB0F0BD384605F080FD040024D023
:10C9600020223946002005F0BDFA07001CD005AD95
:10C9700004960FCD6D460FC5394620460B9B0A9A8B
:10C9800005F0BFFE050004D00021384605F058FE32
:10C990000BE0012120694903084320610448A0619C
:10C9A000384605F07DFD00E064252846D1E700000B
:10C9B0001D2D061010B505F033FF10BDF7B50F465D
:10C9C0000646462505F04AFD04001FD020223146C8
:10C9D000002005F087FA060017D001463B462046A6
:10C9E000029A05F053FF050004D00021304605F0FF
:10C9F00027FE0BE001212069490308432061044818
:10CA0000A061304605F04CFD00E064252846FEBDDF
:10CA1000312D061010B51C461346224605F062FF64
:10CA200010BD38B5148852880092224605F08AFF5E
:10CA300038BD0000FFB583B010880290314846250C
:10CA40000168252080010818008B5688002856D1DF
:10CA5000039805F003FD040051D020220020039923
:10CA600005F040FA070049D02648252200689201C7
:10CA7000039982181183092109024018C06D3246BA
:10CA80000699F9F7CDFA6088401F80B2B04200D312
:10CA9000304606990091019039462046029B049A3F
:10CAA00005F0BAFF050004D00021384605F0C8FDA6
:10CAB00025E014480168092000020818C06D606173
:10CAC000A068049905F0E1FFA0680299801C05F0B8
:10CAD000DCFFA0683146001D05F0D7FFA0680021EB
:10CAE000801D05F0D2FF0120216940030143064863
:10CAF0002161A061384605F0D3FC00E0642528469A
:10CB000007B0F0BD84530020452D061038B51488B9
:10CB100052880092224605F015FF38BD10B505F089
:10CB20007FFE10BD10B51C461346224605F0DAFE06
:10CB300010BD10B505F048FE10BD0000FFB581B076
:10CB400015460646462405F0A5FF070025D00298A5
:10CB5000002803D07888C01EA84201D242241CE0DD
:10CB600011483B21006849014018007D000602D5AC
:10CB7000642005B0F0BDE81C81B2304605F0A8FF86
:10CB800006000CD0014600953846049B029A05F039
:10CB9000A7FF0446304605F083FC2046E9E76424FD
:10CBA000802005F0B7FFF8E784530020FFB581B07F
:10CBB00015460646462405F06DFF070026D0304690
:10CBC00005F0A2F8002821D03005000D05F0D4F9B9
:10CBD000C0071BD10298002803D078880F38A842DC
:10CBE00001D2422412E028460F3081B2304605F0CF
:10CBF0006FFF06000DD0014600953846049B029A4F
:10CC000005F094FF0446304605F04AFC204605B086
:10CC1000F0BD6424802005F07DFFF7E770B5054680
:10CC200005F038FF040019D0208AC00416D5202250
:10CC30002946002005F056F905000DD00146204692
:10CC400005F094FF284605F02BFC0121206909031B
:10CC500088432061002070BD642070BD462070BDF7
:10CC6000F0B56B4989B00A686A4906885718418847
:10CC70006A4611800179079141790491C188019137
:10CC800080680390304605F005FF04003ED038462A
:10CC90002430069005F071FF002830D12069800310
:10CCA0002DD506980068C046054626E0A8880005F0
:10CCB000000DB04220D1A8680223007B029003201F
:10CCC000059005226946284605F05EFF002813D12D
:10CCD0000298162801D105200590E9880598091ABF
:10CCE0000198814208D1059A03462846121D0399EE
:10CCF00005F04AFF00280AD02D68002DD6D138460D
:10CD00001830074605F039FF00283ED063E02022A6
:10CD10003146002005F0E6F8060011D00121206917
:10CD2000490488432061012707993F0600290AD05A
:10CD30006846028833460299049805F02AFF1BE0F2
:10CD4000642009B0F0BD38432061029832461228B1
:10CD50002946204602D005F02FFF01E005F0E8FF4C
:10CD6000002809D0692805D02069B84320613046E1
:10CD700005F096FB0020E4E72946069806F076F8D1
:10CD80000121284605F05CFCEEE72069400322D52E
:10CD900038460068C04605461BE0A8880005000D1F
:10CDA000B04215D1A868007B522801D0D2280FD1FB
:10CDB000022305226946284605F0E6FE002807D131
:10CDC00007222846019B039905F0DEFE002804D0C7
:10CDD0002D68002DE1D14120B3E70798002808D144
:10CDE000012120698906084320612946204606F072
:10CDF0005FF801212069890488432061294638466B
:10CE000006F034F80121284605F01AFCB2E70000CC
:10CE1000845300202C070000F7B5064636480F461D
:10CE20000068364982B04418304605F033FE0500EC
:10CE300060D020462430009005F09FFE002859D194
:10CE40002869000356D500980068C04604464FE0A4
:10CE5000A088B0424BD120223146002005F042F894
:10CE6000060018D0A068002F017B427B15D0334606
:10CE7000049805F08EFE002001222969D204914316
:10CE8000296100282AD0692802D0304605F008FB25
:10CE9000002005B0F0BD6420FBE70A2906D00C296C
:10CEA0000AD00E290ED0082912D023E0324621469E
:10CEB000284606F093F8DFE732462146284606F07A
:10CEC00022F9D9E732462146284606F0BDF9D3E7D4
:10CED00032462146284606F081FACDE721460098E1
:10CEE00005F0C4FF0121204605F0AAFBCDE7246828
:10CEF000002CADD14120CCE7845300202C0700004A
:10CF000038B50D461446694605F088F9002817D152
:10CF1000009B186A203311E0818BA9420DD1014694
:10CF20002031CA78012A06D10089064A904202D1EE
:10CF30004C71002038BD462038BD00689842EBD1C6
:10CF4000412038BD02290000F3B585B0028844882D
:10CF5000818801913C4FC68805893B213868490189
:10CF60004018007DC00767D001204002854215D8D7
:10CF70006946104605F052F9002862D102AA2046FF
:10CF8000009905F0AFF900285BD102992F480A8972
:10CF9000824203D12322525C012A02D0422007B0F0
:10CFA000F0BD09680C680099203148E0228982426E
:10CFB00003D12322125D012A43D0A38B019A93420D
:10CFC0003CD12046203003908178002903D1E08BAA
:10CFD000AA19904205D201292ED1208CA919884284
:10CFE0002AD3012001900398C07801280AD117495B
:10CFF0002089FF31884205D13868A030007B0027A6
:10D0000001900AE000273846A169684308182A46BB
:10D010000699F9F705F87F1CFFB201988742F2D311
:10D0200003988078012805D1002E02D0208CE0835F
:10D0300000E0E5830020B2E74720B0E724688C4297
:10D04000B4D16020ABE70000845300200328000027
:10D05000F0B5224B224C1B681E193B249C466401F0
:10D060001B191B7DDB0702D0B368083631E0622054
:10D07000F0BD1C8D84420BD12C20C05C012805D052
:10D0800010200880083313600020F0BD0220F8E76C
:10D09000844220D21D4620351C6A17E0A78B8742A8
:10D0A00011D123231B5D0120012B06D123890D4DB6
:10D0B000AB4202D16046A030007BE38B43430B8040
:10D0C000A0691060E0E7874205D82468AC42E5D14A
:10D0D0001B68B342CDD14120F0BD00008453002035
:10D0E0002C07000002290000FFB5002099B0239A08
:10D0F0000B90129005461490064615901C46DB488E
:10D100000B460068DA49229F4118039100210891DB
:10D1100009915188069111880A913B2149014018D3
:10D12000007DC00706D00FA9184605F077F8002843
:10D130000AD102E047201DB0F0BD10AA0F991B983C
:10D1400005F0D0F8002801D06020F4E719980028F5
:10D1500003D0600701D5012000E000201390A00754
:10D16000800F1C90109817902030C078012840D173
:10D170001798C04B01899942F9D11798069904680C
:10D180000A98228C4118914233D8204620301690BC
:10D190008078012816D0E08B049017988069007879
:10D1A0008006800F7ED0039840301890007A800768
:10D1B00078D51C980028F5D0AE4F0F99FF37203155
:10D1C000206814E0BA4214D3B942DDD80497E4E7EA
:10D1D0000389A84A934203D12322125C012A08D072
:10D1E000BB4203D12322125C012A03D0006888428B
:10D1F000EED134E105900028FBD09C48092102685B
:10D2000009025118496B0027009162E078010099EA
:10D210000390085A01055AD01999002901D0884273
:10D2200055D105997A008B69511C595C9A5C0902A9
:10D23000891889B20D91890749D00222059906F013
:10D2400037FA002804D01998002840D0652072E7EA
:10D25000002008A9C8551C98C00718D017988069E5
:10D260000078C00613D50D98C00710D00120C8550E
:10D270000543009A039880184088159A904206D971
:10D280001590009A0398105A0005000D14901C98F0
:10D2900080071CD5179880690078800617D50D98EF
:10D2A000800700E083E012D50220CA5D05430243F7
:10D2B000CA5500990398401840881599884206D9A4
:10D2C000159000990398085A0005000D14907F1CD2
:10D2D000FFB266480068A030037BBB4296D8002DA1
:10D2E00065D01898007A00065FD46048016809206C
:10D2F00000020818416B00201BE042018E5A3605DF
:10D3000015D0AE070BD556183669B7070DD408AF40
:10D310003F5CBF0703D5360701D546200BE7EE0774
:10D3200005D05218127CD20701D0432003E7401CDD
:10D33000C0B28342E1D81598C01E86B204988642D6
:10D3400000D90646A8070FD520220020149904F022
:10D35000C9FD129000287DD0F01C82B200211298E5
:10D3600006F0CEF9002811D1E80720D020220020B5
:10D37000149904F0B7FD0B90002807D0F01C82B27E
:10D3800000210B9806F0BCF9002810D0802004F092
:10D39000DFFE1298002802D0002105F051F90B9809
:10D3A000002802D0002105F04BF96420C3E6A169F2
:10D3B0000A98069A08182499F8F732FE1698807889
:10D3C000012801D10498E083002D46D0274B092085
:10D3D000196800020818416B002008AA0CE04301FC
:10D3E000CF5A3F0506D05F18BC463B69175C3B43EC
:10D3F00067463B61401CC0B21C4B1B68A0331B7BC3
:10D400008342ECD8A8070DD512980090F01C82B288
:10D4100021461C310220A36906F079F902201299F5
:10D4200006F094F9E80718D00B980090F61C2146F6
:10D43000B2B21C310120A36906F069F913980028E3
:10D4400005D00B988021C07C08430B99C87401203B
:10D450000B9900E005E006F079F900206BE6422028
:10D4600069E6802004F074FE9FE7000084530020EA
:10D470002C0700000328000038B50D461446694605
:10D4800004F0CCFE002834D10099086A20312EE047
:10D49000828BAA422AD101462031CA78012A20D1A2
:10D4A0000089154A90421AD0521C904217D0134A54
:10D4B000904214D0521E904211D0104AA132904294
:10D4C0000DD00E4AC432904209D00D4A904206D087
:10D4D000521C904203D029221202904201D14620D0
:10D4E00038BD2007000F0871002038BD0068884251
:10D4F000CED1412038BD000004290000052A0000DB
:10D5000002280000FEB50488418801918688C788FA
:10D5100000890090204606F03FF9050066D0E878C3
:10D52000002863D0A8780007400F01D046255EE0B0
:10D5300020222146002004F0D5FC040048D00199A7
:10D540002C48891F81424BD8B11F814248D801988D
:10D55000B04245D8FF20F530874241D20099781C6F
:10D560007043890088423BD822490098091F0A3835
:10D57000884235D8A06812210173A068E978417308
:10D58000A06808218173A0680021C173A068019977
:10D5900001740199A068090A4174A068310A86746F
:10D5A000A068C174A068390A0775A0684175A068B1
:10D5B000009981750099A068090AC1750C20E08066
:10D5C0002146052006F002F9002803D0412508E095
:10D5D00064250CE0A87806210843A870002506E021
:10D5E00042250021204605F02BF800E04225284680
:10D5F000FEBD00007A0C000010B5002444800480B9
:10D6000081808260037310BD418802888A4201D301
:10D61000501A02E08088401A801880B270470021BA
:10D62000418001807047F2B50400207B51496D466E
:10D630002D882D186D1840188543ADB266883000CE
:10D640002788B74201D3381A02E0A688301AC019D9
:10D65000A8420EDB100069460A88A168C918F8F7CD
:10D66000DFFC60884019A188FAF704FC6180002083
:10D67000F2BD0120F2BD80B54388FFF7D4FF02BDA3
:10D68000F2B582B004000025207B3A4B0E18F61844
:10D69000C1188E43B6B2411C401E8143C9B20091ED
:10D6A000A088019063881900278838009F4201D321
:10D6B000411A02E0019B591A09188919009BC918DF
:10D6C000019B994219DA1700022202A9A3681818CF
:10D6D000F8F7A6FC684602893900A0682388009FF5
:10D6E000DB19C018F8F79CFC2088801900994018B5
:10D6F000A188FAF7BFFB218000E001252800FEBDCC
:10D7000010B50400227B1B4B8818C018D118884321
:10D7100080B2628811002388934201D35A1A02E032
:10D72000A288521AD218824206DB0818A188FAF79A
:10D73000A1FB6180002010BD012010BD70B5037BEE
:10D740000C4CC91809191B19994345882B000688E8
:10D75000AE4201D3F41A02E08588ED1AAC1989B201
:10D760008C4204DB8068C0181060002070BD01206E
:10D7700070BD0000FFFF000070B505000E00140032
:10D7800032000221FFF777FF010008D131886B8852
:10D79000002B00D1AB8822002800FFF744FF70BDAA
:10D7A00038B50C0015000221FFF7C8FF010002D1B7
:10D7B00029680988218032BD1CB504006A4602210F
:10D7C000FFF759FF010004D1684601882000FFF7E8
:10D7D00097FF16BD6E490028086803D00122024356
:10D7E0000A6070470122904308607047F0B504005A
:10D7F00021680125674E68487269D2082A4001D124
:10D80000090100E0C900FAF738FBC10931810904B8
:10D81000490A401A401C400881B23F2902DD3F38C6
:10D820008006800E307360209F21327C0A4023796D
:10D830005B01034013433374327811406279520123
:10D840001040084330700821F720327C0240A37951
:10D85000DB0008271F401743377432781040A27945
:10D86000D200114001433170E179002907D1FD2038
:10D87000317C014031743178084030701CE0022066
:10D880000229317C0BD101433174FB21327C0A40E7
:10D890003274327810433070307801400BE001432D
:10D8A00031740421327C04231343337432781043DF
:10D8B0003070307801433170706938490140207A06
:10D8C0002840400208437061706935490140207A60
:10D8D00040082840000208437061706931490140E6
:10D8E000607A284080030843706170692E490140C6
:10D8F000607A40080540E803084370611020EF217A
:10D90000327C0A40A37A1B010340134333743278FC
:10D910001140A27A1201104008433070F0BDE1219D
:10D920004902016003210171417100228271C271BB
:10D9300001724272827270471C4A0029118802D01B
:10D940000843108070478143118070471848008851
:10D95000C0B2704701001748002901D5006800E0F7
:10D96000808A02E00100144800880140080000D0CD
:10D970000120C0B27047114908807047104A012940
:10D98000117802D1084310707047814311707047BD
:10D99000300030401C0030400000127AFFFDFFFFD5
:10D9A000FFFEFFFFFFBFFFFFFF7FFFFF380030409C
:10D9B00000003040040030403C0030404400304023
:10D9C00048003040F0B5047922000021534B002C70
:10D9D00004D11C680568AC431C6006E0062C04D129
:10D9E00000221C68056825431D600568CD40ED07D1
:10D9F00038D5082909DA8D009E6A0F27AF40BE434B
:10DA00001700AF4037439F622CE00D00083D082D02
:10DA10000BD20D00083DAD00DE6A0F27AF40BE43BC
:10DA20001700AF403743DF621CE00D00103D082DAA
:10DA30000BD20D00103DAD001E6B0F27AF40BE4353
:10DA40001700AF4037431F630CE018290ADB0D00B5
:10DA5000183DAD009E8E0F27AF40BE431700AF406C
:10DA600037439F86491C1A29BFDB01684279012A86
:10DA70009A6802D11143996001E08A439A60016873
:10DA800080790128586802D101435960F0BD88436C
:10DA90005860F0BD002101600171817141717047D2
:10DAA0008021C90534E01E49086070471D4908609F
:10DAB000704702681C494368012B0B6802D11A4366
:10DAC0000A6001E093430B6082680368012A03D176
:10DAD0008A6813438B6004E0002A07D18A689A435E
:10DAE0008A604A68006882434A6070474868034316
:10DAF0004B6070470D4A0029116802D0084310603E
:10DB000070478143116070470949086070470949AF
:10DB10000968084000D00120C0B2704704000040EE
:10DB20003C00004040000040100000401C0000404D
:10DB30002800004024000040F0B502781F23012493
:10DB40008178002921D0417852B2D50018262E4084
:10DB5000FF27B740FD438907090EB140160004D5E1
:10DB6000194A3607360F083E00E0184AB608B600D4
:10DB700092191668354029431160007803409C4093
:10DB80001349400980000C50F0BD13409C401148DF
:10DB9000510989004450F0BD0F490028086803D09E
:10DBA000042202430A6070470422904308607047D1
:10DBB0000A490028086803D0012202430A6070471E
:10DBC00001229043086070471CED00E000E400E093
:10DBD00000E100E080E100E010ED00E010E000E096
:10DBE00080B50121802005F017FEC848FDF73EF8FA
:10DBF000FDF73FF801BD000030B593B001210120D1
:10DC000005F00AFE01A8FFF745FF902000010190F2
:10DC1000012401A80471002585714571FFF7D2FE2A
:10DC20002DA00068049004A8FFF786FF2BA00068D1
:10DC3000039003A8FFF780FF0121082005F0ECFD09
:10DC400005A8FFF76CFEE12040020590032005A91E
:10DC500008714871CD804D7208728D7205A8FFF76A
:10DC6000C5FD1025AA48017810220A430270017EE2
:10DC7000C7220A40027601211020FFF75DFE012035
:10DC8000FFF7A8FD0121080405F0C6FD08A805F06E
:10DC900048FE0A9580200D909E48089060031190E0
:10DCA0009D4D08A9280005F021FE0122022128002F
:10DCB00005F04FFE0021DC4805F040FE0121022066
:10DCC000FFF75CFE68461721017044708470FFF70F
:10DCD00033FF13B030BD0000040201000600010054
:10DCE00070B594B00121012005F096FD6846FFF75C
:10DCF000D1FE8A4800906D46042028716846FFF7DF
:10DD000061FE80240094062028716846FFF75AFEC1
:10DD10008020FFF7CBFE11A82CA12CC92CC011A884
:10DD2000FFF7C7FE26013000FFF7EEFE2AA00068CD
:10DD3000059005A8FFF700FF28A00068049004A83C
:10DD4000FFF7FAFE0121102005F066FD02A800F0A1
:10DD500099FA02A801250570C57000F06CFA00F070
:10DD6000B2FA00F0A8FA01213000FFF7C3FEFF204D
:10DD700000F09EFA012000F08FFA0121080405F05E
:10DD80004BFD06A805F0CDFD102008900B94BD4872
:10DD9000069060010F9006A9BB4805F0A7FD002082
:10DDA000089020200E9000020F90B84C06A9200089
:10DDB00005F09CFD0121200005F0C0FD012105209A
:10DDC00000F096FAC648057014B070BD0008000057
:10DDD0000000000000000000000201000600010039
:10DDE00078B59BB00121012005F016FD01A8FFF7D1
:10DDF00051FE902000010190012401A8047100252A
:10DE000085714571FFF7DEFD4020FFF74CFE00BF36
:10DE100043A003C80BAA03C20BA8FFF7D3FD00BFA2
:10DE200041A003C809AA03C209A8FFF7CBFD00BFA0
:10DE30003FA00068059005A8FFF77EFE0DA800BF73
:10DE40003CA14CC94CC00DA8FFF733FE3CA00068B4
:10DE5000049004A8FFF770FE012000F075F800BFE1
:10DE600038A00068039003A8FFF766FE0121082090
:10DE700005F0D2FC06A8FFF752FDE1204002069013
:10DE8000032006A908714871CD80487208728D720E
:10DE900006A8FFF7ABFC10251D48017810220A43A5
:10DEA0000270017EC7220A40027601211020FFF78E
:10DEB00043FD0120FFF78EFC0121080405F0ACFCB6
:10DEC00010A805F02EFD1295802015901148109095
:10DED00060031990104D10A9280005F007FD0122DC
:10DEE0000221280005F035FD00214F4805F026FDF0
:10DEF00001210220FFF742FD68461721017044709E
:10DF00008470FFF719FE1CB070BD0000FD7F00009B
:10DF10001C003040000030401C0000A00D08000034
:10DF2000400000000600000000200000000000008B
:10DF300004020100002000000000000000000000BA
:10DF4000000201000600010010B58024A401002891
:10DF500004D02000FFF7D8FD012100E000212000BF
:10DF6000FFF7C8FD10BDE0B56846FFF793FD8020C0
:10DF7000800100900120694608710020FFF7E4FF4E
:10DF80006846FFF71FFD07BD10B503680124A343D2
:10DF90000360C1604260016801220A430260002000
:10DFA00010BDF8B5802424012000FFF7B0FD012842
:10DFB00039D17A4D7A4E3068204002D030682840FE
:10DFC00030602000FFF7A0FD454F3878B168214050
:10DFD000B16817D00D40B560042824DB8020FFF71E
:10DFE00065FD00206F490860FFF7E2FD08203870EA
:10DFF0002648406880B26C490988081A80B2F9F74F
:10E00000E9FBF1BD0C43B460042801D1052009E00F
:10E01000022801D0012806D100F055F9FF2000F0B8
:10E0200047F903203870F1BD080000A07FB58024B7
:10E03000A4012000FFF76BFD012822D15B4D584E53
:10E040003068204002D03068284030602000FFF760
:10E050005BFDB0682040B0680AD00540B560402044
:10E06000FFF721FD57A003C802AA03C202A806E0D9
:10E070000443B46055A003C86A4603C26846FFF76C
:10E08000A1FC7FBD080040406C0000A0580000A02B
:10E090001CB5202005F066FC002820D0202005F0CB
:10E0A00069FC0020424908704248016801229143FE
:10E0B0000160414C2000FFF77FFB2000FFF7A4FA2E
:10E0C00000280CD001AA69462000FFF769FB002850
:10E0D00005D1684601880198001DF9F7A9F913BD1B
:10E0E000E2480020F8B584B0202005F03BFC002871
:10E0F00051D0202005F03EFC00242D490C702D4805
:10E1000001680122914301602C4F2D4D8020FFF7C3
:10E1100021FC002804D00820FFF71CFC012804D1B2
:10E120003868401C3860A842F0D94020FFF7BBFC9B
:10E1300028A003C802AA03C202A8FFF743FC0020DC
:10E14000FFF702FF8026B6013000FFF7A9FC002888
:10E15000FAD00120FFF7F8FE3868A8421AD2164D0F
:10E160002800FFF729FB2800FFF74EFA002811D0FE
:10E170003000FFF795FC01280CD101AA6946280060
:10E18000FFF70EFB002805D1684601880198001DA5
:10E19000F9F75CF93C6005B0F0BD0000FFF7FFFF48
:10E1A000100000400C49002004490020FFDFFFFF61
:10E1B000E14800201C0000A0F448002028000020B6
:10E1C000FFFF0F00400000000600000040000000BC
:10E1D0000100000000200000000000001070030A91
:10E1E00053701B0A93701B0AD37011710B0A537181
:10E1F0001B0A93711B0AD3717047000030B50100F0
:10E200000125022438484900F9F737FE002808D0D4
:10E210003649884205D201E064004008FF28FBD857
:10E22000451E384804740168374A0A402D06290CF7
:10E230001143016030BD10B504006068FFF7DEFFD8
:10E2400021783048426804239A43890019401143D9
:10E250004160A178026840239A4389011940114323
:10E260000160E178026880239A43C9011940114393
:10E270000160617802681F239A43C906C90E1143E1
:10E28000016010BD012101700721417000218170E2
:10E29000C1701E49416070471D490028086803D0BD
:10E2A000022202430A6070470222904308607047CE
:10E2B000184908607047174800E00168017989082B
:10E2C000C907FAD470471548017802220A43027040
:10E2D00000E0C16810490978C907FAD50178FD2224
:10E2E0000A400270704700000024F40001FE0000A4
:10E2F0000B4A0029117802D00843107070478143FF
:10E300001170704700004040FF00FFFF40420F00C7
:10E3100004004040080040400C0040408000404065
:10E3200024004040C37982791B021A4343791204C6
:10E3300001791B021943C378114382781B021A43E7
:10E340004378120400781B021A4310437047000000
:10E35000FEB55E4AD688138900241278002A01D1BE
:10E360005A4F7C800190684641801900100000E0FF
:10E370000120564A5288FF231B1D9A426EDA220062
:10E38000641CD2B26B465B889A4267D2019A1278BB
:10E39000019B5B1C01934D4B5B886D462B806B464C
:10E3A0001B885B1C494D6B80494D6F463F88EA5581
:10E3B000030009D1012ADBD0022A01D10720D8E7C6
:10E3C000FF2AD6D10320D4E7012801D10220D0E7CB
:10E3D000022801D10620CCE7032801D10420C8E798
:10E3E000042802D111000520C3E7052805D189B210
:10E3F000100209180026080404E0062804D11100C0
:10E400000026080016D11EE0072801D10820B0E739
:10E41000082801D10920ACE7092801D10A20A8E782
:10E420000A2809D1E9782A791206120C114300262C
:10E43000080008D00B209CE70B289AD1761CB2B2BA
:10E440008BB29A4295D3214D002028702981EE800D
:10E4500000F009F8EE88298928788AE71B4A11819B
:10E46000D6801070FEBD38B5184C194801780129C6
:10E4700025D002290ED0FF2927D122000C32618835
:10E4800005F088FA0100A180012220000C30F9F784
:10E490009DF931BD8478411D009101790902C2784E
:10E4A00089188BB2A209A106890F2402F0252D013B
:10E4B00025404078281880B205F09AFA31BD61886D
:10E4C000491E89B2401CF9F75DF931BD204F00208B
:10E4D0003C51002038B5C0B0449D6C4602232370E7
:10E4E00060700005000F0901014390010843A0700E
:10E4F000022240A9E01CF7F793FD40A802882900FA
:10E50000601DF7F78DFD0022D24340A80188491D08
:10E5100089B26846F9F73EF9002041B030BD0000ED
:10E52000F8B507461F48092605687B2000012C180E
:10E530002846363036023F0584463F0DAE19237D0E
:10E5400008200022A0350097B6462D7B0EE0DE079E
:10E5500009D07646366B58275743F6197689009FBF
:10E56000B74200D110465B08521CD2B29542EED899
:10E570002034A27E1207120F824202D1CB0700D1B3
:10E580000820824207D062461278130707D4520748
:10E59000520F824203D1C90700D10820F8BD890774
:10E5A000FBD5F8BD84530020F8B5064625480F4634
:10E5B0000068412149014418092109024018016BF2
:10E5C000582070430D18304600F040F8002816D04F
:10E5D0002046CF30CC3472B602780121B140082AEF
:10E5E00002D36A7992070ED06879800726D415483D
:10E5F00000682030C27D0A43C2753A201FE02046E1
:10E60000CE30CA34E7E77A060F4B5208D2186B6B4C
:10E610001A603A0601D4132200E012226B791343E8
:10E620006B710670288B2080403506486F75006836
:10E630002030C27D8A43C275002000E00C2062B603
:10E64000F8BD000084530020030202000B497B2226
:10E65000096812018A182032927E36311207120F91
:10E66000824206D009780A0705D44907490F81423A
:10E6700001D1012070470020704700008453002022
:10E68000F0B54488491CA4B2E5B2A40809B21C80C4
:10E690008EB287883619BE4204D9A6B2891B6D1C7A
:10E6A00009B2EDB2A4002418083414601C88AD0728
:10E6B0006418A400AD0F2C43A4B21C800388E31A95
:10E6C0009C07A40F012C02D803D1002B01DD0023ED
:10E6D0000AE00123002907DA11688C78A408A40055
:10E6E000641C8C70083010601846F0BDF3B581B022
:10E6F0001322D201012101A805F0E4F9914C042272
:10E700002060432101A805F0DDF901252168ED0213
:10E71000491988600422432101A805F0D3F9216832
:10E7200004224919C860FF21843101A805F0CAF903
:10E7300021680C224919844D0861A97F01A80B3179
:10E7400005F0C0F909262168360289194865A97FB4
:10E75000202201A805F0B6F9216810228919486421
:10E76000A97F01A805F0AEF92168282289198864DB
:10E77000052101A805F0A6F921683022891908654C
:10E78000052101A805F09EF92168FF228919C864B6
:10E790000132012101A805F095F921685822891953
:10E7A000C865A97F01A805F08DF921682022891983
:10E7B0000863A97F01A805F085F9216889194863D4
:10E7C000AA8B012101A805F07DF90F272168FF011F
:10E7D000C9190860298B282201A805F073F90721BF
:10E7E0002268090251188867698B302201A805F058
:10E7F00069F90721226809025118C8670C22012112
:10E8000001A805F05FF921680C228919C86201216D
:10E8100001A805F057F9216828228919C96A88607A
:10E82000284620300090417801A805F04BF9216876
:10E8300004228919C96A896888600098417801A80A
:10E84000491C05F03FF9216810228919C96A8968B5
:10E850004860A97F01A805F035F921680222C9198D
:10E86000C867A97F01A805F02DF921680222C919FE
:10E870004865A97F01A805F025F921680222C91978
:10E880008865A97F01A805F01DF921680222C91930
:10E89000C865A97F01A805F015F921680122C919E9
:10E8A0000866A97F01A8491C05F00CF9216810220F
:10E8B000C91988670B2101A805F004F9072122680E
:10E8C0000902511888610422802101A805F0FAF894
:10E8D000216889198863029ADC204243012101A83A
:10E8E000443205F0EFF821688919C863029AD820EC
:10E8F0004243012101A82C3205F0E4F82168F022FE
:10E9000089190864012101A805F0DCF80F4C7C226C
:10E910002060A97F01A805F0D5F821680822C86702
:10E92000032101A805F0CEF8216828228031086073
:10E93000012101A805F0C6F82168803148600198DE
:10E94000FEBD000084530020405200208853002068
:10E95000F0B527480921036809025C18606D11228F
:10E96000D20105469A180C35556410640C3595642F
:10E970000C35D5640C3515650C3555650C3595652C
:10E980000246543262600C32A2600C32E26078308F
:10E9900020610020174A5C1811E0636C45015E1984
:10E9A000582343431D46276B3433FE500C23434307
:10E9B000666D8433F3182835266B401C7351937FA2
:10E9C0008342EAD80A4B00201C68641807E0A56C53
:10E9D0000601AE1945010835676B401C7E51957FD5
:10E9E0008542F4D8D0681A6851180866F0BD000056
:10E9F0008453002040520020C0200006016880227D
:10EA00000A43026001688022914301607047C02080
:10EA10000006016801220A43026001680122914355
:10EA200001607047C020000600688107C80F70476A
:10EA300039480078002801D0012070473748006825
:10EA4000002800D00120C0B2704710B50B00521E44
:10EA5000815C9C5C091B01D1002AF8D1080010BD23
:10EA60000000000070B50E002B4D2C7801281AD143
:10EA7000202200BF35A13000FFF7E7FF002801D4B6
:10EA800004201BE0FB2020402870254800210022A4
:10EA90009300F458C3181C60521C082AF8DB20307D
:10EAA0000160002070BD00BF20A102280FD12022EC
:10EAB0003000FFF7CAFF002804D40120204328704B
:10EAC000012070BDFE20204028701648DEE7032894
:10EAD000F6D120223000FFF7B8FF002801D4022031
:10EAE000ECE7FD20204028700F48CFE7012808D12F
:10EAF0000B480022835C8B54521C202AFADB002036
:10EB00007047022801D10748F3E7032801D10648DE
:10EB1000EFE7012070470000E4520020000400C02D
:10EB20006C0400C0900400C0B40400C0FFFFFFFFED
:10EB3000FFFFFFFFFFFFFFFF0000000000000000DD
:10EB40000000000001000000FFFFFFFF512563FCF3
:10EB5000C2CAB9F3849E17A7ADFAE6BCFFFFFFFF58
:10EB6000FFFFFFFF00000000FFFFFFFF3EB5174D56
:10EB700015482968827F0846A0310A730024603056
:10EB8000047644768476E122C276802202770222DD
:10EB90004277302008704C7002AA01A96846F7F746
:10EBA000E9F968460078A22201016846007A891CCA
:10EBB00000020143684600790003014328681152AE
:10EBC000A03004713EBD000040520020845300205C
:10EBD00070B504F083FF04F09BFF05F05FF805F0CB
:10EBE00091F805F09FF8184C18492068184D401806
:10EBF000811009202A68000210184167616889089D
:10EC00008167A1688908C16705F0B8F80F202968F5
:10EC1000C001228B08188281628BC281A28BC280C4
:10EC2000628C028122462032127882723B2252018B
:10EC300000208918087505F0BFF805F0C7F805F041
:10EC400003F905F00FF970BD405200200000FCEF01
:10EC50008453002070B52A4D284A28680021FF30CF
:10EC60001B30F7F7E3F92868FF21F2221154112233
:10EC700092018218117651769176224AF4210A5037
:10EC80002F235B01F822FF21C018F7F7CFF91E4BA5
:10EC900028687822FF21C018F7F7C8F91A4B2868AE
:10ECA000F8337822FF21C018F7F7C0F99D232868B0
:10ECB000DB007822FF21C018F7F7B8F9232628686F
:10ECC0007601002481190C722721490141180C7129
:10ECD0002B21490141180C70172189014018047734
:10ECE00000F0FAFD296801230A46803290678819EE
:10ECF0000471E0314B74D467847170BD3903000036
:10ED000084530020905F01006C040000F8B52C4F84
:10ED10003C68206E5C34401C002814D00025294833
:10ED20000023C07B00283ED00926F6062648002D89
:10ED30001CD000210A460B464169521C994204D15D
:10ED4000002902D004E00125E9E7204B9A42F2D3E2
:10ED50002160006960603069A1680002090E000A44
:10ED600009060143A16005F0A3F81DE03169A2681E
:10ED70000902090A150E08D0018BC90712D0416992
:10ED8000216000696060E37210E0881A00027D2350
:10ED900000121B03984205DD100E00060843A06018
:10EDA00005F086F8F8BD6360002DFBD003CC05F0BC
:10EDB0008DF8FA2005F0CEF839688862F8BD0000B9
:10EDC0008453002060520020000010488813000087
:10EDD00041060322C90F120251438006044A400F24
:10EDE000504308182321C901401A0004000E70473F
:10EDF00049030000FFB507468DB00020089007903A
:10EE000078481E460168412040010C18232040012B
:10EE1000081847711546C271002B01D000210171FD
:10EE20000E9800287ED0F9F711FA00287AD0002E2B
:10EE300003D020342079012874D0FF24002E07D07D
:10EE4000022D02D0032D02D002E0002500E00125B2
:10EE500064486549006840180B90022F01D0032FC9
:10EE60006AD1684605700622401C0E99F7F7D8F85B
:10EE70006946002002F068FCFF2803D00B99C2000D
:10EE80005118CC7911239B015649002E14D00968E2
:10EE9000CA189476232300225B01C9180A71FF283F
:10EEA0004AD0372044434F48FF2100682F312018B3
:10EEB000095C002904D015E00A68D1188C75EEE7CA
:10EEC0000146FF31FF3047311F30F7F7FBF9454866
:10EED000062200682118FF3105A84831F7F7A0F88D
:10EEE000012007903F49FF2208684E322018125C2B
:10EEF000002A1CD10146FF31FF3040313030F7F796
:10EF0000E1F93848062200682118FF3103A8413191
:10EF1000F7F786F801200890002E08D0314801212B
:10EF2000026800E017E023204001101801710798E3
:10EF3000002801D0002E0AD0324629460E9805F04E
:10EF400019F80898002806D0012103A815E03246D8
:10EF5000012105A8F3E7002F06D0012F1AD0022FB8
:10EF600002D0032F07D115E01E480622016868462B
:10EF70007831F7F755F80021684605F017F80124B5
:10EF8000A402002F10D0012F16D0022F0CD0032F77
:10EF900024D111E013480622016814480918684674
:10EFA000F7F73EF80121E7E70E480068816F041982
:10EFB00009027B30E1650CE00A4805680B48281817
:10EFC000F7F784FD00022C19401CE0650748C01CBF
:10EFD0002818F7F77BFD0002000A2066002011B018
:10EFE000F0BD0000845300206C040000EF06000018
:10EFF00010B50B48002103687B2000011818027D22
:10F000000820A0331B7B05E0D40700D10846520836
:10F01000491CC9B28B4201D90828F5D010BD0000A7
:10F0200084530020FEB5204841210068490147185B
:10F03000694601A804F0CCFFBE6B7D6BFC6B3B6C9A
:10F0400072B6002001AA811C175C6F54175C7754BC
:10F05000175C6754175C401C5F540628F3DB694655
:10F0600009782A78BF20C9070240490E0A432A704E
:10F07000694609783278C9070240490E0A4332705E
:10F08000694609782278C9070240490E0A4322706E
:10F090001A78694602400878C007400E02431A7089
:10F0A00062B60020FEBD00008453002030B5314818
:10F0B0004121006849014018416B037E0A781B0713
:10F0C000920992011B0F1A430A70C16B037E0A78E2
:10F0D0001B07920992011B0F1A430A70816B0A7871
:10F0E00092099201121D0A70016C0A78920992012C
:10F0F000121D0A700021024620320BE0836A456B24
:10F100005C5C0B460833EC54846AC56B645C491C38
:10F11000EC5489B2137B8B4201D91F29EED3017EB7
:10F12000012907D0D9B2426B891D5170416B08315A
:10F13000816230BD0346C26B10330832816882623F
:10F14000446B0C22627000221546446B08356155F1
:10F150001970090A5B1C032A00D1C168521CD2B283
:10F16000062AF1D3406B02785206520EC9010A43B7
:10F17000027030BD84530020FFB5294E074689B088
:10F180007B21306809014518264905AB07AA06A866
:10F190006C4607910FC40CAB0BAA0121384604F052
:10F1A0002DFF0090002838D10C98686069466A6A83
:10F1B000898A78001152AA6A07991152EA6A0021D5
:10F1C000115269462A6B098B1152092032680002DC
:10F1D00012183C465823126B5C430021631DD15426
:10F1E00032680A991218126BA31CD154326800219C
:10F1F0001218126BC9430833D1523268002110181B
:10F20000006B0F34015572B6297D0120B8400843C8
:10F21000287562B6084605F021F800980DB0F0BDDB
:10F220008453002070170000F8B51B4E3188044647
:10F2300009070820090F0443A1422BD1174D0021D3
:10F2400028688163B11440180921C906006F096953
:10F25000471A642004F07EFE717AC90040182968BC
:10F26000896A4018381A00020121000AC90588423B
:10F2700002D2002005F05AF809492868328812079E
:10F28000120FA24206D1826B8A4203D2826B521CB9
:10F290008263F3E7F8BD0000C00000208453002023
:10F2A000007102000021012802D0002800D047216F
:10F2B0000846704730B50B4695B0154601466A467C
:10F2C0001846FCF795FA040005D107A91022284634
:10F2D0000231F6F7A5FE204615B030BD0EB507A1E8
:10F2E00009680191002103460548029100910068D8
:10F2F00002AA01A9903005F05FFB0EBD01000000DD
:10F3000084530020F8B5204C05462068E030007C8E
:10F31000012803D105F064FB01282CD020680027C8
:10F32000E03047742946384602F00EFA0646216856
:10F33000C000164A40188018C0793722504345183B
:10F34000FF351B35FF2E18D0352047556978012031
:10F3500002F03CFA3146002002F038FAE878FF2843
:10F3600007D02168C00040182F21490140187F2193
:10F37000C171002002E00C20F8BD022021680122AA
:10F38000E0314A74F8BD0000845300206C04000092
:10F39000F0B58DB00026554D0446069607960896A2
:10F3A00009962868E030007C012803D105F018FB9D
:10F3B000012811D029680020E0314874E01D0B9429
:10F3C00004901734059400200B9902F0C5F8064606
:10F3D000FF2804D0002003E00C200DB0F0BD072072
:10F3E0000A902868F100424A0918891803912F21D0
:10F3F000490140180C9070087F2857D005F0FEFA9C
:10F400000746F00903D07F1E7606FFB2760E37203E
:10F410002968784344180398FF34C77103201B34CC
:10F420000B9902F091F901460020FF22A070E270D2
:10F430002670FF2906D00122A270E170CA000C9943
:10F440005118CF7126460121203671750746B075D7
:10F45000102206A90498F6F7F3FD00280BD010221D
:10F46000201D0499F6F7DCFD21462C31201DF9F70B
:10F47000C5F8277501E001202075102206A905981E
:10F48000F6F7DEFD00280DD0204615301022059934
:10F490000290F6F7C5FD214625310298F9F7AEF83E
:10F4A000F77401E00120F074FF206070104E00241A
:10F4B000F836371F0EE0E100081881190022049881
:10F4C00000F014FA002803D12146022002F07EF950
:10F4D000641CE4B22868C1190978A142EBD82968F4
:10F4E0000120E03148740A9877E700008453002037
:10F4F0006C04000010B56421064C4843216880313B
:10F50000486700F0E9F92168803188670020C86702
:10F5100010BD00008453002010B5044605F060FAC9
:10F52000002801D00C2010BD02480068E0300474AF
:10F53000002010BD84530020F8B5144D06462868FD
:10F5400017460022E0304274104602F0FDF80446EF
:10F55000FF2811D02968E0000D4A40188018C079B2
:10F56000372250434118FF311B31012E0AD00622A9
:10F5700038462D31F6F754FD28680121E0304174FA
:10F580002046F8BD062238462631F3E78453002092
:10F590006C04000070B5274C002520680126E0307F
:10F5A0004574007C012803D105F01AFA01283CD0EB
:10F5B000214B20687822FF21C018F6F737FD1E4B3B
:10F5C0002068F8337822FF21C018F6F72FFD9D231D
:10F5D0002068DB007822FF21C018F6F727FD2321E1
:10F5E0002068490141180D722721490141180D7108
:10F5F0002B21490141180D70F4210D58FF300F4A9D
:10F6000000211B30F6F712FD2068FF210246E03290
:10F6100013469174112292018218117651769176D7
:10F62000803045675E74002070BD2068E03046740D
:10F630000C2070BD845300206C04000039030000CE
:10F6400038B51C4C05462068E030007C012803D109
:10F6500005F0C6F901280ED020680021E030417481
:10F660000122E91D6846F6F7DBFC684600780128B0
:10F6700003D9122038BD0C2038BD2946002002F0E5
:10F6800063F82168C2000C4B5218D218D279372384
:10F690005A435118FF311B31FF2805D068460078C6
:10F6A00020318875002000E0022021680122E0312D
:10F6B0004A7438BD845300206C04000010B502F079
:10F6C0002EF9044602F02BF90004201810BD0000AA
:10F6D000F0B4074611489D220068D2008018844685
:10F6E0000F261022002052088318DBB2B3420FD23B
:10F6F000DC006444256864682402A14203D8A14266
:10F7000006D1AF4204D31846AF4201D1A14202D084
:10F71000002AE8D1FF20F0BC70470000845300208D
:10F72000F3B506468DB0FF203E4C03903E4920685D
:10F7300047189D21C900401804903146022002F06C
:10F7400003F8FF284ED100200590232021684001B6
:10F750000918097A002935D9F879372148432168F1
:10F760000E9B45182846FF301F3084462F483179BC
:10F77000017071794170B17981700146FF3506AA37
:10F7800060461B35F9F7A2FC0322711C06A8F6F7A8
:10F7900057FC002829D0287D012806D107223946A8
:10F7A0003046F6F74DFC00281FD005980837401C5E
:10F7B000C0B205902320216840010818017A0598FD
:10F7C0008142C9D821680020E031487431460220C6
:10F7D00001F0C2FE22680121E0325174FF2801D0FD
:10F7E000FE20039003980FB0F0BD059803902168A8
:10F7F0000020E03148746978012001F0E7FF3146CC
:10F80000012001F0A9FE6870C2000498F97910186F
:10F81000C17121680120E03148740398FF28D1D0DC
:10F82000E0E70000845300206C040000CC5200206C
:10F83000F0B407461048114A00680F268018844625
:10F840001022002052088318DBB2B3420FD2DC0032
:10F850006444256864682402A14203D8A14206D109
:10F86000AF4204D31846AF4201D1A14202D0002AD0
:10F87000E8D1FF20F0BC7047845300206C040000E6
:10F88000F0B4144A2F2312685B01D21894461F2744
:10F89000202200245208A318DBB2BB4214D2DD00A0
:10F8A00065442E686D682D02A94203D8A9420BD188
:10F8B000B04209D31C46B04206D1A94204D1FF2B65
:10F8C00004D0F0BC01207047002AE3D1F0BC002036
:10F8D000704700008453002010B50920C00600695D
:10F8E0000002000A05F0A0F810BD000010B50C469B
:10F8F0000B790A4984B00B7063794B70A3798B70D4
:10F9000013466A46F9F7E2FB0322611C6846F6F7E4
:10F9100097FB002800D0012004B010BDCC5200207D
:10F92000FFB504230546C1061F4881B00C9E006840
:10F9300003D50C22BF210D400CE0372149014118AD
:10F940004A78920602D5C978490702D4002005B04A
:10F95000F0BD0A222907890E08180121C9024018A2
:10F9600040692946F8F702F9040019D0029820717D
:10F9700003986071271D0622A01D0499F6F750FB1D
:10F980000A9838723846062209300B99F6F748FB78
:10F99000FE7321462846F8F747F9002005B0F0BD70
:10F9A000072005B0F0BD00008453002010B5FFF71C
:10F9B000B3FD10BDF0B50F46B5B01546002130AA15
:10F9C0000F23445C5E1A491C94551029F9DB102260
:10F9D000694630A805F03AF80026B400E019401C4A
:10F9E000F7F774F8395D000208430321891B890089
:10F9F0002CAC761C6050042EEFDB214610236A46A7
:10FA0000084605F03FF800200326311A8900635CA0
:10FA10008200AB54635A52191B0A53706358401C3E
:10FA20001B0C93706158090ED1700428EDDB35B0C2
:10FA3000F0BD000018B40168184ACB6813608C68E8
:10FA4000012354604C6894600968D1604168144A8D
:10FA5000CC6814608C6854604C6894600968D1600C
:10FA600064216A4611700922D2066C462178491E2B
:10FA700021705169C90402D421780029F5D1227876
:10FA80002270084A8168D4680C6094684C6054689D
:10FA90008C601268CA60037318BC70471800004875
:10FAA0002800004838000048F0B5069E079D059CD8
:10FAB0000180144F091FB9421FD24280121FBA425F
:10FAC0001BD211499A1F83808A4216D2A21FC4807A
:10FAD0008A4212D29C4210D3FF21F43106818E4219
:10FAE0000BD809494581091F0A3D8D4205D2089965
:10FAF0008181099AC2818A4201D21220F0BD002080
:10FB0000F0BD0000FD3F00007B0C000038B5144B39
:10FB100014461D680246AE35AB7846205B071ED5FD
:10FB20002B795B06DB0E1AD1104602F07FFA002813
:10FB300015D10023207E6A46194605F0D5F8002825
:10FB40000DD168460078207601202074204600F010
:10FB5000E7FA002803D1297908221143297138BD19
:10FB60008453002070B5049E069D059C017102809F
:10FB7000438086714471002901D0012912D10B48BC
:10FB8000121F82420ED21B1F83420BD2002C05D0C3
:10FB9000012C03D0022C01D0032C03D1012D03D062
:10FBA000002D01D0422070BD002070BDFD3F00003F
:10FBB000F8B50E46144905460C684620AE34A178C7
:10FBC000490720D52179BB2211421CD110200143C5
:10FBD00021716979A87900236A4605F085F8002823
:10FBE0000DD168460078A871284600F093FC0028E3
:10FBF00005D13146012000F0B7FC002803D021795F
:10FC0000EF2211402171F8BD84530020F8B51E4643
:10FC1000184B15461C680246AE34A37846205B0795
:10FC200026D52379BB273B4222D1104602F0FEF9AC
:10FC300000281DD120792021084320716979A879F5
:10FC400000236A4605F050F800280DD16846007878
:10FC5000A871284600F05EFC002805D1314601203D
:10FC600000F082FC002803D02179DF2211402171AD
:10FC7000F8BD000084530020F8B50546002768460B
:10FC80000770154846260468AE3420798006800F38
:10FC900003D00021084600F067FCA078400718D583
:10FCA00020794C21084214D10023287E6A46194647
:10FCB00005F01AF800280DD16846007828762F74D0
:10FCC000284600F02DFA060003D120794021084390
:10FCD00020713046F8BD000084530020F0B5064680
:10FCE000089C124F1220059D2680BE4201D9022099
:10FCF000F0BD0F4E8F1F6180B742F9D2971FA280CF
:10FD0000B742F5D28A42F3D3FF21F431E3808B422C
:10FD1000EED82581311F0A3D8D42E9D206996181D5
:10FD2000079AA2818A42E3D30020F0BDFF0E0000B3
:10FD30007B0C000010B50649024609684620AE312A
:10FD40008978490702D5104600F03EFB10BD00003F
:10FD50008453002070B5044620484625066886B0C6
:10FD6000AE36012C0FD0022C0DD0042C0BD0082C59
:10FD700009D0102C07D0202C05D0402C03D0802C8B
:10FD800001D0422527E03079204224D0082C12D01F
:10FD9000402C10D00620012C03D0022C01D0802C46
:10FDA00004D169460873684605F08EF800210846BC
:10FDB00000F0DAFB01E000F0EBFA05000BD130793E
:10FDC0000021A0433071684604744174022104AAE2
:10FDD000084600F071FD284606B070BD845300202F
:10FDE000F0B5104C4625246885B0AE34A678760769
:10FDF00014D52679B3273E4210D105F091F80500BD
:10FE00000CD120790121084320710620694608732E
:10FE10000520C0020290684601F03EFF284605B06A
:10FE2000F0BD000084530020F0B5104C4625246836
:10FE300085B0AE34A678760714D52679B3273E422E
:10FE400010D105F06DF805000CD12079022108438E
:10FE500020710620694608730520C002029068469A
:10FE600001F01AFF284605B0F0BD000084530020C1
:10FE7000F8B5124905460C684620AE34A17849070A
:10FE80001AD521794C22114216D10023287E6A46C8
:10FE9000194604F029FF00280ED16846007828761C
:10FEA00000262E74284600F03BF9002804D1217961
:10FEB000042211432171E672F8BD00008453002032
:10FEC000FEB51B4904460D6826794620AE35012E45
:10FED00003D0002E01D04220FEBDA9780907FBD532
:10FEE0002979B3221142F7D1802001432971E179A8
:10FEF0006079002302AA04F0F7FE002813D16846B7
:10FF0000017A81712188018061884180E1794171A4
:10FF1000067100F0FFFA002805D1A179012000F058
:10FF200023FB0028D8D029794906490E2971FEBD46
:10FF300084530020F7B50E4684B00721019100914B
:10FF400001F0E2FE040004D07420005DC0071DD162
:10FF500002E0402007B0F0BDA01C05F00FF800281B
:10FF600016D0A07BC00611D4444D2868817D4A0874
:10FF70001143C90702D0817E490707D400210291AD
:10FF8000A173A17A002907D0F12903D04620E1E727
:10FF90005920DFE7F1071ED0807EC043800720D0C4
:10FFA000208920220105090D002001F09BFF070098
:10FFB00019D0A020A072E07E2F210840E076B00783
:10FFC00003D5A07B20210843A07306980028286849
:10FFD0000BD0417B0DE00120A0732046F6F7A7FA75
:10FFE000B8E73820B6E76420B4E78030007B4007EC
:10FFF000C10F2868827D53081A43D207C37DD20FF0
:020000041005E5
:10000000007B01F091FF0646204604F0D9FF0199DC
:10001000009800910190227E33460121384604F079
:10002000EDFF2146384601F08BFF002802D0412029
:1000300002908FE72968887EC243920701D0401C56
:1000400088762046542200212030F5F7EFFF304615
:1000500018210840E072A07EF10700D00221084379
:10006000A076E07E7107C90F0843E07628688030EB
:10007000C672A120A07202986CE70000885300208D
:10008000F7B500980F46018801262022002001F0D4
:1000900029FF040016D00098008803F07DFB0500BE
:1000A00036D02879B84233D1A87841072ED58007B9
:1000B0002CD40298002808D0009800F085F9002878
:1000C00002D002E0642528E00026A0681321017315
:1000D000A06800214773A06802278773A068C173D6
:1000E000A068310A0674A06841740620E0802146A9
:1000F000052003F06BFB002801D0412509E0A8781A
:10010000FB2108403843A870002506E0462500E0A2
:1001100042250021204602F093FA2846FEBD000049
:10012000F0B58FB00446F7F71FFF0146944841220F
:10013000006852018718934A8518121F8218126BA3
:1001400009927B22120180180B90082902D20C2000
:100150000FB0F0BD3846C0300390007AC00701D020
:100160003A20F5E720896189E288401C50438900E4
:10017000884201D31220EBE720880522010238468D
:1001800080305202C160914200D2C26061880A028E
:100190008260A1884B048902591A8A4200D9816081
:1001A00038462030217C0890017106462146627C49
:1001B000207E01231231FEF71DFE0020F070A08882
:1001C00041020B9881610021012000F0CDF9F7F781
:1001D000CBFE41260690082832D20120C0460128D5
:1001E00011D10398C18A408B081867499630F7F7F8
:1001F00044FE401CA18980B2814200D2A081E189E5
:10020000814200D2E081A1890320022900D8A08187
:10021000E189022900D8E081E089A189E288000211
:1002200009025202009201910290A0884302608864
:10023000020220880102069804F0FCFE060005D0A8
:100240000021084600F090F9304681E7E089F86126
:10025000286A0090002001900C90032002900B99D6
:100260000B98C98B8069491C4843C001000C05905C
:1002700020890E9060890D9007E001F050FB064642
:1002800001F04DFB000446400196019804F00CFF7C
:100290000028F2D001F043FB064601F040FB0004C9
:1002A00046403002000A039001F039FBC0B2060755
:1002B000360F0C2E04D34006400F80190C38C6B2FE
:1002C000207E00998001401D0870009C22206070F3
:1002D000A41C2046761D396804F04CFFB9882171B2
:1002E000090A61710C342046019904F043FF241D72
:1002F0002046039904F046FF0298E0700C982071A4
:100300000C980522000A60710598A0710598000AF2
:10031000E0710E9820720E98000A60720D98A0721B
:100320000D98000AE07216480C34006821464830E7
:1003300000F022FB1548807B400180196071286A1B
:100340004221AA68AB685880A868028006985823A2
:100350005843099B059AC018028700224271A86879
:10036000C01D04F00FFFA9680120C8720698A96893
:100370004001001D887208980221C1700020E7E644
:100380008453002004090000710200006052002024
:1003900010B58AB006A804F0FBFE040011D10021BC
:1003A0000791089102910391049105916846007E9E
:1003B00007A901910023009002211A46084604F083
:1003C00015FF20460AB010BDF0B50546418903204F
:1003D0008FB0022900D86881A989022900D8A88194
:1003E0004A48412100684901441828880221FEF743
:1003F00097F8082802D302200FB0F0BD2646C03679
:10040000B17B082901D20C20F6E7317AC90701D067
:100410003A20F1E7698849020891A9882F890B974A
:10042000AB894A021B020C936B89ED880A956D1CFF
:100430004D431B02B9008D4201D31220DCE7334942
:10044000092509682D0249190D6B582141436D1882
:100450007D21B07349027181A98906277943093149
:100460008FB22989BC46614489B20591029208A9DC
:100470000EAF0093019103220397520261460C9B39
:1004800004F0F8FE0823002801D0B373B4E70E98F7
:100490000A9FFF300130400A0E9008980E99400ADA
:1004A0000890000408430B99194A0904394372B6AD
:1004B0006F79BF0702D062B6B373A9E76B6B1A609E
:1004C0006A6B5060686B8160696B0598C860687979
:1004D00001210843687162B620464030C1770E9A08
:1004E00042849C23089A1A530A9A42850B9AC28521
:1004F000059A42860C98E061A879C006C00E0843B0
:10050000A871307A08433072002075E784530020C8
:10051000030C000370B505461248412100684901EB
:100520004418F7F721FD082801D20C2070BD288857
:1005300005220102204680305202C160914200D261
:10054000C260698820340902816028790023E07044
:10055000A8791A461946FEF74DFC687920710020EB
:1005600070BD000084530020F3B5054687488DB068
:100570000168412040010F1885480C187B200001BC
:1005800008180490092000020818006B0690F7F77D
:10059000EBFC0646E0210E98C8553046082E0AD2DC
:1005A000002D7DD172B604F0C9FE62B6304604F06B
:1005B00099FF0025E6E0002D72D038468030C168F2
:1005C00002918568734808904226002009960C9095
:1005D000FEF70EFD05AB2A460390029904F0C0FF1A
:1005E00001210546490405E0800805900C98401C4F
:1005F000C0B20C9005988842F6D80C9805998004F2
:1006000040180B2109054018059078684021800AA0
:1006100008405E49C01C0A68092109025118096D89
:1006200008705A480C210268092000021018006D59
:100630004170564839680268092000021018006DA0
:10064000801C04F097FD5148016809200002081839
:10065000016DB8888871000AC8714C48016809208A
:1006600000020818C16C9031A161C16C603139631E
:10067000C16C3031E161C06C2062E169002008701A
:10068000216A0870A0696168E2685080E0680180B2
:10069000388EE16862685080606801803B4800E005
:1006A0006FE00168092000020818006D21682268C7
:1006B0005080206801800021099A2368C81D1A54BF
:1006C000E268165462681654059AE368081D1A54C5
:1006D000089A63681A54059A23681A540998491CA1
:1006E000000A09900598360A000A05900898C9B2D0
:1006F000000A08900329DFD30398E268400101460D
:10070000133191722168887261688872E0680323EE
:10071000C37220680121C1726068C37203980828FF
:100720002BD2002D2ED11C4A80018018002282720B
:100730002726C67226680682E4684482174CC46184
:10074000174C846120242154C275039858246043B7
:10075000069C0019427172B6049C039E247DB14030
:10076000837021430023DB434381C27304980175E6
:1007700062B6204603F072FD04E0002D02D141254F
:1007800000E00C2528460FB0F0BD00008453002087
:10079000040900002C01B000CC0000205555550084
:1007A000D6BE898EFFB534480E4600684121490106
:1007B000451887B01F461446304604F01BFF0190D1
:1007C000301D04F017FF00902078617802AE0C0213
:1007D000044302210798FDF7A3FE00213A78327006
:1007E000491CC9B2761C7F1C1029F7D3082802D3F4
:1007F00002200BB0F0BDC035A97B082901D20C2026
:10080000F7E71D4909220968120289180A6B582165
:100810004143511872B64A79920702D062B63A2023
:10082000E7E77D2252026A81A8734A6B1348106081
:100830000869020504D5487901221043487103E094
:1008400001221203104308614A6B019850604A6B01
:10085000009890604A6B0298D0604A6B03981061D0
:100860004A6B049850614A6B05989061486BC4616B
:1008700062B60020BDE700008453002003010A0097
:1008800010B50C494122096852018C18C034A27B72
:10089000082A01D20C2010BD0522483100F06CF866
:1008A000207A0221084320720020F5F730FE002054
:1008B00010BD000084530020F8B5891ECDB2064655
:1008C000A81C03210843401C8308174817460068EA
:1008D000F10603D51C22BF210E4008E03721490153
:1008E0004118897A090601D40020F8BD1922310780
:1008F000890E08180121C902401840693146F7F7EE
:1009000035F904000ED03978217179786171A571BB
:100910002A46B91CE01DF5F783FB21463046F7F760
:1009200083F9E1E70720F8BD8453002010B5114991
:100930007B220968120189184C688B6842009C422E
:1009400004D1086B4C8A805AA04201D0012000E0FB
:1009500000204B608B688B614C6A8B89A3528C6A38
:10096000CB89A3520C6B4B8AA3520B8AC96A8B5258
:1009700010BD00008453002004E003780B70401C7D
:10098000491C521E002AF8D1704710B50B46017859
:10099000CA0901460831184604F037FE10BD0000B0
:1009A000FFB581B006460A98032113300843401C66
:1009B00083081F48F106006803D50722BF210E40B7
:1009C0000CE03721490141184A78920602D589780E
:1009D000890702D4002005B0F0BD05223107890E39
:1009E00008180121C902401840693146F7F7BEF8DE
:1009F00005001AD002982871039868712C462F1DA3
:100A000018340622A81D0499F5F70AFB0A983872D3
:100A1000FC6020460A9A0B99F5F702FB0C98387493
:100A200029463046F7F700F9D4E70720D3E700005E
:100A300084530020F0B50E460746002407E03D1918
:100A400000F06DFF2870000A6870A41CE4B2B44284
:100A5000F5D3F0BD30B50446008989B00105090D14
:100A60002022002001F03EFA050009D0E07A0007BC
:100A700009D505A80290019401A8F5F7C8FD08E082
:100A8000642009B030BD214605AA5431204604F047
:100A9000CBFD1120E880A8680321017305AB10226B
:100AA0000521284604F060FE2146284601F048FA58
:100AB0000028E6D1A521A172E3E7C17A0A07817F68
:100AC00003D4CA0701D0D12102E08A0702D5D3217D
:100AD00081727047490701D5D521F9E77421095C76
:100AE000C90704D0417F490701D0D021F0E7F021A8
:100AF000EEE70000F0B50B4693B00C4664330025DA
:100B000010220521099304F038FEE07A00070BD586
:100B100004A80F900E940EA8F5F77DFD0546EB286E
:100B200007D1002013B0F0BD04AA2046099904F0B3
:100B30007BFD21462A3110220F4604A8F5F780FAE2
:100B4000002806D000231A460421204600F0F2FABD
:100B50003CE0204E217F3068C07B814200D9207765
:100B6000E07A000703D52046F5F759FD2FE0102263
:100B700000216846F5F75AFAE07F022802D00328E0
:100B800006D00BE030680169684604F0FFFD05E01F
:100B90003168102268461C31F5F742FA22460AAB4A
:100BA00054326846099904F0F9FD102200213846B4
:100BB000F5F73CFA227F0AA93846F5F731FAA07B0F
:100BC00002210843A0732046F5F7B1FC05462846EC
:100BD000A8E700008853002070B506460C460025A3
:100BE000088904F0EFFD024600211A4B084604F084
:100BF0000BFE1949B0680968407B8A7D022A03D13F
:100C0000020701D4032018E0A27AF12A06D1228932
:100C10005204920F02D1420700D50125C006C00E32
:100C200080310873208900220005000D2946FFF756
:100C300081F9002808D0642805D00146012300224C
:100C4000204600F077FA70BDA17B80221143A1738A
:100C500070BD000030750000885300207CB50C4644
:100C60000646A42504F0F0FD00281BD1E07A000719
:100C700007D5684600960194F5F7BDFC002811D110
:100C8000A225A07EFB2140084000A076E07E08401F
:100C9000E0762146304604F0F1FD204604F032FEB5
:100CA000002808D0642805D00146012300222046F0
:100CB00000F040FA7CBDE17F022903D1E17EC90644
:100CC00000D4A225A5727CBD70B5064608890D46E4
:100CD0000105090D2022002001F004F904001DD0B7
:100CE000002E06D02B462A3310220521304604F070
:100CF00044FD1120E080A068042101732B46543389
:100D000010220521204604F02FFD2946204601F03F
:100D100017F9002801D1A621A97270BD642070BD09
:100D2000F7B52C4F0E46412138684901441882B06E
:100D3000154603210298FDF7F3FB0090092039685E
:100D400000020818016B0098582250430F180098B1
:100D5000FDF77CFC002807D0CF20005D0099082912
:100D600005D3022005B0F0BDCE20005DF6E7403788
:100D7000397D4A0701D51A20F4E732461B3AE12AA9
:100D800005D22A46FF3A144B493A9A4201D3302001
:100D9000E8E78A0601D4C90701D00C20E2E7082859
:100DA00001D23A20DEE7C034A08AB04200D2064623
:100DB000E08AA84200D205467888B04204D1388A39
:100DC000A84201D10020CDE72A463146029804F01E
:100DD000D5FDC7E78453002049410000054A41235F
:100DE00012685B01D218C032938B0380D08B0880CD
:100DF000002070478453002010B5114A4123126827
:100E00005B01D21803461B3BE12B05D20B46FF3B8F
:100E10000C4C493BA34201D3302010BDC03290831B
:100E2000D183938A834200D21846D38A8B4200D260
:100E3000194672B61082518262B6002010BD0000C1
:100E4000845300204941000030B5084C41252468F6
:100E50006D016419C034A58A0580E08A0880208B62
:100E60001080608B1880002030BD0000845300206B
:100E700070B50C46054602224031C01CFFF77CFDD0
:100E8000214602224E31681DFFF776FD21460222DF
:100E90003E31E81DFFF770FD2146284602224C3105
:100EA0000930FFF769FD70BD70B51148092402686B
:100EB0001F20800110180379002024021419A03289
:100EC0000146157B10E0DA070BD05822266B4A4307
:100ED000B21892785207520F052A01D0022A00D187
:100EE00001205B08491CC9B28D42ECD870BD0000DE
:100EF00084530020884200D30846704770B50D46E1
:100F0000462400F001FF002811D0C17F02290FD133
:100F1000C17AC9060CD507490968097E022907D19B
:100F20002B460E22002104F091FD044600E04024EF
:100F3000204670BD8853002070B50D46462400F051
:100F4000E3FE00280FD0817AB9290DD1C17F042991
:100F50000AD1C17E012D04D080221143C176002424
:100F600002E04022F9E74024204670BD70B5184DDC
:100F700090B02878002802D0012010B070BD6E46D5
:100F80000024FEF79BFBA100641C7050082CF8DBCA
:100F900069460120FDF766FD0128F1D020220D49A8
:100FA0006846F6F7D5FE0B492022203108A8F6F74F
:100FB000CFFE69460220FDF755FD08A90320FDF785
:100FC00051FDFDF724FD012028700020D5E7000029
:100FD0008E530020D021061030B504460120002396
:100FE00006E0D55CA54201D0002030BD5B1CDBB221
:100FF0008B42F6D330BD000070B5124C0E462178FE
:10100000012500291BD101460120FDF72BFD607051
:1010100031460220FDF726FD6178401860703146A8
:1010200020310320FDF71EFD617840180006000EF8
:10103000607004D1FDF7EBFC0220207000252846EB
:1010400070BD00008E530020034900280A7801D0AB
:1010500000200870104670478E53002010B50648D7
:10106000792300681B0120220249C018F4F7D8FF39
:1010700010BD0000F01D06108453002070B50D4A0D
:10108000054613680C4A002012680146A032147B02
:101090000DE07C22DE6F4A43B218D67AF60704D000
:1010A0001289AA4201D0012070BD491CC9B28C42EC
:1010B000EFD870BD8853002084530020F0B599B05C
:1010C0000E461C46174601460123202268461E9DF7
:1010D00004F0D6FC01232022314608A804F0D0FCFD
:1010E00010A8047001231022394611A804F0C8FC8E
:1010F00015AB11AA4121684604F0D2FC012310224D
:1011000015A9284604F0BCFC19B0F0BD04480068DD
:10111000817E0A0602D44022114381767047000086
:101120008853002002480068807E0007C00F704787
:1011300088530020F8B51D4614460E460B46074658
:101140000522214604F082FC0446642801D1012DC9
:1011500003D13146384604F0C1FC2046F8BD0000FA
:1011600070B588B00446002503F02AFF1E4E012802
:1011700023D105AB01220021204600F0A5FF06ABDC
:1011800002220021204600F09FFF01A80090316854
:1011900000239031059A0846FFF790FF102201A91D
:1011A0000698F4F74DFF002807D004210123002200
:1011B0002046FFF7BFFF054610E0207EC10707D09D
:1011C000800705D43068102200211C30F4F72EFF70
:1011D0007420005DC00704D0B620A072284608B075
:1011E00070BDA920F9E700008853002070B50646BD
:1011F00008890C4601058AB0090D2022002000F064
:1012000071FE050012D0002E06D023462A3310228C
:101210000521304604F0B1FAE07A000709D505A8A7
:101220000290019401A8F5F7FEF908E064200AB0E5
:1012300070BD214605AA6431204604F081FC1120CE
:10124000E880A8680321017305AB10220521284618
:1012500004F08AFA2146284600F072FE0028E6D102
:10126000B621A172E3E7F0B59DB00D461E461746C4
:101270000146012320226846229C04F001FC012340
:101280002022294608A804F0FBFB01231022314646
:1012900010A804F0F5FB01231022394614A804F02D
:1012A000EFFB18AB14AA5021684604F0F9FB0123A8
:1012B00004221BA9204604F0E3FB1DB0F0BD017819
:1012C000427813028278C078120400061043184353
:1012D0000843704770B50E4602230446C106124803
:1012E0001546006803D51E22BF210C4008E03721B7
:1012F00049014118C97A890601D4002070BD1B221A
:101300002107890E08180121C902401840692146A9
:10131000F6F72CFC010005D08E8020468D60F6F794
:1013200083FCEAE7072070BD8453002070B50646B1
:10133000008941250105090D2022002000F0D2FD81
:10134000040025D000214522A06804F0A1FC05007E
:101350001ED14120E080A0680C2101730D4840227D
:101360000368052120463C3304F0FEF9314620464F
:1013700000F0E6FD05000BD1F07A20210843F07261
:10138000FFF7D0FE002803D0F07A04210843F07262
:10139000284670BD88530020F0B5274D04462968C3
:1013A00000208A7E93B09206920F032A38D1202221
:1013B00007A8D031F4F734FE2868CF22817E264674
:1013C000114081766036307D11AFC0072AD00FA85A
:1013D00005AB3A4606A90090204604F08FFC6A4609
:1013E0002968127E2046D0312A30039104900FA83C
:1013F0006B4685C36A46137D2246214664325431CA
:1014000007A804F093FC2A6801212046E03204F08A
:10141000FDFC002804D1317DC90708D0BB21A17291
:1014200013B0F0BD06AB0FAA05A90097D4E720467C
:1014300004F086FDF4E700008853002030B589B041
:101440000C466B461022052104F097F904AA0021EE
:10145000204604F0DBFC050006D1102204A96846F2
:10146000F4F7EEFD002806D0012300220B212046D0
:10147000FFF760FE17E07420005DC00703D0204630
:1014800004F05EFD10E0207F10210A1A21462A3167
:1014900040180021F4F7CAFDA07B02210843A07385
:1014A0002046F5F744F80546284609B030BD00004F
:1014B00070B5274D0E462B68997E090601D53A2452
:1014C00044E040220521903304F057F92868902227
:1014D000817E114202D18906890F01D0382435E07E
:1014E0009030F8F77DFC002805D00446122822D061
:1014F0001F2C24D02AE02B681022997E0446114329
:101500009976F07AC0210843F072184611492022DA
:101510009030F4F795FD002818D10E492868203145
:101520002022B030F4F78CFD00280FD1F07A04218E
:101530000843F0720AE0012300220B2102E001239C
:10154000002208213046FFF7F5FD0024204670BD3B
:1015500088530020B01D0610F3B5074675480F22CA
:10156000006883B0002F0ED0012F12D0022F14D0AC
:101570002F21490141180191032F10D0012F11D0C3
:10158000022F0DD110E06C49411801918D21C90045
:101590000CE09D21C9004118EDE76849EAE71F22E8
:1015A000674903E0674901E02B2149014018009099
:1015B0000478944203D1002F11D0032F0FD094420E
:1015C00001D1022F0DD000253846049900F0BCF857
:1015D0000290FF2807D0FE25002F7DD0A6E0FF2532
:1015E000A4E0FC25F0E7FE2D77D0022F10D1FC2DD2
:1015F0000ED15048019A0068FF300130417ECB0087
:101600009A18D2794276022000F0E0F8641EE4B223
:10161000002C39D00198E1000D182E46083E04999F
:101620000720401E0B5C325C9A1A0BD0002A0BDD9F
:101630000198E100081807220499F4F7F1FC251E2F
:1016400022D027E00028ECD1284607223146F4F7C3
:10165000E7FCF079E871022F12D0F079C143490616
:101660000ED037214843334909684018FF301B30FA
:10167000002F02D0012F17D0C01C0178491C017027
:10168000641E2406240EC5D1072204990198F4F79C
:10169000C7FC00250098022F007807D0401C009955
:1016A000002F08703DD041E0401CE6E7002822D022
:1016B0000199C2005118C91D0A78521CD2B2A24227
:1016C00000D90A70401E08390028F5D1009800782A
:1016D000002810D0174801E025E01FE00068FF3027
:1016E0000130417EA14201D3491C4176017EA142D5
:1016F00001D3491C01760F480168FF310131097E91
:10170000CA0001995118CC710068FF30013004768D
:10171000009800990078401C087007E0002F02D064
:1017200004E0FE2D02D1029D80200543284605B02D
:10173000F0BD0000845300206C040000640500002C
:10174000DC050000E4040000F0B51D4A0423126823
:1017500000280AD0012826D0022828D02F2464018E
:1017600012199646032824D002E01648121896460D
:101770000F20844601209840C3B200265B08F01871
:10178000C0B260450BD2C200744614190722521E23
:101790008D5CA75CED1B0FD0002D00DD0646002BF5
:1017A000ECD1FF20F0BD9D24E4001219D9E7064CCE
:1017B000D6E705231F20DCE7002AE8D1F0BD0000B2
:1017C000845300206C04000064050000F0B50400A0
:1017D000444883B000680E460AD0012C4CD0022C3D
:1017E0004ED02F21490140180090032C4AD002E02E
:1017F0003D49401800900F20FF2E53D0401EC0B22C
:1018000035460190864223D20099E80047183946B0
:10181000083107223846F4F703FCF97BF971022CF2
:1018200011D0C84340060ED0372041432D480068F0
:101830000818FF301B30002C02D0012C24D0C01C13
:101840000178491E01706D1C0198EDB28542DBD311
:10185000C100009807220D18FF212846F4F7E6FB87
:10186000FF20E871002C11D0012C14D01D48022C4F
:10187000006834D01D4911E09D21C9004018B3E72C
:101880001B49B0E71F20B7E7401CD9E715488D2159
:101890000068C90002E01348164900684018017842
:1018A000491E0170022C18D10E480068FF3001302B
:1018B000417EB14201D9491E4176017EB14201D932
:1018C000491E017600980F22C01D0178B14201D94E
:1018D000491E01700830521EF7D103B0F0BD2B2114
:1018E0004901DBE7845300206C040000DC050000A4
:1018F00064050000E4040000017842781302827855
:10190000C078120400061043184308437047017062
:101910000A0A42700A0C8270090EC17070470021D9
:101920000B200007026852070DD5026804239A4372
:101930000260026808231A43026004E0491C05297A
:1019400001DD0020704742689207F7D54168C9075A
:10195000FCD0806880B27047002805D00C2805D0E4
:101960000D2805D2401E06E025207047262070472E
:101970002728FCD2801EC0B27047002101E000BFC2
:10198000491C8142FBD3704730B47446641E2578ED
:10199000641CAB4200D21D46635D5B00E31830BCA3
:1019A000184708B56420694608700921C9066A46C7
:1019B0001078401E1070C868C00302D51078002847
:1019C000F5D1107808BD0000044A092312681B02F3
:1019D000D218D26A400080184170704784530020AA
:1019E00070B5054600242046FFF748FB002801D0CB
:1019F000462404E0012D02D10120F4F7E0FD204649
:101A000070BD0000F1B5194B7B2118680901024631
:101A1000363241189646A030027B886C805C0C46BA
:101A20002034A4461BE08D6C2C5C009EB04212D08A
:101A30006646B67E3607360F86420CD07646367836
:101A400077077F0F874201D1360704D501260F7D26
:101A500086403E4201D1AC5400E0024620461C685C
:101A6000A034247B8442DED1F8BD000084530020E2
:101A7000FEB586461C4801687B2000010B1800203B
:101A8000A03101900C7B69460C70996C0A5D8C4604
:101A90000521C90117E05D6A56009F6AAD5BBE5B18
:101AA000019FAD01EF1BB60102978F4201D37F1A50
:101AB0000297874200D33846AD196D1801956D46DF
:101AC0002A706546AA5C9442E5D1019B7246D21AFF
:101AD00002928A4201D2002100E0511A0291814211
:101AE00000D30846FEBD000084530020FFB595B02A
:101AF0000E46054620210CA8F6F762F90020049056
:101B0000564800270468681EAE34042802D8A0781E
:101B1000C0070BD0062D02D0002D0AD002E0A0781D
:101B2000800703D5E0784006800E0AD0462019B021
:101B3000F0BDA0788007F9D0E0784006800EF5D09F
:101B40000FE0002D0DD0012D20D0022D28D0062D24
:101B500033D0032D33D0042D37D0002E3BD042207C
:101B6000E5E70020F6F77EFB0028E0D1E07880076B
:101B700008D5042069460873684603F0A5F90220D9
:101B800004F00CFA0120E0700020D0E7012EE6D02E
:101B9000042EE4D01F980028E1D10627042008E095
:101BA000012EDCD0042EDAD01F980028D7D10527CB
:101BB0000220E0700120049010E040200DE0022E91
:101BC00001D0032ECBD1082007E0012E01D0042E36
:101BD000C5D1102001E004272020E07000230BAACB
:101BE00019461E9803F080F8030002D004F0FEF9B5
:101BF00032E01022002107A8F4F718FA07A86C4673
:101C0000279B269A1F990FC42B463046189A17997E
:101C100004F0F6F90300E9D108A8017BC17025980A
:101C200003AC049B289A29990FC422AB07CB0292DC
:101C30000091019039460CA8209B219A04F024FAC7
:101C40000300D3D107A8F6F7D7F90300CED10120BE
:101C5000F6F708FB0300C9D1184668E78453002053
:101C600030B50C4A412312685B01D218936A2032C6
:101C7000147B1F2C02D90020087030BD002205E023
:101C80001D780570521C401CD2B25B1CA242F7D3D7
:101C90000C7030BD8453002010B504460920C006E6
:101CA00000690002000A02F0BFFEA16804F06EFAAB
:101CB000A060204604F07CFA10BD000030B5104A48
:101CC000002013680F4A01461268A032147B13E00B
:101CD0007C22DD6F4A43AA187425AD5CED07957A26
:101CE00006D0B02D06D3EAB2F02A03D8012030BDC9
:101CF000A02DF8D2491CC9B28C42E9D830BD0000F1
:101D0000885300208453002070B500281BD00305A1
:101D10000F48002100680D4A1B0DA0301268047B9B
:101D20000FE008467C267043D56F0830285A00051E
:101D3000000D984203D17C225143681870BD491CA4
:101D4000C9B28C42EDD8002070BD0000885300203D
:101D50008453002070B50D4601230446C106114886
:101D6000006803D51822BF210C4008E03721490143
:101D70004118897A090701D4002070BD1522210776
:101D8000890E08180121C902401840692146F5F75B
:101D9000EDFE010004D08D802046F5F745FFEBE70E
:101DA000072070BD84530020F0B5454C09252668F6
:101DB0002D027019006E0027416B4248AE368DB07F
:101DC000814242D006216846FEF734FE69464879D2
:101DD000C021084369464871206806224019006EF8
:101DE000243004F01FFA0746102105A8FEF722FE52
:101DF000206810224019006E05A9001D04F012FA97
:101E00000743102109A8FEF715FE2068102240198B
:101E1000006E09A9143004F005FA0146394313D1C4
:101E2000206829494019006E264F4018800881001B
:101E3000264808183946049000F0E1F80498006834
:101E4000B84201D1002700E0FB2722685019006E3C
:101E5000A632243001900620014600900020FFF7B2
:101E6000BBF8002802D12068A6300190701D009AAE
:101E70000199F4F7D5F82268102631460020803207
:101E8000FFF7AAF8002807D0206832464119096EEA
:101E90008030091DF4F7C4F82268314600209032E2
:101EA000FFF79AF8002807D0206832464119096EDA
:101EB00090301431F4F7B4F838460DB0F0BD00009E
:101EC00084530020AAAAAAAA3400FCEF0000041040
:101ED00010B5034906220968B331F4F7A1F810BD23
:101EE00084530020F8B50D460E49092309681B02EA
:101EF000C918CE6A1F21521E0A431D3297B2002410
:101F0000394604F0B9F900280AD13946B06804F01E
:101F1000DBF9044608340068A0600020E074A58066
:101F20002046F8BD84530020C007C907C00F490FE1
:101F30000843D107090F0843D907C90E0843704762
:101F400070B50D4606460146062001F03FFC040030
:101F500005D00021304600F073FB204670BD288973
:101F600003F030FC02460021024B084603F04CFC13
:101F7000F3E700003075000010B50024FFF7C4FE41
:101F800000280ED00089C10407D50124810401D5A1
:101F9000032402E0410400D50524000401D40820F4
:101FA0000443204610BD0000024A800080180068EB
:101FB0000870704700000410F8B5074F0E4604463D
:101FC0000025A000C0190168701904F094F9641C80
:101FD0002D1D502DF5D3F8BD0000041010490968DF
:101FE000104A91420AD110493F220A814006000C52
:101FF000886111200880088AC007FCD57047084A0C
:102000001268084B9A420AD1074A3F23138180087D
:102010009061116433201080108AC007FCD570478E
:1020200014000020CCBCECFC0000104070B50D4644
:10203000040006D0F8F7BEFAE000001BC6B2002488
:102040000FE0422070BD285D012803D0002801D098
:102050001F2070BD2819F8F7C1FA0028F9D1E41D36
:10206000E4B2B442EFD3002070BD38B50B4604464D
:10207000C11C6A46184604F046F903222146684608
:10208000F3F7DEFF002800D0412038BD024610B52E
:102090000B4800240068407D1070002804D00128FF
:1020A0000AD01F24204610BD0846064906220968AA
:1020B0007831F3F7B5FFF5E70846FFF709FFF1E7D9
:1020C000885300208453002070B500241D46164616
:1020D000002804D002F074FF002802D003E0002999
:1020E00001D042240BE00948002E0AD0012E08D06E
:1020F000022EF6D1006880304068183028602046F3
:1021000070BD0068803040680830F7E788530020D1
:10211000810010B505480C182068010A0902204604
:10212000FFF76DFF2068002010BD000000000410C4
:1021300000230360436041720272C372837270476E
:10214000086042684A604268116041607047000060
:1021500004490A683B21490151180A7D02430A7566
:10216000704700008453002010B50B480B490068ED
:1021700044184034207AC00709D0002004F0DEF86B
:10218000217A890701D5002803D0002010BD4720FF
:1021900010BD642010BD0000845300202C070000F7
:1021A000026800230B80824203D09BB212685B1C42
:1021B000F8E7704700B50B4604F0DEF8002808D0B9
:1021C00003CB083B086003CB41600020083B18604C
:1021D000586000BD30B50F4B0F4D1B6804465B19AE
:1021E00040331B7A412085B09B0710D56B469981FF
:1021F000DA81002018820420588203AA04A96D46BF
:1022000007C502231A4601212046FAF76DFF05B0E3
:1022100030BD0000845300202C07000010B5094A8F
:10222000094B1268D2189368083206E01C8D84426C
:1022300002D100200B6010BD1B689342F6D14120F3
:1022400010BD0000845300202C07000002480068E5
:10225000AE30008870470000845300200FB410B5E2
:10226000079C01282DD1684680891749884210D1E2
:1022700003A80FC804F08BF800281DD104F0A4F8BF
:10228000FA281ED001281CD92078F321084020709C
:1022900017E00D49491C884208D0C91E884205D064
:1022A000491C884202D0C91C88420AD103AC0FCC19
:1022B00004F06DF8002800D0632010BC08BC04B006
:1022C00018470020F9E70000022A000024231842E2
:1022D00004D0C81F092803D82032D17100207047CC
:1022E0004220704710B50B6A203106E09C8B844277
:1022F00002D10020136010BD1B688B42F6D1412033
:1023000010BD0000FFB55248524A006887B08218DD
:10231000069210AA109B0126169F9288012B04D1C9
:102320004D4B9A4201D1A030067B069D3446403584
:10233000688B2B8B7C43C31A099820300390A342EF
:1023400022DA48200BB0F0BD2320405C012819D1CF
:1023500008896C46208098420CD03F4C641EA042F5
:1023600008D0641CA04205D0641CA04202D0A41C6A
:10237000A04207D1384CFF3CA04201D0904201D18D
:102380006220DFE7096801E029231B0203988142EC
:10239000DAD109981B99846918982246FFF796FFAD
:1023A0004228CFD01C98012804D11598874201D229
:1023B0004220C7E71598E083204620301C990590FD
:1023C000817027840A98808B401CA0831098012874
:1023D00014D02046102211A90830F3F721FE0599E8
:1023E0001098C8700698298B406D4018A061298B01
:1023F000384670430818288300250FE011A80FC83D
:1024000008340FC4183CEAE72846A1697843081845
:10241000159A1799F3F704FE6D1CEDB2B542F3D38C
:1024200005991898487105991998087105991A988D
:102430008871099821461830FFF7BCFE21460398A1
:10244000FFF77EFE0798A18B018000207AE700004D
:10245000845300202C0700000229000000B500F082
:1024600019FB002805D0852201699201114200D094
:10247000002000BD10B508480C460068074902223C
:102480004118A0685C310273A0680D30F3F7C8FDF5
:102490000320E08010BD0000845300202C070000C2
:1024A00010B504460146042001F090F9002808D038
:1024B000044805490068401821463C3003F0A6FF57
:1024C000432010BD845300202C070000FFB58BB0C3
:1024D0001D464624159F0B98FFF7C0FF06006DD0E0
:1024E000202200200B99FFF7FDFC0590002864D006
:1024F000E80706D030460D9B0C9A059900F03CF990
:102500002BE0A8070DD51498BAB281B216980292A2
:102510000091019030460D9B0C9A059900F0AEF8A1
:102520001BE02807800F1DD01498002FC4B217D0CD
:102530001022394606A8F5F725FC680706AD049475
:102540000FCD6D460FC50D9B0C9A0599304602D5EF
:1025500000F03AF801E000F0D4F804001DD027E0C4
:10256000472425E0E8060AD51498009780B2019028
:1025700030460D9B0C9A059900F04EFAEDE7A8063F
:1025800016D50C98C0B2012805D000223046059916
:1025900003F052FFE1E70122F8E701213069490326
:1025A000084330610748B0610598FFF779FF05E0FF
:1025B0000021059800F044F800E0642420460FB0A4
:1025C000F0BD0000010A06107FB505466846008987
:1025D0000C9E0C46002816D069468989884212D87C
:1025E000A06810210173A068022202A90D30F3F740
:1025F00017FDA068022203A90F30F3F711FD012E89
:1026000004D0022E0AD0422004B070BDA06802227D
:1026100008A91130F3F704FD072006E008AB1022EB
:102620000921204603F0A0F81520E0802121286927
:102630008901084328611120A8730020E4E7000005
:10264000F8B50E460C4909220968120289180838A3
:102650000746CC6A03F001FF05463946A06803F03F
:1026600006FF72B67100605C401B6054207940190F
:10267000207162B6F8BD000084530020FFB581B020
:102680000646684680890C9F0C46002837D069466C
:10269000098A884233D87088C01FB8422FD3FD1DE5
:1026A000AAB20021204603F0FDFE002802D06420DB
:1026B00005B0F0BDA06806210173A068022203A93D
:1026C0000D30F3F7ADFCA068022204A90F30F3F738
:1026D000A7FCA06802220AA91130F3F7A1FC3A4630
:1026E0000B2120460B9B03F03FF8E5802121306948
:1026F0008901084330610720B0730020D8E74220E9
:10270000D6E77FB50546684600890C9E0C46002832
:1027100016D069468989884212D8A06808210173B9
:10272000A068022202A90D30F3F77AFCA068022209
:1027300003A90F30F3F774FC012E04D0022E0AD047
:10274000422004B070BDA068022208A91130F3F73E
:1027500067FC072006E008AB10220921204603F0A1
:1027600003F81520E08021212869890108432861A8
:102770000920A8730020E4E77FB505466846008974
:102780000C4600281ED06946898988421AD8A0685C
:1027900004210173A068022202A90D30F3F740FC66
:1027A000A068022203A90F30F3F73AFC0520E0806D
:1027B000212128698901084328610520A873002088
:1027C00004B070BD4220FBE7F8B50F46064646252B
:1027D000FFF744FE04001ED0202231460020FFF700
:1027E00081FB060016D001463A46204603F061FE02
:1027F000050004D000213046FFF722FF0BE0012145
:1028000020694903084320610448A0613046FFF76E
:1028100047FE00E064252846F8BD0000132D061091
:10282000F7B5174606464625FFF718FE040028D0E0
:10283000202231460020FFF755FB060020D001463C
:102840003B462046019A03F051FE050004D00021CA
:102850003046FFF7F5FE14E0A068019900F015F985
:10286000A0683946801C00F010F90120216940035E
:10287000014305482161A0613046FFF711FE00E0E9
:1028800064252846FEBD0000272D0610FFB507462B
:102890005804040C788881B0401E0E46A0421FD315
:1028A000042C1DD3651CAAB20021304603F0FAFDAA
:1028B000002802D0642005B0F0BDB0680E2101737D
:1028C000224605213046039B02F04EFFF580212071
:1028D0003969800101430F203961B8730020EAE7AC
:1028E0004220E8E7FFB581B01F4606464625FFF7C0
:1028F000B5FD040020D0202231460020FFF7F2FA77
:10290000060018D0014600972046039B029A03F068
:1029100011FE050004D000213046FFF791FE0BE0C8
:10292000012120694903084320610548A061304620
:10293000FFF7B6FD00E06425284605B0F0BD0000B5
:102940003B2D0610FFB5324883B001682520800179
:102950000818008B46250C9F002856D10398FFF7D6
:102960007DFD040051D0202200200399FFF7BAFA20
:10297000060049D026482522006892010399821852
:102980001183092109024018C06D3A460699F3F7F0
:1029900047FB6088401F80B2B84200D33846069992
:1029A0000091019031462046059B049A00F034F8CE
:1029B000050004D000213046FFF742FE25E0A06864
:1029C000049900F062F8A0680599801C00F05DF899
:1029D000A0683946001D00F058F8A0680021801D4D
:1029E00000F053F80A480168092000020818C06D79
:1029F0006061012120694903084320610548A06105
:102A00003046FFF74DFD00E06425284607B0F0BDD5
:102A1000845300204F2D0610FFB581B0064668464E
:102A200080890B9F0D4600282DD07088401FB8422A
:102A300029D37C1DA2B20021284603F033FD0028D3
:102A400002D0642005B0F0BDA86816210173A86803
:102A5000022203A90D30F3F7E3FAA868022204A9C1
:102A60000F30F3F7DDFA3A46092128460A9B02F0B7
:102A70007BFEEC80212130698901084330611720F9
:102A8000B0730020DEE74220DCE70170090A4170E4
:102A90007047000010B50D4900050B6809210902B7
:102AA00059184A6B0021000DA0331B7B0AE04C0132
:102AB000145B2405240D844202D14801801810BD06
:102AC000491CC9B28B42F2D8002010BD84530020AB
:102AD000091D8AB210B501460020FFF703FA10BDA8
:102AE000FFB581B08C680A9E5220207388680D461D
:102AF0001F46022203A90D30F3F792FA3B463246F5
:102B00000721284602F030FEF61CEE80002005B0BA
:102B1000F0BD000004490A683B21490151180A7DB3
:102B200002430A757047000084530020FFB5064633
:102B300081B00C4688680A9DD2210173A0681F46A7
:102B4000022203A90D30F3F76BFA3B462A46072110
:102B5000204602F009FEED1CE58030882146000584
:102B6000000D03F01AFD002005B0F0BD88681E229C
:102B700002730120C880002070470068002801D03F
:102B8000002070470120704710B5806803F033FDC6
:102B900010BD7FB505469868012202739A681C46ED
:102BA00051739868022202A90E30F3F739FAA1682E
:102BB00005200D74E0807FBDF0B506465A480C46EE
:102BC00000685A498DB04718E0881546052804D298
:102BD0001346002216210420A2E0A168022208A8C0
:102BE0000D31F3F71DFA6846008C002873D003F00E
:102BF0003FFD01006FD068460A8D008C824204D1EF
:102C0000024616212B4603208AE001AAFFF76AFB41
:102C1000002860D1308802220005000D019900F0E3
:102C200047FD002804D069460A8C2B46162177E020
:102C3000384630302146009003F03EFD012844D054
:102C4000019820308079800746D53069810343D4CC
:102C5000C00141D4A168022209A80F31F3F7E0F9BD
:102C6000012130694904084330610220079030880F
:102C7000069001980321878B6846868CA0790A9478
:102C8000401FC5B2E81D0843401C830826480221A6
:102C900000688C020830001935224069F4F766FF9D
:102CA00004000FD00698A080E7802681A5722346F5
:102CB0002A4609210B330A9802F05FFD2146079846
:102CC000F4F7B2FF69200DB0F0BD6846028C162102
:102CD0002B46092024E01EE0E2880021284603F06C
:102CE000FEFC002801D04520EDE73846214624307F
:102CF00000F0BCF82146284603F0F8FC2146009875
:102D000003F084FBA86817210173E888002802D02B
:102D1000E8806720D7E76846028C2B461621012001
:102D2000FFF737FF0020CEE7845300202C07000078
:102D3000F0B50446C88887B00F461646032804D26B
:102D4000134600221221042016E0B968022205A8C9
:102D50000D31F3F765F96846808A002814D003F036
:102D600087FC010010D068460A8D808A824206D115
:102D70000246334612210320FFF70BFF74E002AA3C
:102D8000FFF7B0FA002805D06846828A1221334640
:102D90000120F1E7208802220005000D029900F0D1
:102DA00087FC002804D069468A8A33461221E3E76B
:102DB000F888C01E85B20298014620318A78002A20
:102DC00002D0012A02D00AE0C28B00E0028CAA42A3
:102DD00005D26846828A122133460D20CCE78979D4
:102DE000890714D521698A0311D4CA010FD401229D
:102DF000520411432161E9B201970091828B21882D
:102E00000323022003F084FC692007B0F0BD2146B3
:102E100003F0B4FC01900298028C8169019842434E
:102E20008B182A460721384602F0A7FC0298014673
:102E300020310A468978012900D1C583B16813235E
:102E40000B7391790125C9070DD0018C019A836913
:102E500051435918002200920191C38B828B218823
:102E6000022003F0B3FCF5800020CEE710B5044645
:102E70000068884209D1026822600022026020684E
:102E800000280BD1626009E0104602688A42FBD13B
:102E90000A68026062688A4200D16060084603F0F6
:102EA000D1FCE17A081AE072A07A401EA07210BD2F
:102EB000F0B5044688680F460146007B083185B0AE
:102EC000522810D00F250826F888A8425CD3022289
:102ED00003A8491DF3F7A4F868468089002853D059
:102EE000082E03D00DE003250426EDE720694001FC
:102EF00007D4208839460005000D03F0A8FC0028FF
:102F000042D1012120698906884320616846808971
:102F100003F0AEFB010037D068460A8D80898242FB
:102F200032D002AAFFF7DEF900282DD120883246E0
:102F30000005000D029903F0C7FC002824D1F88891
:102F4000401B85B20298014620310A468978002943
:102F500002D0012902D004E0C18B00E0018CA9421B
:102F600012D39179890711D521694A030ED4012220
:102F7000920411432161E9B201970091828B21886B
:102F80000323022003F0C4FB05B0F0BD214603F08B
:102F9000F5FB064602982A468169008C70430B189F
:102FA0000721384602F0E9FB0298014620318A7871
:102FB000012A00D1C5838979C907E5D0018C8269CE
:102FC00071435118002200920191C38B828B20889B
:102FD0000105090D022003F0F9FBD5E7FEB5044613
:102FE00000200290C8881546032804D0134600220A
:102FF0000A21042026E08968022268460D31F3F791
:103000000FF868460088002819D003F031FB010052
:1030100073D068460A8D00880B27052682421DD191
